:020000040800F2
:1000000070060020091D00086F0300087103000836
:100010007303000875030008770300080000000060
:10002000000000000000000000000000790300084C
:100030007B030008000000001F1D0008211D0008B0
:10004000231D0008231D0008231D00086D03000860
:10005000231D0008231D0008231D0008231D000880
:10006000231D0008231D0008231D0008231D000870
:10007000231D0008231D0008231D0008231D000860
:10008000231D0008231D0008231D0008231D000850
:10009000231D0008231D0008231D0008231D000840
:1000A000231D0008231D0008231D0008231D000830
:1000B000231D0008231D0008231D0008231D000820
:1000C000231D0008231D0008231D0008231D000810
:1000D000231D0008231D0008231D0008231D000800
:1000E000231D0008231D0008231D0008DFF80CD085
:1000F00003F052F90048004727020008700600206C
:10010000EFF30980704780F309887047EFF30880A8
:10011000704780F30888704740BA7047C0BA70478C
:100120008E4810B501688E4A1140B1F1005F0CD0C5
:10013000642000F0A4F9012000F03CF9642000F0F4
:100140009EF9002000F036F9F2E74168854C6160C5
:1001500021600068FFF7DDFF2068BDE81040004720
:10016000034610B50020024604E09C5C521C20446B
:10017000C0B2D2B28A42F8D310BD10B590B04224BA
:1001800006218DF800408DF801108DF80200012045
:100190008DF803008DF804208DF805306846FFF7D0
:1001A000DFFF8DF806000721684602F059F80A20A3
:1001B00000F065F902F05AF80428F8D102F04BF883
:1001C00010B010BD38B5684C5FF0000502F04EF875
:1001D000022808D00A2000F052F96D1CEDB2642DFF
:1001E000F4D3002038BD002020606946204602F08C
:1001F00035F8BDF80000401E80B2ADF8000021784F
:100200004229EED161788142EBD1C1B22046FFF79D
:10021000A7FFBDF80020A15C8842E2D1E078012868
:10022000DFD1204638BD012600F0D3F9012000F0CF
:10023000C1F801F0EEFF02F00EF801F090FD494F19
:100240004FF0000B07F10C0AFFF7BCFF0446012E2C
:1002500002D0022E7DD131E0002C7AD020791128F5
:1002600002D0142875D111E0AAF800B05B465546BB
:10027000E178A0781322FFF780FF4FF4FA7000F0C6
:10028000FEF82B88E178A078132260E060790028DE
:100290005FD1324E002500BF06EB852001F09AFDAC
:1002A0006D1CEDB21A2DF7D3BE60BAF80030E178BC
:1002B000A0781322FFF761FF02264AE05046C4B33C
:1002C00080F802B0217911293AD0142941D16179FD
:1002D000BAF8000004F10509814224D16078801F3A
:1002E000C11700EB9170C0F3870800250CE000BF38
:1002F00009EB8500D0F80110B86801F00AFEB86873
:10030000001D6D1CEDB2B8604545F1D3BAF8001080
:10031000491CAAF800106078801F642803DA01F0F5
:100320002AFDFFF7FDFE1322BAF80030A078012164
:100330000DE0FFE78178491CC9B281700A2901D913
:10034000012606E0BAF80030132201216420FFF7ED
:1003500014FF0A2000F093F876E700000040000840
:100360000000FE2F000000207C0000207047704736
:10037000FEE7FEE7FEE7FEE77047704770470000C4
:1003800080F001022021964801F051BC08B50121FE
:10039000082000F0B4FB4FF48050ADF800001020AE
:1003A0008DF8030003208DF8020069468C4801F0A7
:1003B000CCFB08BD02464FF48051894801F037BCA0
:1003C00010B54FF48071874801F019FC002800D067
:1003D000012010BD00B585B0684600F047FB0198CC
:1003E0004FF47A71B0FBF1F0B0F1807F0DD220F0C4
:1003F0007F414FF0E020491E41617B4AF02182F8A5
:10040000141D002181610721016105B000BD0EB5F9
:100410000121022000F07CFB684601F016F84FF441
:100420008070ADF806001020ADF802006320ADF832
:1004300004005320ADF8000069466C4800F080FDD0
:100440006A4810300188C907FCD04FF6FE71018060
:100450000EBD66492431401E08806448018841F081
:1004600001010180614910310A88D207FCD04FF6A2
:10047000FE720A80018821F001010180704742F676
:10048000DF6303E01946491E89B2FCD2401E80B2E8
:10049000F8D270473EB50121084600F039FB6846A6
:1004A00000F0D3FF0020ADF80600ADF802004FF6D3
:1004B000FF70ADF804001320ADF800004FF0804449
:1004C0006946204600F03CFD0121204600F0E1FF96
:1004D0003EBD38B54FF4A06001F014FAFF208DF84E
:1004E000000001248DF8014000258DF802508DF8A0
:1004F0000340684601F00BFA1C208DF800008DF8CF
:1005000001408DF802408DF80340684601F0FFF984
:1005100007208DF800008DF801508DF802408DF80D
:100520000340684601F0F3F938BDF8B50121042015
:1005300000F0E5FA0121082000F0E1FA4FF48070A4
:10054000ADF800004825274F8DF8035003248DF89F
:1005500002406946384601F0F8FA3815ADF8000057
:1005600010268DF803608DF802406946384601F088
:10057000ECFA2020ADF800008DF80360184E8DF8DD
:1005800002406946304601F0E0FA0220ADF8000072
:100590008DF803508DF802406946304601F0D5FAD7
:1005A000F8BD1CB50121084600F0A9FA0121084652
:1005B00001F083FB0220009000208DF80400102041
:1005C0008DF8050001208DF80600684601F000FA5C
:1005D0001CBD10B5FFF7DAFEBDE8104000F040B8D2
:1005E000000C0140000801400FE000E00004004062
:1005F00010B5012186B0880300F08AFA4FF46040FC
:10060000ADF8140003208DF8160018208DF817009F
:1006100005A94B4801F099FA0020ADF800004FF40D
:100620008271ADF80210ADF808004FF40071ADF81A
:100630000A103021ADF80C10ADF80400ADF806003A
:10064000ADF80E0007203F4CADF81000694620467B
:1006500000F0C8FA0121204600F041FB06B010BDB1
:1006600010B5012186B0080300F049FA01210420E9
:1006700000F045FAE020ADF8140003208DF81600D4
:1006800018208DF8170005A92F4801F05EFA002008
:10069000ADF800004FF48271ADF80210ADF808001B
:1006A0004FF40071ADF80A103021ADF80C10ADF820
:1006B0000400ADF80600ADF80E000720234CADF89D
:1006C00010006946204600F08DFA0121204600F016
:1006D00006FBC3E700211D4A03E0491CC9B2C82933
:1006E00009D813899B07F8D59081002005E0401CAC
:1006F000C0B2C82801D9002070471189C907F6D0B7
:100700009089C0B270470F4A0021083203E0491CAB
:10071000C9B2C8290BD813889B07F8D509490C31F1
:100720000880002005E0401CC0B2C82801D9002084
:1007300070471388DB07F6D00888C0B27047000006
:10074000000C01400038004000080140003001402A
:100750005D48016841F00101016041684160416804
:1007600041F40011416041684160016841F08071CD
:10077000016001688901FCD5416821F003014160F5
:10078000416841F0020141604168C1F381010229E1
:10079000FAD170470CB500214B48019100910268D5
:1007A00042F4803202604FF4A063026802F4003227
:1007B0000092019A521C0192009A12B9019A9A422F
:1007C000F3D10268920333D5012100913F490A68B1
:1007D00042F010020A600A6822F003020A600A6806
:1007E00042F002020A60416841604168416041682C
:1007F00041F480614160416821F47C1141604168AD
:1008000041F4E8114160016841F0807101600168C4
:100810008901FCD5416821F003014160416841F044
:10082000020141604168C1F381010229FAD10CBD86
:1008300000910CBD244810B5016841F00101016030
:100840004168234A114041600168224A1140016019
:10085000016821F480210160416821F4FE014160BA
:100860004FF41F018160FFF795FF1B494FF00060B7
:10087000086010BD144910B54868184A10F00C0300
:10088000174803D0042B01D0082B0AD00260496816
:10089000134AC1F30311121D515C0268CA40026081
:1008A00010BD4A684B6802F470124FF0020413F452
:1008B000803F04EB924202D04B689B0301D5094B69
:1008C00000E0064B5A43E1E70010024000200240DE
:1008D0000000FFF8FFFFF6FE08ED00E000127A00CE
:1008E0001000002000093D00A448016841F001010A
:1008F00001604168A24A114041600168A14A11406B
:100900000160016821F480210160416821F4FE0149
:1009100041604FF41F018160704798490A6822F4D2
:1009200080320A600A6822F480220A60B0F5803FB3
:1009300007D0B0F5802F03D1086840F4A0200860EC
:100940007047086840F48030F9E7024600205309F8
:100950008A49012B0AD0022B0AD0496A02F01F02F1
:10096000012393400B4200D0012070470968F5E74E
:10097000096AF3E718B500204FF4A0640090312015
:10098000FFF7E3FF0099491C0091A14201D0002824
:10099000F5D03120FFF7D9FF002800D0012018BD85
:1009A00076490A6822F0F80242EAC00008607047FF
:1009B000754908607047714A5368084323F47C13F3
:1009C0001843506070477049086670476B4A516819
:1009D00021F003010143516070476848406800F00E
:1009E0000C007047654A516821F0F00101435160E5
:1009F0007047624A516821F4E061014351607047D9
:100A00005E494A6822F4605242EAC000486070477A
:100A10005A4A0029517A01D0014300E081435172C2
:100A200070475949C1F8D8007047544A516821F4B9
:100A300040410143516070475049002281F8202015
:100A400081F82020012802D0042802D1052081F855
:100A5000200070474D490860704748490A6A0243C0
:100A60000A627047494944390860704730B54349C4
:100A70004A6812F00C03464A03D0042B01D0082B1D
:100A800021D002604A680F23424C03EA1212A35C91
:100A90000268DA4042604B68072505EA1323E35CED
:100AA00022FA03F383604B6805EAD323E35CDA4060
:100AB000C2604968032303EA9131231F595CB2FBEA
:100AC000F1F1016130BD4A684B6802F470124FF0D9
:100AD000020413F4803F04EB924202D04B689B0364
:100AE00001D52D4B00E02A4B5A43CAE7234A00297F
:100AF000516901D0014300E08143516170471F4AB1
:100B00000029916901D0014300E081439161704760
:100B10001A4A0029D16901D0014300E08143D16123
:100B20007047164A0029D16801D0014300E0814393
:100B3000D1607047114A0029116901D0014300E0DA
:100B400081431161704711494039086070470E496F
:100B5000C86470470949C87170470848416A41F044
:100B6000807141627047054A0146002092680A423E
:100B700000D0012070470149887270470010024080
:100B80000000FFF8FFFFF6FE0000424280044242F0
:100B900000127A002800002000093D00994910B594
:100BA00088420AD1841401212046FFF7BAFF20466B
:100BB000BDE810400021FFF7B4BF9349884202D13D
:100BC0000121041404E0914988420AD10121C4138F
:100BD0002046FFF7AFFF2046BDE810400021FFF799
:100BE000A9BF10BD30B502884C8802F441530A8871
:100BF000CD8822438C882C4322430C8922434C8984
:100C000022438C892243CC8922431A430280828B5F
:100C100022F400628283098A018230BDF0B5054664
:100C20000C4602200021AA8B85B001264FF240031A
:100C30001A40AA832884AF8BA268022A27D0A088F2
:100C400000B102266846FFF711FFE1880098B1F570
:100C5000007F2DD07101B0FBF1F000BF00EB8000F0
:100C6000A1684000B0FBF1F0401D80B20A21B0FB4A
:100C7000F1F000F00101401A4FF6FF72C0F34F008F
:100C800002EA0121821EFE2A01D302200021E2880D
:100C9000084302432A8420886188A2890843A188E6
:100CA00011430843384340F40060A88305B0F0BD09
:100CB000000AD3E70021018041808180C180018149
:100CC00041818181C181072101827047002101801A
:100CD00041808180C1800222826081817047002929
:100CE000018802D041F0400101E021F04001018083
:100CF00070470029818B02D041F4806101E021F42A
:100D0000806181837047090901238B40002A828812
:100D100099B201D00A4300E08A4382807047002ADA
:100D2000828801D00A4300E08A4382807047818133
:100D3000704780897047A1F57E420188FF3A02D052
:100D400041F4807101E021F4807101807047002935
:100D5000818802D041F0040101E021F0040181808A
:100D60007047028822F40062028002880A430280EF
:100D70007047018841F48051018070470029018843
:100D800002D041F4005101E021F40051018070478C
:100D9000012901D0008B7047808A7047008A704714
:100DA000B1F5804F018803D021F480410180704764
:100DB00041F48041FAE70246002012890A4200D03D
:100DC00001207047C9430181704710B501F00F043D
:100DD0000122034602FA04F4002009098A4091B274
:100DE0009A88A4B20A401989214202D0002A00D070
:100DF000012010BD01F00F0201219140C943018182
:100E0000704700000030014000380040003C0040C6
:100E1000F94910B5884202D10121C41486E0B0F12D
:100E2000804F09D0F54988420DD101210220FFF7FA
:100E300081FE0021022064E001210846FFF77AFECE
:100E4000002101205DE0EE49884206D10121042005
:100E5000FFF770FE0021042053E0EA49884206D1E2
:100E600001210820FFF766FE0021082049E0E6493D
:100E7000884206D101211020FFF75CFE00211020DE
:100E80003FE0E249884206D101212020FFF752FECF
:100E90000021202035E0DE49884202D1012144149E
:100EA00044E0DC49884202D10121CC043EE0DA4929
:100EB000884202D101210C0538E0D849884202D18C
:100EC00001214C0532E0D649884206D1012140205B
:100ED000FFF730FE0021402013E0D249884206D1BE
:100EE00001218020FFF726FE0021802009E0CE4965
:100EF00088420AD1841501212046FFF71BFE0021FC
:100F00002046BDE81040FFF715BEC849884202D10F
:100F100001210C040AE0C649884202D101214C0497
:100F200004E0C44988420AD101218C042046FFF71D
:100F3000F8FD2046BDE810400021FFF7F2BD10BDCE
:100F400030B50288AC4BB24C98420DD0A0420BD0C9
:100F5000B0F1804F08D0A94DA84205D0A84DA842B5
:100F600002D0A84DA84203D122F070054A882A4336
:100F7000A54DA84206D0A54DA84203D022F4407545
:100F8000CA882A4302808A8882850A880285984214
:100F90000AD0A04208D0A54A904205D0A44A904267
:100FA00002D0A44A904201D1097A018601218182AE
:100FB00030BD30B5028C22F001020284028C83889D
:100FC000048B22F0020224F073050C882C430D8957
:100FD00015434A882A43884DA8420BD08C4DA8421D
:100FE00008D0924DA84205D0914DA84202D0914D13
:100FF000A8420DD122F008054A8923F440732A4300
:1010000022F004058A882A438D891D43CB892B430E
:1010100083800483C9888186028430BD70B5028CC8
:1010200022F010020284028C8488038B0D8823F442
:10103000E6464FF6FF7303EA052535430E8922F095
:10104000200203EA061616434A8803EA02123243D4
:10105000694EB04202D06E4EB04215D122F08006E9
:101060004A8924F4406403EA0212324322F0400623
:101070008A8803EA021232438E8903EA86062643EF
:10108000CC8903EA8404344384800583C9880187BA
:10109000028470BD70B5028C22F480720284028CCE
:1010A0008488838B0D8823F073031D4322F400731F
:1010B0000E894FF6FF7202EA06261E434B8802EAAB
:1010C000032333434C4EB04202D0514EB04215D1AF
:1010D00023F400664B8924F4405402EA032333438B
:1010E00023F480668B8802EA032333438E8902EA65
:1010F00006162643CC8902EA04143443848085838F
:10110000C9888187038470BD70B5028C22F4805237
:101110000284048C8288838B0D8823F4E6464FF684
:10112000FF7303EA0525354324F400560C8903EACE
:10113000043434434E8803EA063626432E4CA0423C
:1011400002D0334CA04205D122F480448A8903EABC
:101150008212224382808583C988A0F840100684C9
:1011600070BD828B22F440628283828B4FF6FF73C4
:1011700003EA01210A4382837047828B22F00C022A
:101180008283828B0A4382837047028B22F44062FF
:101190000283028B4FF6FF7303EA01210A430283A5
:1011A0007047F0B5048C24F010040484078B048C81
:1011B0004FF6FF7527F4734705EA03333B4305EA0F
:1011C00002221A430C4B05EA011698420ED0104B2E
:1011D00098420BD0B0F1804F08D0084B984205D010
:1011E000074B984202D0074B984225D124F02001AA
:1011F000314341F0100124E0002C01400004004084
:1012000000080040000C00400010004000140040A6
:1012100000340140004C01400050014000540140A6
:1012200000180040001C0040002000400040014029
:10123000004401400048014024F0A0030B4343F068
:10124000100102830184F0BD028B22F00C020283A4
:10125000028B0A430283704770B5048C24F00104AA
:101260000484058B048C4FF6FF7606EA03131343C0
:1012700025F0F305F94A2B4390420ED0F84A9042EC
:101280000BD0B0F1804F08D0F64A904205D0F64A14
:10129000904202D0F54A904202D124F0020201E0CD
:1012A00024F00A020A4342F001010383018470BD65
:1012B0002DE9F05F0D4604460888E84FDFF8A0C32B
:1012C000DFF8A0834988AA882B894FF0804960B352
:1012D000042832D04FF6FF7E082836D0208C9B465B
:1012E00020F480502084A38B268C704600EA0222D2
:1012F00023F473431A4300EA0B3010430EEA013E15
:10130000BC420BD0644509D04C4507D0444505D0BC
:10131000D54A944202D0D54B9C4245D126F4005187
:1013200041EA0E0141F4805143E02046FFF794FF6B
:10133000E9882046BDE8F05F86E72046FFF731FFE9
:10134000E9882046BDE8F05F1FE7208C20F480701C
:101350002084B4F81CA0208C0EEA031313432AF057
:10136000F30A0EEA012B43EA0A03BC420BD06445A0
:1013700009D04C4507D0444505D0BB4A944202D021
:10138000BA4A944204D120F4007040EA0B0002E013
:1013900020F42060084340F48070A3832084E9880F
:1013A0002046BDE8F05FE8E626F402420A4342F434
:1013B0008051A08320462184E988BDE8F05FD0E613
:1013C0002DE9F0410C46002649880746012501B960
:1013D0000226A288012A00D102252088238900281C
:1013E000384610D0FFF7DDFEE1883846FFF7CDFE26
:1013F00023892A4631463846FFF72EFFE1883846D2
:10140000BDE8F04120E7FFF727FFE1883846FFF706
:101410001BFF23892A4631463846FFF7C2FEE18882
:101420003846BDE8F041B0E610B50A884B88CC8854
:101430001A438B8823431A430B891A434B898989A2
:101440001A430A43A0F8442010BD4FF6FF71818073
:1014500000210180C180418001727047002101801C
:1014600041808180C180018141818181C18170473A
:1014700000210180418001228280C180018170476A
:101480000021018041808180C18001814181818171
:1014900070470029018802D041F0010101E021F0EC
:1014A000010101807047002930F8441F02D041F447
:1014B000004101E0C1F30E0101807047002A8289DA
:1014C00001D00A4300E08A438281704781827047DD
:1014D0001143A0F848107047002A828901D00A43BE
:1014E00000E08A4382817047018921F00701018170
:1014F0007047028922F070020A430281704700B5EA
:101500000346FFF7F6FF188940F00700188100BD79
:1015100070B516460D46602904464FF0010231466B
:101520000AD0FFF799FE29462046FFF7E2FF2089FF
:1015300040F00700208170BDFFF733FEF3E730B5C0
:1015400004894FF6FF7505EA03231343E4B20B4306
:101550002343038130BD10B50446FFF7F0FF208917
:1015600040F07700208110BD10B50446FFF7E7FF7B
:10157000208940F48040208110BD0185828270471F
:10158000028822F070020A430280704770B5058914
:10159000048B068C25F007050D434FF6FC410C40EB
:1015A00040F201110C434FF6FF7101EA031126F0DE
:1015B00022061143314305810483018470BD028BEF
:1015C00022F070020A4302837047028B4FF6FF73CA
:1015D00022F4E04203EA0121114301837047828B28
:1015E00022F070020A4382837047828B4FF6FF73AA
:1015F00022F4E04203EA012111438183704700296C
:10160000018802D041F0800101E021F080010180D9
:1016100070470029818802D041F0040101E021F0E7
:101620000401818070470029818802D041F00801BF
:1016300001E021F00801818070470029818802D0F3
:1016400041F0010101E021F0010181807047028B2E
:1016500022F008020A43028370470000002C014078
:10166000003401400004004000080040000C00402D
:10167000028B4FF6FF7322F4006203EA012111434B
:101680000183E9E7828B22F008020A438283E3E7C1
:10169000828B4FF6FF7322F4006203EA01211143AB
:1016A0008183D9E7028B22F004020A430283D3E745
:1016B000028B4FF6FF7322F4806203EA012111438B
:1016C0000183C9E7828B22F004020A438283C3E7C5
:1016D000828B4FF6FF7322F4806203EA01211143EB
:1016E0008183B9E7028B22F080020A430283B3E7C9
:1016F000028B4FF6FF73C2F30E0203EA012111437E
:101700000183A9E7828B22F080020A438283A3E748
:10171000828B4FF6FF73C2F30E0203EA01211143DD
:10172000818399E7028C22F002020A43028493E744
:10173000028C22F008020A4302848DE7028C4FF6E5
:10174000FF7322F0200203EA01111143018483E7B1
:10175000028C4FF6FF7322F0800203EA011111435D
:10176000018479E7028C4FF6FF7322F4007203EADA
:101770000121114301846FE7028C4FF6FF7322F4BD
:10178000006203EA01211143018465E7028C4FF6F0
:10179000FF7322F4005203EA0131114301845BE735
:1017A00010B50123048C8B409C430484038C8A4035
:1017B0001343038410BD10B50423048C8B409C4359
:1017C0000484038C8A401343038410BD30B5012484
:1017D000058C00F118038C40A543058489B10829C4
:1017E0000FD0091FC1F34E001844016821F4E041F5
:1017F000016001684FF6FF7303EA022211430160A2
:1018000030BD03EB5100016821F0700101600168F7
:10181000F4E70029018802D041F0020101E021F043
:101820000201018018E70029018802D041F004017B
:1018300001E021F0040101800EE70029818802D037
:1018400041F0800101E021F08001818004E70288FD
:1018500022F00802028002880A430280FCE68288A5
:1018600022F07002828082880A438280F4E6028934
:1018700022F00702028102890A430281ECE6028912
:1018800022F08002028102890A430281E4E6818417
:10189000E2E68185E0E68186DEE60187DCE6818797
:1018A000DAE6A0F84010D7E6028822F440720280FF
:1018B00002880A430280CFE6808ECDE6008FCBE619
:1018C000808FC9E6B0F84000C6E6808CC4E6008D83
:1018D000C2E602460020128A0A4200D00120BBE67E
:1018E000C9430182B8E602460020138A92890B425E
:1018F00002EA010202D0002A00D00120ACE6C9436E
:101900000182A9E62849084328490860704770B554
:101910000F23C47801780122F4B1244C246845785F
:1019200004F4E064C4F5E064240AC4F10406E3406E
:101930008478B5401C402C4301F1E021230181F85B
:101940000034007800F01F018A404009800000F157
:10195000E020C0F8002170BD01F01F00824048095E
:10196000800000F1E020C0F8802170BD104A1140D5
:1019700001430E48001F016070470C4A121D0029E8
:10198000116801D0014300E08143116070474FF0BE
:10199000E0210428086903D020F0040008617047A2
:1019A00040F00400FAE700000000FA050CED00E04A
:1019B00080FFFF1F374900200860091D0860091DCE
:1019C0000860091D086033493348143108607047C6
:1019D00030B530498379026853B30B6893430B6089
:1019E0000A1D13680468A343136002790A4413684C
:1019F000046823431360274A083213680468A3432A
:101A00001360131D1C680568AC431C604479102CDE
:101A100005D021440A68006802430A6030BD11689D
:101A2000046821431160196800680143196030BDE2
:101A30000079084401689143016030BD00210160D4
:101A400001710C22427181717047124910310A688C
:101A500002430A60704701460E4A002014321268A1
:101A60000A4200D0012070470A49143108607047CB
:101A7000084A014600201268064B0A4014331B68CE
:101A80000B4202D0002A00D00120704701491431D6
:101A90000860704700040140FFFF0F00914910B536
:101AA000884206D101210420FFF73BF800210420E1
:101AB0003BE08D49884206D101210820FFF731F82B
:101AC0000021082031E08949884206D101211020F7
:101AD000FFF727F80021102027E08549884206D12A
:101AE00001212020FFF71DF8002120201DE0814961
:101AF000884206D101214020FFF713F80021402041
:101B000013E07D49884206D101218020FFF709F8C2
:101B10000021802009E0794988420AD184150121F9
:101B20002046FEF7FEFF00212046BDE81040FEF7EC
:101B3000F8BF10BD10B501210846FEF7F2FF0021E5
:101B4000BDE810400120FEF7ECBFF0B5CA780025D3
:101B500002F00F03D20601D58A7813430A784FF0BA
:101B60000F0E12F0FF0F4FF001021DD0D0F8004011
:101B70000F8802FA05F63740B74211D14FEA850CBB
:101B80000EFA0CF724EA070703FA0CF43C43CF786B
:101B9000282F02D0482F02D002E0466100E0066103
:101BA0006D1C082DE4D304600C88FF2C1ED94468FA
:101BB0005FF0000606F1080702FA07F50F882F40CC
:101BC000AF420FD14FEA860C0EFA0CF7BC4303FA72
:101BD0000CF73C43CF78282F00D14561CF78482FB0
:101BE00000D10561761C082EE4D34460F0BD4FF6A9
:101BF000FF710180022181700421C170704702468B
:101C0000002092680A4200D001207047806880B2AC
:101C1000704702460020D2680A4200D00120704777
:101C2000C06880B2704701617047416170470AB176
:101C30000161704741617047C160704741F4803273
:101C40008261816182618169806970472C4B10B526
:101C50001A684FF68074224042EA00100843186068
:101C600010BD2849C8617047F0B5254C002801DA3D
:101C7000E36900E06368420D120185B2C0F30157C9
:101C80009540C0F30346032F05D0C2020AD50322B4
:101C9000B240934307E023F07062636823F07063FF
:101CA000636002E0AB4343F0706201B12A43002855
:101CB00001DAE261F0BD6260F0BD10B58A0721F083
:101CC00003040F49130F21440F228C689A40944358
:101CD0008C608A68984002438A6010BD0949C1F847
:101CE000DC00704700080140000C0140001001407A
:101CF0000014014000180140001C01400020014078
:101D00000000014000002042064880470648004786
:101D1000FEE7FEE7FEE7FEE7FEE7FEE7FEE7FEE79B
:101D2000FEE7FEE751070008ED000008FC4A1168D5
:101D300001F03801014311607047F9490A6822F047
:101D400008020A600A6802430A607047F4490A6898
:101D500022F010020A600A6802430A607047F048E5
:101D6000F0494160F04941607047ED48ED494160FC
:101D7000ED4941607047EA48016941F08001016125
:101D80007047E748016941F0800101617047E4490B
:101D90000420CA68D20701D001207047CA685207E0
:101DA00001D502207047C968C906FBD503207047DA
:101DB00000B50346FFF7EBFF03E000BFFFF7E7FFC7
:101DC0005B1E012803D0002B00D1052000BD002B95
:101DD000F4D1FAE770B505464FF430263046FFF7E8
:101DE000E7FF042811D1CE4C206940F002002061A9
:101DF0006561206940F0400020613046FFF7D8FF60
:101E0000216941F6FD721140216170BD30B54FF47A
:101E100030252846FFF7CCFF042810D1C04C20699C
:101E200040F004002061206940F040002061284615
:101E3000FFF7BEFF216941F6FB721140216130BD01
:101E400000B50346FFF7A3FF03E000BFFFF79FFFC6
:101E50005B1E012803D0002B00D1052000BD002B04
:101E6000F4D1FAE730B54FF430252846FFF7E8FF04
:101E7000042810D1AA4C206940F004002061206998
:101E800040F0400020612846FFF7DAFF216941F663
:101E9000FB721140216130BDA1490020C969890749
:101EA00000D50120704770B5A525FFF7F5FF00B1FB
:101EB00000254FF430263046FFF77AFF042827D15B
:101EC000974C9848A0609848A060206940F0200096
:101ED0002061206940F0400020613046FFF768FF34
:101EE00041F6EF7604280ED1206941F6DF710840F3
:101EF0002061206940F0100020618C4805804FF47B
:101F00000050FFF755FF052802D0216931402161BB
:101F100070BDF8B5064600204FF4005C00900D46F9
:101F20006046FFF745FF042816D17D4C206940F03C
:101F30000100206135806046FFF73AFF41F6FE77E9
:101F4000042806D1B61C280C009630806046FFF7A6
:101F50002FFF216939402161F8BDF0B506464FF4E5
:101F600000570D463846FFF723FF04280CD16C4C70
:101F7000206940F00100206135803846FFF718FFE6
:101F80002169BA1E11402161F0BDF0B506464FF43B
:101F900000570D463846FFF70BFF042813D1604C5D
:101FA0006048A0606048A060206940F01000206197
:101FB00035803846FFF7FCFE052804D0216941F63C
:101FC000EF7211402161F0BD2DE9F041C04300F0F6
:101FD000FF0CC0F30727C0F30746050E4FF4005867
:101FE0004046FFF7E5FE042837D14D4C4D49A1602E
:101FF0004D49A160216941F010012161BCF1FF0F41
:1020000008D04A480830A0F800C04046FFF7D0FE8C
:1020100004281BD1FF2F07D044480A3007804046D0
:10202000FFF7C6FE042811D1FF2E07D03F480C3021
:1020300006804046FFF7BCFE042807D1FF2D07D0DD
:102040003A480E3005804046FFF7B2FE052804D01E
:10205000216941F6EF7211402161BDE8F08170B550
:1020600005464FF430263046FFF7A2FE042818D16B
:102070002B4C2C48A0602C48A060206940F0200028
:102080002061206940F0400020613046FFF790FE5B
:1020900041F6DF71042805D0052802D022690A40E4
:1020A000226170BD206908402061206940F0100065
:1020B00020611E480DB1002100E0A52101803046BD
:1020C000FFF776FE0528ECD0216941F6EF7211404A
:1020D000216170BDF0B5124C0746124816460D46F8
:1020E000A0601148A0604FF4005C6046FFF760FEFE
:1020F000042814D1206940F01000206135430B49B9
:102100003D43891C45F0F80008806046FFF750FE0B
:10211000052804D0216941F6EF7211402161F0BD1C
:102120000020024023016745AB89EFCD00F8FF1F77
:102130001C48C069800870471A48006A70471949EE
:1021400000200968890600D501207047154A00293A
:10215000116901D0014300E08143116170470146DC
:102160000020104A012903D0D2680A4203D17047E7
:10217000D169C907FBD0012070470A49C860704780
:1021800008490420CA68D20701D001207047CA68F4
:10219000520701D502207047C968C906FBD5032044
:1021A0007047000000200240314910B54A78824251
:1021B0001FD04870002000F0E3F82E4C20684178D2
:1021C00041F080014170012000F09DF8012000F0F5
:1021D000D7F821680020022201F83D0F4870402006
:1021E00000F074F86F22BDE810402349012000F090
:1021F00090B810BD10B5012000F05EF86420FEF725
:102200003EF9002000F058F8BDE810406420FEF7C9
:1022100036B91948174910B5401E086000F02EF86D
:10222000FFF7E8FF0120FFF7BFFFBDE8104000F017
:10223000C8B80F480078704700F0A2B800F012B993
:1022400000F027B900F01AB900F03FB900F040B92A
:1022500000F042B9FEE7012000F042B900F047B9B2
:1022600000F04DB900F056B900F03AB900F055B998
:102270003800002050000020FD000020F8B50121AA
:102280000420FEF73CFC0820ADF8000010243B4E73
:102290008DF8034003258DF8025069463046FFF75C
:1022A00054FCADF800408DF803408DF802506946AB
:1022B0003046FFF74AFCF8BD304A01284FF00801CC
:1022C000104601D0FFF7AFBCFFF7AFBC2DE9F041DE
:1022D0002A4F0E460446154610213846FFF7A5FC46
:1022E00044F08000FEF7F6F9002404E0305DFEF7CC
:1022F000F1F9641CE4B2AC42F8D33846BDE8F041D1
:102300001021FFF790BC13B5012201A9FFF7DEFFF2
:102310001CBD2DE9F041194F0E460446154610210B
:102320003846FFF782FC04F07F00FEF7D3F9002463
:1023300005E00020FEF7CEF93055641CE4B2AC4253
:10234000F7D33846BDE8F0411021FFF76CBC0122FD
:10235000DFE70A4601460020B8E70A4601460020AA
:10236000D7E700207047002070470020704700200A
:1023700070470020704700207047704700080140F8
:10238000FE4A30B4136900215C7824F0F80595709A
:10239000A8420ED0032800D10121D578A94200D04F
:1023A000D17004F0F8010143597030BC0120FFF7EF
:1023B000AABF30BC7047F148016942203F31FFF7A6
:1023C000C6BF70B5ED4D00202870FFF7F4FFEC4C50
:1023D0006F22611C0120FFF79CFF296920206F22DA
:1023E0000873611C0120FFF771FF05F120042068CC
:1023F00000F0B4FAA07900F085FBE07900F0B4FBBE
:10240000207A00F0D5FB607900F047FB607A00F09D
:1024100012FC40F2FF3000F0F2FC207E00F05FFC86
:10242000012000F016FD802000F0A9FC012000F042
:1024300070FC1420207100F0C5FABDE87040012046
:102440009EE710B50120FFF737FF4FF47A7420465E
:10245000FEF715F80020FFF72FFF2046BDE81040DB
:10246000FEF70DB810B5C54C01202169491CFFF7D6
:102470006EFF2069407820F0F80010BD10B5BF4C09
:102480000C2021690C31FFF762FF2069007B4009B5
:1024900010BD10B5B94C1B2021691B31FFF757FF48
:1024A00004F12000B749006888422069C07E04D248
:1024B00000F0BDFE0022B44B03E000F0B8FEB34BC9
:1024C0000022BDE8104000F019BDAC4840787047CC
:1024D000AA4890F904007047A849D1E9060170475D
:1024E000A64908707047A549012008707047A34BA2
:1024F000DA880A800021D980A54900F0DBBC10B53C
:102500009E4C0A4621810146A14800F0D3FC0520DB
:10251000207010BD9948007870472DE9FC47974C12
:102520000126DFF87092207800274FF0020AB046AB
:1025300004F120050B287DD2DFE800F07C064D97E2
:10254000FDFCFBFA7CF9F8000120FFF719FF206978
:102550009D2141741120FFF7D6FEE87A012827D08B
:10256000206980F82470206990F824102420FFF757
:10257000CAFE21690222402001F83D7F4F70FFF71B
:10258000A5FEA87A012824D02069C17B41730D20C3
:10259000FFF7B9FE5FF00500FFF7F2FE4FF4807120
:1025A0007B4800F0A0FC6869C4F80C8060616CE0B6
:1025B0002169287B81F824001C201C31FFF7C7FE0D
:1025C0002069007F00F03F0159F8210000F0C6F9B2
:1025D000C9E70620E0E769461220FFF7B8FE9DF83C
:1025E0000000400617D5C4F80C80E87A01280CD109
:1025F00021691C201C31FFF7AAFE2069007F00F032
:102600003F0159F8210000F0A9F940211220FFF7FD
:102610007AFE032020709DF8000080071AD5C4F8C8
:102620000C80E87A01280ED121691C201C31FFF7AB
:102630008EFE00E02BE02069007F00F03F0159F89A
:10264000210000F08BF902211220FFF75CFEFFF75A
:1026500015FF6070A87A012819D1E0686169C0F19E
:102660000100884213D9042000E1216912201231AF
:10267000FFF76DFE2069807C80060CD5202112209A
:10268000FFF741FEA87A012802D084F800A05FE19C
:1026900084F800805CE101A91920FFF758FE9DF83D
:1026A0000400010605D5C043401CC0F3850040422C
:1026B00000E08008207121691A201A31FFF747FED7
:1026C00030492868344E8842344F94F9040013D2BC
:1026D000DFF8B490002804DA00F098FD06460F46B3
:1026E00012E02069807E00F0A2FD32463B4600F0F9
:1026F000ACFC00224B4611E0DFF890900028F0DAA5
:1027000000F084FD0F4606462069807E00F08FFDB4
:1027100000224B4600F0F2FB32463B4600F0EEFB57
:10272000C4E90601A87A01283AD005E0F6E0DFE026
:10273000D8E0B0E05EE059E0216910201031FFF7E9
:1027400006FE687A012841D0216913201331FFF772
:10275000FEFD2069C17CE180017C41730D20FFF703
:10276000D2FD2069C17C0A48FFF7F7FDA87A01284D
:1027700039D084F800A00226EAE0000040000020E2
:10278000FC000020008F4233008064C000A063C0C2
:102790006C010020DC3300081B9E5E29CB10F13F4A
:1027A0002069C17B41730D20FFF7ADFD687A0128D8
:1027B00008D0216913201331FFF7C9FD2069C17CBE
:1027C000E180D0E7206990F82210F9E7206990F8BD
:1027D0002210E180017C41730D20FFF794FD2069F8
:1027E00090F82210BFE784F80080C4E784F80080E6
:1027F0000326ADE00120FFF7C3FDE87A012837D0BA
:102800002069F721417480F82470206990F8241021
:102810002420FFF778FD2069417C1120FFF773FD2C
:102820002069217A80F822102220FFF76CFD2069B0
:10283000394687730E20FFF766FD2069817B41735F
:102840000D20FFF760FD206990F822104248FFF745
:1028500080FD21694120022201F83D0F402048708F
:10286000FFF734FD0320FFF78BFD062020706FE09B
:102870002169F5204874287B81F824001C201C3134
:10288000FFF765FD2069007F00F03F0159F8210046
:1028900000F064F8B9E769461220FFF758FD9DF88B
:1028A0000000000705D508211220FFF72CFD0720A6
:1028B00020709DF8000080074AD5E87A01280CD1E5
:1028C00021691C201C31FFF742FD2069007F00F0C8
:1028D0003F0159F8210000F041F802211220FFF7D2
:1028E00012FD35E00120FFF74BFD277004262FE095
:1028F0000120FFF745FD2069FA2141741120FFF7FF
:1029000002FD21690222402001F83D7F4F70FFF750
:10291000DDFC0720FFF734FD0A20A7E769461220F7
:10292000FFF715FD9DF80000400711D50421122086
:10293000FFF7E9FC9DF80000C00707D00121122035
:10294000FFF7E1FC84F80080082601E027700726E5
:102950003046BDE8FC8700006C010020FC4910B542
:10296000086000F064FC0022FA4B00F0E0FB00F08D
:102970006BFCF949020C096801F8062F020A4A703B
:1029800088700322BDE810400620FFF79FBC10B5F9
:10299000F14C032206202168891DFFF7BAFC21684B
:1029A000EB4C8879CA790004097A40EA022008438E
:1029B00000F03DFC0022E74B00F047FB00F044FC38
:1029C000206010BD70B5E44D044609202968093126
:1029D000FFF7BDFC29684D204931FFF7B8FC286896
:1029E000417A0A0628D590F8493087229A4303D0C5
:1029F000022C0EDA02240FE0052C01DA052402E095
:102A0000142C00DD142401F0F00141F07001621F6C
:102A100007E0112C00DD112401F0F00141F07001FC
:102A2000A21E02F00F0211434172C9B20920FFF742
:102A30006AFCC748047170BD4FF0FF32944201DA5E
:102A4000144602E00E2C00DD0E2401F0F00141F0EE
:102A50007001621CE5E710B5BF4C092021680931FF
:102A6000FFF775FC21684D204931FFF770FC2268A3
:102A7000B749507A03060CD592F8492020F0F000AF
:102A8000D243520703D0801C087140B210BD401DD4
:102A9000FAE720F0F000401EF6E770B5AE4D0446B0
:102AA0001D2029681D31FFF752FC2868417F64F31F
:102AB0001F11C9B241771D20FFF725FCA4484471BE
:102AC00070BD10B5A44C1D2021681D31FFF73FFCDF
:102AD00020689F49407F0009487110BD70B59E4D28
:102AE0000446312029683031FFF731FC286810F89E
:102AF000301F01F0F80121430170BDE87040312022
:102B0000FFF701BC70B504460C2801D90C2408E07D
:102B1000062C02D24FF0060400E002D14FF005006F
:102B200001E04FF00300FFF7D9FF8B4D1E2029680D
:102B30001E31FFF70CFC2868817F64F31F11C9B2B6
:102B400081771E20FFF7DFFB8148847170BD10B5CF
:102B5000814C1E2021681E31FFF7F9FB20687C495B
:102B6000807F0009887110BD70B57B4D04461D2023
:102B700029681D31FFF7EBFB2868417F01F0F10167
:102B800041EA4401C9B241771D20FFF7BCFB704800
:102B9000C47170BD10B5704C1D2021681D31FFF748
:102BA000D6FB20686A49407FC0F34200C87110BD5F
:102BB00070B5694D04461E2029681E31FFF7C7FB1A
:102BC0002868817F01F0FB0141EA840181771E20A2
:102BD000FFF799FB5E48047270BD70B55E4D044608
:102BE0000222296820202031FFF793FB2968200A60
:102BF000022201F8200F20204C70BDE87040FFF742
:102C000065BB10B5544C0222202021682031FFF70B
:102C100080FB2068008C40BA10BD10B54E4C1E20C1
:102C200021681E31FFF793FB20684949807FC0F37C
:102C30008000087210BD70B5474D04461D202968FC
:102C40001D31FFF784FB2868417F01F0FE0121431D
:102C500041771D20FFF757FB3D48447270BD10B50A
:102C60003D4C1D2021681D31FFF771FB206838495C
:102C7000407F00F00100487210BD354988727047EE
:102C80003348807A70473249C87270473048C07AFA
:102C9000704710B5044630482146006880F824404B
:102CA0002420FFF730FB2A48047310BD10B52A4CCE
:102CB000242021682431FFF74AFB2068244990F83A
:102CC0002400087310BD224908617047204800693C
:102CD00070471F49486170471D484069704710B5EB
:102CE00004461D482146006880F822402220FFF754
:102CF0000AFB1748047610BD10B5174C2220216836
:102D00002231FFF724FB2068114990F82200087651
:102D100010BD70B5104C05464D2021684931FFF7B4
:102D200016FB216809200931FFF711FB2168487A59
:102D300000060AD515B1872081F8490091F849109D
:102D4000BDE870404D20FFF7DEBA8420F4E70000B4
:102D50006000002080844E405000002010B5544C8C
:102D60004D2021684931FFF7F2FA206890F84900B8
:102D7000C043400701D0002010BD012010BD70B538
:102D80004B4D0446092029680931FFF7E0FA28680D
:102D9000417A01F07F0121434172BDE87040092072
:102DA000FFF7B1BA10B5424C092021680931FFF78D
:102DB000CEFA2068407A20F07F0010BD70B53C4DFF
:102DC00004460A2029680A31FFF7C1FA286824F06E
:102DD000F002817A01F0F00111438172BDE8704088
:102DE0000A20FFF790BA10B5314C0A2021680A3149
:102DF000FFF7ADFA2068807A20F0F00010BD70B5C2
:102E00002B4D0446022229681E201E31FFF781FA4D
:102E10002968032202EA142211F81E0F00F0FC00B8
:102E2000104308704C70BDE8704002221E20FFF76E
:102E30004DBA10B51E4C02221E2021681E31FFF72C
:102E400068FA2068C17F807F20F0FC0041EA002002
:102E500010BD70B5164D0446262029682631FFF7AF
:102E600076FA286810F8261F01F0F70141EAC4013C
:102E70000170BDE870402620FFF745BA10B50C4C34
:102E8000262021682631FFF762FA206890F8260094
:102E9000C0F3C00010BD10B5054C312021683031A1
:102EA000FFF755FA206890F8300000F0070010BDD9
:102EB0005000002040EA01039B0703D009E008C945
:102EC000121F08C0042AFAD203E011F8013B00F8EF
:102ED000013B521EF9D27047D2B201E000F8012B3B
:102EE000491EFBD270470022F6E710B513460A468A
:102EF00004461946FFF7F0FF204610BD2DE9FE4FAE
:102F0000804681EA0300C00F0C46009021F000418A
:102F100023F00045B8EB0200A94105D24046214606
:102F200090461C460B46024623F00040104347D013
:102F3000270DC7F30A00C3F30A510290401A01900B
:102F400040286BDAC3F3130040F4801B00989246CC
:102F500020B10023D2EB030A63EB0B0B0198594617
:102F6000C0F14002504600F088F906460D46504632
:102F70005946019A00F0A0F910EB080061410024C5
:102F800087EA115284EAE7731A4340D0009A62B389
:102F9000019A012A4FEA075215DC001B61EB02017E
:102FA0004FF0004202EA0752CDE90042001C41F511
:102FB000801132462B4600F0A0F903B0BDE8F08F37
:102FC00040462146F9E7001B61EB0201001C41F578
:102FD000801300185B412018A2F5001747EB03018E
:102FE00040EAD570B6196D4111E06D084FEA36061A
:102FF00045EAC0754FEA0752001B61EB0201001C55
:1030000041F5801149084FEA30000019514132461C
:103010002B4603B0BDE8F04F00F060B900980122E4
:1030200040000023D0EB020263EBE07300982146DE
:103030004FEAE074B8EB000061EB0401E9E783F0CC
:1030400000435BE781F0004158E72DE9FE4F81EA3C
:10305000030404F0004421F0004100944FF0000B01
:1030600023F0004350EA01045ED052EA03045BD02F
:10307000C3F30A54C1F30A552C44A4F2F334019467
:10308000A0FB0254C1F3130141F48011C3F31303F5
:1030900043F4801301FB024400FB034E840A970AA9
:1030A00044EA815447EA8357A4FB076802958D0AD6
:1030B00005FB07854FEA932C04FB0C542705029D62
:1030C0004FEA065847EA1637B5EB08056EEB070CD2
:1030D000870E920E47EA811742EA8312A7FB02018C
:1030E000B6EB0B0164EB00042B0D43EA0C335E18C6
:1030F00044EB1C50DA465146E7FB0201C5F31304CA
:103100004FEA0B3343EA14534FEA0432019C43EA7B
:103110000603A4F10C040294009CCDE900B400F075
:10312000ECF803B0BDE8F08F00200146F9E72DE987
:10313000F04D81EA030404F0004B21F000451446F1
:103140004FF0000A23F0004150EA050220D054EA73
:1031500001021DD0C5F30A570246C5F31303C1F39C
:103160001300C1F30A5640F4801543F48013A7EB13
:103170000608101BD64608F2FD3873EB050002D393
:1031800008F1010801E092185B41B8F1000F03DA81
:1031900000200146BDE8F08D00204FF48011064666
:1031A00084460EE0171B73EB050705D3121B63EB78
:1031B000050306434CEA010C49084FEA3000921817
:1031C0005B4150EA0107EDD152EA030012D082EAD6
:1031D000040083EA0501084305D0101BAB4106D269
:1031E0000122002306E000224FF0004302E06FF0CE
:1031F000010253101AEB06004CEB085110EB0A00C9
:1032000041EB0B01BDE8F04D00F068B80EB5C10F01
:1032100080EAE0700844CA07002140F233438DE899
:103220000E000A460B4600F068F803B000BD0EB56C
:1032300040F2334102910021CDE900110A460B46CC
:1032400000F05BF803B000BDC1F30A5210B5C1F342
:10325000130140F2FF3341F480119A4201DA002059
:1032600010BD40F233439A42A2F2334203DC524291
:1032700000F012F810BD904010BD202A04DB203A67
:1032800000FA02F1002070479140C2F1200320FAB9
:1032900003F3194390407047202A04DB203A21FAB7
:1032A00002F00021704721FA02F3D040C2F120025F
:1032B0009140084319467047202A06DBCB17203A75
:1032C00041FA02F043EAE07306E041FA02F3D0402B
:1032D000C2F12002914008431946704710B5141EF0
:1032E00073F1000408DA401C41F1000192185B41BF
:1032F0001A4301D120F0010010BD2DE9F04D924696
:103300009B4611B1B1FA81F202E0B0FA80F22032AC
:103310009046FFF7B2FF04460F4640EA0A0041EA32
:103320000B0153465A46084313D0114653EA010095
:1033300019D0C8F140025046FFF7AEFF05460E46D1
:10334000504659464246FFF798FF084305D00120F2
:1033500004E020463946BDE8F08D0020054346EAEA
:10336000E0762C4337430A986305E40AA0EB080093
:103370000022FD0A44EA47540A3002D500200146E3
:10338000E9E7010510196941DDE9084500196941BE
:10339000BDE8F04DA2E70000064C074D06E0E068EE
:1033A00040F0010394E8070098471034AC42F6D38C
:1033B000FCF7A0FEA8340008C834000802E008C8E2
:1033C000121F08C1002AFAD170477047002001E09F
:1033D00001C1121F002AFBD17047000020AEA036A9
:1033E000E07D0B37A017083660F0AF3660F0AF36DF
:1033F000403D2E36C0AFD235000D993620A563363C
:1034000080A331374061223760DE353640466B3667
:10341000A032BF36A032BF36A00ECB35E0625436A4
:10342000A0443937A00ECB35809AF436001F1337ED
:10343000E050DA3540466B36809AF43680A3313757
:10344000807F3D360016D636A03BFC36C0C14C36D8
:10345000809AF43660DE353680A33137809AF436B0
:103460008091B73660022A3700FB1E3660F0AF3617
:10347000A0443937209C2636000D993660D5F835A2
:10348000000D9936C0AFD2354034F135C0CA893607
:1034900040466B36C0B80F36807F3D36A044393782
:1034A00060022A37C0C14C36C83400080000002032
:1034B0007C000000BC330008443500087C0000207C
:1034C000F4050000CC3300080000000000000000FC
:1034D000000000000000000000A24A0400000000FC
:1034E00000000000010203040607080902040608A0
:1034F000000000000102030401020304060708099A
:1035000000000000000000000001010100000000B8
:1035100000000000000000000000000000000000AB
:10352000000000000000000080A1031C1409070235
:1035300001000000000000006400000064000000C2
:043540008000000007
:04000005080000ED02
:00000001FF
