:020000040800F2
:1000000080060020A91200081B0400081D04000837
:10001000210400082504000829040008000000004D
:100020000000000000000000000000002D04000897
:100030002F04000800000000BF120008C1120008D1
:10004000C3120008C3120008C312000819040008F4
:10005000C3120008C3120008C3120008C31200082C
:10006000C3120008C3120008C3120008C31200081C
:10007000C3120008C3120008C3120008C31200080C
:10008000C3120008C3120008C3120008C3120008FC
:10009000C3120008C3120008C3120008C3120008EC
:1000A000C3120008C3120008C3120008C3120008DC
:1000B000C3120008C3120008C3120008C3120008CC
:1000C000C3120008C3120008C3120008C3120008BC
:1000D000C3120008C3120008C3120008C3120008AC
:1000E000C3120008C3120008C3120008DFF80CD0C6
:1000F00002F044FF00480047D103000880060020BA
:10010000EFF30980704780F309887047EFF30880A8
:10011000704780F30888704740BA7047C0BA70478C
:1001200010B502460023002004E0145C1C44E3B236
:10013000441CE0B28842F8DB184610BD10B501F04F
:10014000E7FB01F017FC10BD2DE9F04391B0054627
:10015000894616461F46DDF8608008F10500C4B2E6
:1001600042208DF804008DF805408DF806502E4889
:1001700000788DF807008DF80860424639460DF189
:10018000090002F089FC214601A8FFF7C9FF01A977
:100190000855611C01A801F0FAFB00BF0A2000F01D
:1001A0009EF901F006FC0428F8D101F0E3FB11B040
:1001B000BDE8F083F8B51D4C002630E001F0F9FBF6
:1001C000022827D1002020606946204601F0D7FB95
:1001D000BDF80000401E80B20090254628784228D5
:1001E00016D16878BDF80010884211D1BDF8000022
:1001F000C1B22046FFF794FFBDF80010615C884251
:1002000006D1E87808490978884201D12846F8BD26
:100210000020FCE70A2000F062F9701CC6B2642ED0
:10022000CCDB0020F3E7000000000020900000205D
:1002300010B5044601F069F8724801F0ABF8714856
:10024000216801F077F901F06CF810BD6D48006885
:10025000704710B56C48407970B901206A494871FF
:10026000002407E069494A1402FB041001F092F8E7
:10027000601CC4B2302CF5DB10BD2DE9F041064600
:100280000F461446E11704EB91718910A4EB81012C
:1002900019B931195E4A914201D9BDE8F0810020B7
:1002A00059494871002505E07959701901F042F962
:1002B000281DC5B2A542F7DB00BFEEE770B5534875
:1002C000006854490840B0F1005F08D14F484568C4
:1002D0002C4601460868FFF71CFFA04705E00120F7
:1002E000494948700846FFF7A3FF70BD0EB50020CE
:1002F00002900A276BE0FFF75DFF0446002C55D003
:100300002079032845D0112802D014284DD114E0BB
:100310000027002002903D4EA0783B49087100F074
:10032000F4FFFFF796FF02200090E178364A10793B
:1003300002AB1322FFF708FF37E0B4F80500BDF861
:100340000810884224D1A0782F49097988421FD10A
:1003500000276078C01FC5B22A46E11D3046FFF76E
:100360008CFF2E44BDF80800401C80B20290642D22
:1003700004DA00F0D6FFFFF7A1FF08E00220224ACE
:1003800000901178107902AB1322FFF7DDFE00BF59
:100390000BE0FF20019001201B4A0090117810799A
:1003A00001AB0422FFF7D0FE00BF0FE0781CC0B203
:1003B00007460A2801DD0A2708E00220124A0090B9
:1003C0001178107902AB1322FFF7BEFE00BF92E74F
:1003D00008B5FFF73BFF00900B4800990160002033
:1003E0000949487108710846407808B9FFF766FF67
:1003F00000F085F8012000F031F8FFF79FFEFFF7CD
:1004000075FF0000003C00080000002000400008CC
:10041000000001080000FE2F7047704700BFFEE794
:1004200000BFFEE700BFFEE700BFFEE77047704772
:100430007047000010B50446344A9188106822467F
:1004400000F095FE10BD10B5314A9188106800F09B
:1004500070FE08B1012010BD0020FCE710B5044675
:1004600084F001022B4B9988186800F080FE10BDC3
:1004700008B50121042000F07FFB0121082000F0D5
:100480007BFB22488088ADF8000010208DF8030027
:1004900003208DF802001D490868694600F0B6FD8A
:1004A0001B488088ADF8000048208DF80300032029
:1004B0008DF8020016490868694600F0A7FD154846
:1004C0008088ADF8000010208DF8030003208DF81F
:1004D000020010490868694600F098FD08BD08E070
:1004E00042F6E06100BF0A1EA1F1010399B2FAD100
:1004F00000BF011EA0F1010290B2F1D1704710B50A
:10050000FFF7B6FF00F008F810BD0000080000205B
:10051000100000201800002000B587B0012108035A
:1005200000F02AFB0121042000F026FBE020ADF8BA
:10053000180003208DF81A0018208DF81B0006A95A
:10054000424800F063FD0020ADF804004FF48270D3
:10055000ADF806000020ADF80800ADF80A00ADF8CF
:100560000C004FF40070ADF80E003020ADF8100014
:100570000020ADF812000720ADF8140001A934489E
:1005800000F084FB0121324800F025FC07B000BDDB
:1005900000B587B00121880300F0FBFA4FF46040FA
:1005A000ADF8180003208DF81A0018208DF81B00F4
:1005B00006A9284800F02AFD0020ADF804004FF4F9
:1005C0008270ADF806000020ADF80800ADF80A0012
:1005D000ADF80C004FF40070ADF80E003020ADF80F
:1005E00010000020ADF812000720ADF8140001A99A
:1005F000194800F04BFB0121174800F0ECFB07B055
:1006000000BD0146002206E0501CC0B20246C828C8
:1006100001DD002070470E48008900F0020000282C
:10062000F2D00B488181002206E0501CC0B2024685
:10063000C82801DD0020EDE70548008900F0010031
:100640000028F2D002488089C0B2E3E700080140E8
:1006500000300140000C014000380040864800682E
:1006600040F0010084490860084640684860084638
:10067000406840F4001048600846406848600846FA
:10068000006840F08070086000BF7B48006800F0A0
:1006900000700028F9D07848406820F003007649BF
:1006A00048600846406840F00200486000BF724859
:1006B000406800F00C000828F9D170470CB5002004
:1006C000019000906C48006840F480306A490860EE
:1006D00000BF6948006800F4003000900198401C99
:1006E0000190009818B90198B0F5A06FF1D1624857
:1006F000006800F4003010B10120009001E00020FB
:1007000000900098012843D15C48006840F0100038
:100710005A4908600846006820F00300086008464F
:10072000006840F002000860534840685249486041
:100730000846406848600846406840F48060486069
:100740000846406820F47C1048600846406840F441
:10075000E81048600846006840F08070086000BFFC
:100760004548006800F000700028F9D04248406811
:1007700020F00300404948600846406840F002000D
:10078000486000BF3C48406800F00C000828F9D1E0
:100790000CBD10B5FFF792FF10BD10B536480068CC
:1007A00040F0010034490860084640683449084078
:1007B0003149486008460068324908402E490860BF
:1007C0000846006820F4802008600846406820F44D
:1007D000FE0048604FF41F008860FFF7DAFF4FF01B
:1007E00000602949086010BD10B5002100200022DA
:1007F000214B5B6803F00C0121B1042906D00829C4
:1008000028D107E0214B224C236027E01F4B204CCE
:10081000236023E0184B5B6803F47010164B5B6891
:1008200003F48032022303EB904022B9194B434377
:10083000174C23600DE0104B5B6803F4003323B1C9
:10084000144B4343124C236003E0104B4343104CC2
:10085000236003E00D4B0E4C236000BF00BF064B2E
:100860005B68C3F303130C4CE15C094B1B68CB4082
:10087000074C236010BD0000001002400020024021
:100880000000FFF8FFFFF6FE08ED00E000127A001E
:100890002000002000093D0024000020DF480068FF
:1008A00040F00100DD49086008464068DC49084026
:1008B000DA49486008460068DA490840D7490860C4
:1008C0000846006820F4802008600846406820F44C
:1008D000FE0048604FF41F0088607047CF490968E8
:1008E00021F48031CD4A11601146096821F480213C
:1008F0001160B0F5803F03D0B0F5802F0ED106E037
:10090000C649096841F48031C44A116007E0C3490F
:10091000096841F4A021C14A116000E000BF00BF96
:10092000704710B501460022002300204A11012A19
:1009300002D1BA4C236806E0022A02D1B74C236ADE
:1009400001E0B64C636A01F01F02012494401C4090
:100950000CB1012000E0002010BD38B5002000904F
:100960000024002500BF3120FFF7DBFF054600987B
:10097000401C00900098B0F5A06F01D0002DF2D07F
:100980003120FFF7CEFF08B1012400E0002420460B
:1009900038BD01460020A14A106820F0F80040EA66
:1009A000C10010607047A0490860704702460020EF
:1009B0009A4B586820F47C1042EA01031843974B85
:1009C0005860704798490866704701460020934A6E
:1009D000506820F003000843506070478F4840681B
:1009E00000F00C007047014600208C4A506820F04F
:1009F000F00008435060704701460020874A506865
:100A000020F4E06008435060704701460020834AAC
:100A1000506820F4605040EAC1005060704729B12E
:100A20007E4A527A02437D4B5A7204E07B4A527AE4
:100A300082437A4B5A7270477B49D83108607047BD
:100A400001460020754A506820F440400843506039
:100A500070470021714A20321170704A82F82010CC
:100A6000012802D004280AD104E001216B4A203277
:100A7000117005E00521694A2032117000E000BFC5
:100A800000BF70476949086070476449096A0143BB
:100A9000624A11627047654944390860704730B551
:100AA00000210022002400235C4D6D6805F00C013C
:100AB00021B1042905D0082923D105E05C4D05604A
:100AC00022E05B4D05601FE0544D6D6805F4701227
:100AD000524D6D6805F48034022505EB92421CB935
:100AE000544D554305600BE04C4D6D6805F40035E1
:100AF0001DB1504D5543056002E04D4D5543056015
:100B000002E04B4D056000BF00BF444D6D6805F02D
:100B1000F0010909484D6B5C0568DD4045603F4DBB
:100B20006D6805F4E061090A434D6B5C4568DD4082
:100B300085603A4D6D6805F46051C90A3E4D6B5CA5
:100B40004568DD40C560354D6D6805F44041890B51
:100B50003A4D6B5CC568B5FBF3F5056130BD29B155
:100B60002E4A526902432D4B5A6104E02B4A5269C6
:100B700082432A4B5A61704729B1284A926902433D
:100B8000264B9A6104E0254A92698243234B9A617D
:100B9000704729B1214AD2690243204BDA6104E04F
:100BA0001E4AD26982431D4BDA61704729B11B4A44
:100BB000D2680243194BDA6004E0184AD2688243D3
:100BC000164BDA60704729B1144A12690243134B7D
:100BD0001A6104E0114A12698243104B1A6170478E
:100BE00012494039086070470F49C86470470B4983
:100BF000C87170470948406A40F0807007494862F0
:100C0000704701460020054A92680A400AB1012057
:100C100000E00020704701498872704700100240D0
:100C20000000FFF8FFFFF6FE00004242800442424F
:100C300000127A0000093D0034000020440000202A
:100C400010B50446BE48844208D101218014FFF744
:100C5000ADFF0021A014FFF7A9FF16E0B9488442B8
:100C600008D101210014FFF7AEFF00212014FFF787
:100C7000AAFF0AE0B448844207D10121C013FFF75C
:100C8000A2FF0021E013FFF79EFF10BD10B5002268
:100C9000028802F441520B884C8823438C882343FA
:100CA000CC8823430C8923434C8923438C892343D9
:100CB000CC8923431A430280838B4FF2FF74234075
:100CC00083830B8A038210BD2DE9F04F85B0054662
:100CD0000C464FF0000902274FF000084FF0010BBF
:100CE0000026B246A88B4FF240010840A88302209C
:100CF0002884B5F81C90A068022801D100BF38E014
:100D0000A08810B94FF0010B01E04FF0020B8D48A5
:100D1000854200D100E000BF6846FFF7C0FEDDF865
:100D200000A0E088B0F5007F0AD14FEA1A2000EB5E
:100D300080004000A168B0FBF1F0401D86B20BE0DE
:100D40004FEA4B10BAFBF0F000EB80004000A168C6
:100D5000B0FBF1F0401D86B20A20B6FBF0F606F0BB
:100D60000108A6EB0800C0F34F074FF6FF7000EA3A
:100D70000828022F01DBFF2F02DD02274FF00008B9
:100D8000E08840EA080038432884A088A189084305
:100D9000618808432188084340F4006040EA09095B
:100DA000A5F81C9005B0BDE8F08F002101804180BE
:100DB0008180C180018141818181C18107210182BE
:100DC00070470021018041808180C18002218160C3
:100DD00000218181704721B1028842F040020280E7
:100DE00004E002884FF6BF731A400280704721B1B9
:100DF000828B42F48062828304E0828B4FF6FF3361
:100E00001A408283704730B5002400230C1101255D
:100E1000A540ABB21AB185881D43858002E0858864
:100E20009D43858030BD1AB183880B43838002E0E7
:100E300083888B438380704781817047014688890E
:100E400070474FF6FF62914204D0028842F48072EC
:100E5000028004E002884FF6FF631A400280704768
:100E600021B1828842F00402828004E082884FF639
:100E7000FB731A408280704702884FF2FF731A405A
:100E8000028002880A4302807047018841F4805141
:100E90000180704721B1028842F40052028004E0D0
:100EA00002884DF6FF731A40028070470246002008
:100EB000012901D0108B00E0908A70470146088A12
:100EC0007047B1F5804F04D1028842F4804202801D
:100ED00004E002884BF6FF731A4002807047024616
:100EE000002013890B400BB1012000E00020704767
:100EF000CA4302817047F0B5024600200024002357
:100F0000002501F00F070126BE40B4B20B110126E7
:100F10009E40B3B2968806EA03051689264016B1AC
:100F20000DB1012000E00020F0BD10B5002201F05D
:100F30000F040123A3409AB2D343038110BD0000E4
:100F40000030014000380040003C004010B504462D
:100F5000CC48844208D101210420FFF727FE00215C
:100F60000420FFF723FE46E0C748844208D1012150
:100F70000820FFF71BFE00210820FFF717FE3AE0CC
:100F8000C248844208D101211020FFF70FFE002142
:100F90001020FFF70BFE2EE0BD48844208D101214E
:100FA0002020FFF703FE00212020FFF7FFFD22E0B5
:100FB000B848844208D101214020FFF7F7FD002105
:100FC0004020FFF7F3FD16E0B348844208D1012129
:100FD0008020FFF7EBFD00218020FFF7E7FD0AE00E
:100FE000AE48844207D101218015FFF7DFFD0021C3
:100FF000A015FFF7DBFD10BD10B501210846FFF776
:10100000D5FD00210120FFF7D1FD10BD2DE9F041F4
:10101000024600250026002000230024002791F826
:1010200003C00CF00F0591F803C00CF0100CBCF1DC
:10103000000F03D091F802C04CEA050591F800C0FA
:10104000BCF1000F31D0146800202BE04FF0010CF0
:101050000CFA00F3B1F800C00CEA03069E4220D15E
:1010600083004FF00F0C0CFA03F7BC4305FA03FCA6
:101070004CEA040491F803C0BCF1280F06D14FF0EC
:10108000010C0CFA00FCC2F814C00AE091F803C08D
:10109000BCF1480F05D14FF0010C0CFA00FCC2F86E
:1010A00010C0401C0828D1D31460B1F800C0BCF1B6
:1010B000FF0F34DD546800202EE000F1080C4FF0E3
:1010C000010808FA0CF3B1F800C00CEA03069E42CE
:1010D00021D183004FF00F0C0CFA03F7BC4305FA43
:1010E00003FC4CEA040491F803C0BCF1280F05D1BD
:1010F00000F1080C08FA0CF8C2F8148091F803C04B
:10110000BCF1480F07D100F1080C4FF0010808FAB4
:101110000CF8C2F81080401C0828CED35460BDE8FB
:10112000F0814FF6FF710180022181700421C170AE
:1011300070470246002093680B400BB1012000E08D
:10114000002070470146886880B270470246002040
:10115000D3680B400BB1012000E00020704701462E
:10116000C86880B2704701617047416170470AB139
:10117000016100E041617047C16070474FF4803207
:101180000A43826181618261826982697047024695
:101190000020434B18684FF68073184040EA021055
:1011A00008433F4B186070473E49C8617047F0B52F
:1011B0000A46002300240021002500F00046B6F175
:1011C000004F02D1364EF16901E0354E7168C0F32F
:1011D000034583B200F44016B6F5401F08D121F054
:1011E00070612F4E766826F070662D4F7E6012E09B
:1011F00000F48016B6F5801F06D1032606FA05F422
:10120000A14341F0706106E0460D360103FA06F68F
:10121000B14341F0706122B1460D360103FA06F682
:10122000314300F00046B6F1004F02D11C4EF1618F
:1012300001E01B4E7160F0BD30B500228B071C0F22
:101240000F2303FA04F2164B08338C1053F82430A2
:101250009343134C08348D1044F8253023468C10EA
:1012600053F824308C07240F00FA04F423430C4C69
:1012700008348D1044F8253030BD0A49DC3108604F
:101280007047000000080140000C014000100140C0
:101290000014014000180140001C014000200140E2
:1012A00000000140000020420648804706480047F1
:1012B000FEE7FEE7FEE7FEE7FEE7FEE7FEE7FEE706
:1012C000FEE7FEE75D060008ED000008014600208D
:1012D000FE4A106800F03800084310607047FB4970
:1012E000096821F00801F94A1160114609680143B3
:1012F00011607047F549096821F01001F34A116047
:1013000011460968014311607047F148EF49486090
:10131000F04848607047EE48EC494860ED48486046
:101320007047EA48006940F08000E849086170476A
:10133000E648006940F08000E449086170470420F5
:10134000E249C96801F0010109B101200EE0DF495D
:10135000C96801F0040109B1022007E0DB49C9684E
:1013600001F0100109B1032000E00420704700B52E
:1013700002460423FFF7E3FF034603E0FFF7DFFF26
:101380000346521E012B01D1002AF7D102B90523D1
:10139000184600BD30B5044604254FF43020FFF751
:1013A000E6FF0546042D17D1C848006940F0020049
:1013B000C649086108464461006940F04000086180
:1013C0004FF43020FFF7D3FF0546C048006941F6CF
:1013D000FD710840BD490861284630BD10B50424A0
:1013E0004FF43020FFF7C3FF0446042C16D1B74852
:1013F000006940F00400B54908610846006940F002
:10140000400008614FF43020FFF7B1FF0446AF48B9
:10141000006941F6FB710840AC490861204610BDE7
:1014200000B502460423FFF78AFF034603E0FFF7F7
:1014300086FF0346521E012B01D1002AF7D102B9C3
:101440000523184600BD10B504244FF43020FFF7E3
:10145000E7FF0446042C16D19C48006940F00400C4
:101460009A4908610846006940F0400008614FF45D
:101470003020FFF7D5FF04469448006941F6FB7120
:10148000084092490861204610BD00208F49C96973
:1014900001F0020109B1012000E00020704730B5E1
:1014A000A5250424FFF7F1FF00B100254FF43020FB
:1014B000FFF75DFF0446042C3AD1854883498860D4
:1014C000844888600846006940F0200008610846AA
:1014D000006940F0400008614FF43020FFF747FFFB
:1014E0000446042C1BD17948006941F6DF7108409D
:1014F000764908610846006940F0100008617648A6
:101500000580E002FFF733FF0446052C10D06F483A
:10151000006941F6EF7108406C49086108E0052C4C
:1015200006D06A48006941F6EF71084067490861D2
:10153000204630BD78B506460C46042500200090B4
:10154000E802FFF714FF0546042D24D15F48006927
:1015500040F001005D4908613480E802FFF707FFB1
:101560000546042D10D1B01C0090200C0099088075
:10157000E802FFF7FCFE05465448006941F6FE719B
:1015800008405249086106E05048006941F6FE7182
:1015900008404E490861284678BD70B504460D469E
:1015A0000426F002FFF7E3FE0646042E11D1474859
:1015B000006940F00100454908612580F002FFF70D
:1015C000D6FE06464148006941F6FE7108403F4993
:1015D0000861304670BD70B505460E460424E00231
:1015E000FFF7C5FE0446042C17D1394837498860F7
:1015F000384888600846006940F0100008612E8075
:10160000E002FFF7B4FE0446052C06D02F4800691F
:1016100041F6EF7108402D490861204670BD2DE963
:10162000F04304464FF6FF763746B046B1460425F0
:10163000E443E6B2C4F30727C4F307484FEA14694A
:10164000E802FFF794FE0546042D49D120481F49C2
:101650008860204888600846006940F010000861F2
:10166000FF2E06D01C4808300680E802FFF77FFEF8
:101670000546042D08D1FF2F06D017480A300780F1
:10168000E802FFF774FE0546042D0AD1B8F1FF0FFA
:1016900007D011480C30A0F80080E802FFF767FE81
:1016A0000546042D0AD1B9F1FF0F07D00A480E30C4
:1016B000A0F80090E802FFF75AFE0546052D0FD06E
:1016C0000248006941F6EF71084007E0002002403F
:1016D00023016745AB89EFCD00F8FF1F664908611C
:1016E0002846BDE8F08330B5054604244FF4302089
:1016F000FFF73DFE0446042C41D160485E498860F6
:101700005F4888600846006940F02000086108468C
:10171000006940F0400008614FF43020FFF727FED9
:101720000446042C22D15448006941F6DF71084078
:10173000514908610846006940F0100008611DB178
:1017400000205049088002E0A5204E4908804FF44F
:101750003020FFF70CFE0446052C10D046480069E7
:1017600041F6EF7108404449086108E0052C06D0B5
:101770004148006941F6DF7108403F490861204651
:1017800030BDF0B505460E46174604243B483A499D
:1017900088603B488860E002FFF7E9FD0446042CBE
:1017A00019D13548006940F010003349086147F00D
:1017B000F800304328433349891C0880E002FFF7D2
:1017C000D6FD0446052C06D02B48006941F6EF7182
:1017D0000840294908612046F0BD2748C0698008B3
:1017E00070472548006A704700202349096801F0C6
:1017F000200109B1012000E00020704729B11E4AF4
:10180000126902431C4B1A6104E01B4A12698243AD
:10181000194B1A61704701460020012908D1164A68
:10182000D26902F001020AB1012008E0002006E0BE
:10183000114AD2680A400AB1012000E00020704736
:101840000D49C860704704200B49C96801F00101C7
:1018500009B101200EE00849C96801F0040109B18D
:10186000022007E00449C96801F0100109B1032012
:1018700000E004207047000000200240230167457B
:10188000AB89EFCD00F8FF1F10B504464B48007838
:10189000A04200D110BD49480470002000F02EF98C
:1018A00047480068407800F07F0040F080004449DD
:1018B00009684870424800684178012000F0CFF87C
:1018C000012000F01BF900203D49096881F83D0026
:1018D0003B49096881F83E000222394801683D31E0
:1018E000402000F0A0F86F223649012000F0BFF838
:1018F00000BFCFE710B5012000F087F86420FEF7A5
:10190000EEFD002000F081F86420FEF7E8FD10BD38
:1019100010B52C48401E2A49086000F057F8FFF720
:10192000E9FF0120FFF7B0FF00F019F910BD2648CC
:101930000078704710B50446204600F0DFF810BD6F
:1019400010B500F064F910BD10B500F079F910BDC4
:1019500010B500F069F910BD10B500F093F910BD95
:1019600010B500F092F910BD10B500F092F910BD5D
:1019700000BFFEE710B5012000F08EF910BD70B574
:1019800004460D462946204600F08EF970BD70B51C
:1019900004460D462946204600F095F970BD10B565
:1019A00000F09FF910BD10B50446204600F074F910
:1019B00010BD10B500F098F910BD000049000020DE
:1019C0006C000020110100204800002008B5012112
:1019D0000420FFF7D1F80820ADF8000010208DF8A2
:1019E000030003208DF8020069464348FFF70EFB11
:1019F0001020ADF800008DF8030003208DF80200E0
:101A000069463D48FFF702FB08BD10B50446012CAE
:101A100004D108213848FFF7A8FB03E00821364825
:101A2000FFF7A1FB10BD2DE9F04105460E46174614
:101A300010213148FFF799FB45F08000FEF7E1FDEA
:101A4000002404E0305DFEF7DCFD601CC4B2BC4243
:101A5000F8DB10212848FFF786FBBDE8F08113B5BD
:101A60000446012201A92046FFF7DDFF1CBD2DE938
:101A7000F04105460E46174610211F48FFF775FB3B
:101A800005F07F00FEF7BDFD002405E00020FEF715
:101A9000B8FD3055601CC4B2BC42F7DB10211648BB
:101AA000FFF761FBBDE8F08170B504460D460122E9
:101AB00029462046FFF7DBFF70BD70B504460D4692
:101AC0002A4621460020FFF7AEFF70BD70B50446E0
:101AD0000D462A4621460020FFF7C9FF70BD0020B1
:101AE000704700207047002070470020704700209A
:101AF00070470020704770470008014070B50446E9
:101B00000025F6480068407820F0F800F449087095
:101B100008460078844219D0032C01D1012500E049
:101B20000025F0480078854201D0EE480570EB486A
:101B30000068407800F0F8002043E84909684870E0
:101B4000E648006841780120FFF789FF70BD10B5B5
:101B5000E24801683F314220FFF7A6FF10BD10B5F3
:101B60000020E1490870FFF7F2FF6F22DF490120F2
:101B7000FFF77DFF2020D949096808736F22DB49F0
:101B80000120FFF750FFDA49086800F0F5FBD8495B
:101B9000887900F03BFDD649C87900F070FDD44942
:101BA000087A00F099FDD249487900F0EBFCD04961
:101BB000487A00F0F5FD40F2FF3000F0FDFECC4920
:101BC000087E00F050FE012000F02AFF802000F087
:101BD000A7FE012000F067FE1420C549087191F9A5
:101BE000040000F017FC0120FFF788FF10BD10B5BE
:101BF0000120FFF70AFF4FF47A70FEF770FC002017
:101C0000FFF703FF4FF47A70FEF769FC10BD10B5C3
:101C1000B2480168491C0120FFF746FFAF48006841
:101C2000407820F0F80010BD10B5AC4801680C31C8
:101C30000C20FFF739FFA9480068007B400910BD60
:101C400070B5A64801681B311B20FFF72DFFA8487F
:101C50000068A84988420AD2A0490968C87E01F0F4
:101C6000D8F804460022A44B00F03AFF70BD9B490F
:101C70000968C87E01F0CDF8044600229F4B00F0B1
:101C80002FFFF3E79E48007870479E4890F90000C8
:101C900070479D4903C9704793490870704700B564
:101CA0000120FFF7F9FF00BD70B505460C469748C7
:101CB0000088208000209549088022889449284681
:101CC00000F0EAFE70BD70B504460D4691480580EF
:101CD000028821468E4800F0DFFE05208249087008
:101CE00070BD8148007870472DE9FC474FF0010A2C
:101CF0007D4800780B2873D2DFE800F0060773CE2A
:101D0000EFEEEDEC72EBEA002FE30120FFF7F6FEB9
:101D10009D2072490968487470480068417C112010
:101D2000FFF79DFE7248C07A012816D17048007BEB
:101D30006A49096881F82400684801681C311C2040
:101D4000FFF7B2FE65490968097F01F03F01724A59
:101D500052F8210000F010FB04E000205F49096800
:101D600081F824005D48006890F824102420FFF7D3
:101D700076FE00205949096881F83D0057490968F5
:101D800081F83E000222554801683D314020FFF7AE
:101D90004AFE5748807A012803D10620FFF7AEFE9D
:101DA0000EE04E480068C07B4C49096848734B48B8
:101DB0000068417B0D20FFF752FE0520FFF79EFED5
:101DC0004FF48071524800F080FE49484069534901
:101DD0000860012052490860022043490870C4E2AB
:101DE000C2E201A91220FFF75FFE9DF8040000F097
:101DF0004000E8B101204A4908603D48C07A012806
:101E00000FD1364801681C311C20FFF74DFE3349C5
:101E10000968097F01F03F013F4A52F8210000F0B4
:101E2000ABFA40211220FFF71AFE03202E4908705A
:101E30009DF8040000F00200F0B10120384908606C
:101E40002B48C07A01280FD1244801681C311C207E
:101E5000FFF72AFE21490968097F01F03F012E4A58
:101E600052F8210000F088FA02211220FFF7F7FD56
:101E7000FFF7DAFE224908701D48807A01280AD14E
:101E800027480068C0F1010024490968884202D946
:101E900004201549087068E21048016812311220C8
:101EA000FFF702FE0D480068807C00F0200020282B
:101EB00038D120211220FFF7D2FD0D48807A012869
:101EC00002D10949087002E00220074908704CE27B
:101ED0000BE2E6E1DCE1ADE132E12BE16C00002058
:101EE0008E0000208F0000207000002011010020D3
:101EF00050000020008F4233008064C000A063C007
:101F00008000002074000020780000207200002073
:101F1000800100208C000020C02F000888000020D5
:101F20008400002069461920FFF7BEFD9DF80000DF
:101F300000F0800068B19DF80000C043401CC0F371
:101F40008500F849087008460078404240B20870A1
:101F500004E09DF800008008F2490870F24801682A
:101F60001A311A20FFF7A0FDF0480068F0498842B6
:101F70002FD2EC4890F90000002818DAE94890F9CF
:101F8000000000F035FF04460D46E7490968887EE9
:101F900000F03FFF80460022E64B00F0A1FD064620
:101FA00022462B4600F09CFDE34A03C240E0DE4996
:101FB0000968887E00F02DFF0646E04AE04B00F0FD
:101FC00036FE04460022DB4B00F08AFDDA4A03C2EB
:101FD0002EE0D44890F90000002818DAD14890F992
:101FE000000000F005FF04460D46CF490968887ED1
:101FF00000F00FFF80460022D24B00F071FD064634
:1020000022462B4600F06CFDCB4A03C210E0C649C5
:102010000968887E00F0FDFE0646C84AC84B00F0FD
:1020200006FE04460022C74B00F05AFDC24A03C216
:10203000BE48807A01282FD1BB480068C07BBA49CE
:1020400009684873B8480068417B0D20FFF707FD19
:10205000B648407A01280DD1B348006890F82200B4
:10206000B9490880B048006890F82210B748FFF7D7
:102070002DFD52E0AC48016813311320FFF714FD29
:10208000A9480068C07CB0490880A7480068C17CA6
:10209000AE48FFF71BFD40E0A34801681031102057
:1020A000FFF702FDA148407A012819D19E48006837
:1020B00090F82200A44908809B480068007C9A4957
:1020C0000968487398480068417B0D20FFF7C7FCFA
:1020D0009548006890F822109C48FFF7F7FC1CE038
:1020E0009148016813311320FFF7DEFC8E48006829
:1020F000C07C954908808C480068007C8A49096842
:10210000487389480068417B0D20FFF7A8FC86488A
:102110000068C17C8D48FFF7D9FC8448807A01288B
:1021200002D18B49087002E00220894908704FF003
:10213000020A1AE10120864908704FF0030A14E1EF
:102140000120FFF7DBFC7948C07A01281AD1F5207D
:102150007549096848747548007B7349096881F8B6
:102160002400714801681C311C20FFF79DFC6E495A
:102170000968097F01F03F01764A52F8210000F01A
:10218000FBF808E0F72068490968487400206649B0
:10219000096881F824006448006890F8241024201D
:1021A000FFF75DFC60480068417C1120FFF757FC99
:1021B000694800785C49096881F822005A4800683B
:1021C00090F822102220FFF74AFC002056490968A7
:1021D000887355480068817B0E20FFF740FC524809
:1021E0000068807B5049096848734F480068417B0C
:1021F0000D20FFF734FC4C48006890F8221053483B
:10220000FFF75BFC41204849096881F83D00402008
:102210004549096881F83E000222434801683D3182
:102220004020FFF700FC0320FFF768FC0620484928
:1022300008709AE001A91220FFF736FC9DF804000F
:1022400000F0080030B108211220FFF708FC072039
:102250003F4908709DF8040000F00200B8B133480F
:10226000C07A01280FD1304801681C311C20FFF7CB
:102270001BFC2D490968097F01F03F01354A52F8DE
:10228000210000F079F802211220FFF7E8FB6CE052
:102290000120FFF733FC00202D4908704FF0040A9D
:1022A00063E00120FFF72AFCFA201F4909684874FF
:1022B0001D480068417C1120FFF7D1FB00201A491E
:1022C000096881F83D001849096881F83E0002223A
:1022D000154801683D314020FFF7A5FB0720FFF7B7
:1022E0000DFC0A201A4908703FE001A91220FFF7EF
:1022F000DBFB9DF8040000F0040090B104211220E3
:10230000FFF7ADFB9DF8040000F0010030B30121A0
:102310001220FFF7A4FB01200D4908704FF0080AB6
:1023200021E020E0740000206C000020500000201C
:10233000008F4233008064C0780000201B9E5E291D
:10234000CB10F13F00A063C072000020800100208C
:1023500070000020C02F00088C00002000200549DC
:1023600008704FF0070A00E000BF00BF5046BDE80C
:10237000FC870000700000202DE9F0410446FA4877
:102380000460204600F045FD05460022F74B00F0B2
:10239000C0FC074600F04AFD0446200CF4490968D9
:1023A0008871200AF2490968C871F14909680C72FC
:1023B0000322EF480168891D0620FFF734FBBDE8C2
:1023C000F0812DE9F0410322E9480168891D0620CA
:1023D000FFF74DFBE648006880790004E44909688E
:1023E000C97940EA0120E2490968097A0843DE49CF
:1023F0000860086800F00DFD06460022DB4B00F087
:1024000016FC044600F012FDD74908600846006833
:10241000BDE8F08110B50446D548016809310920AE
:10242000FFF742FBD248016849314D20FFF73CFBE2
:10243000CF480068407A00F08000802841D1CC4825
:10244000006890F8490000F0870087281CD1052C0F
:1024500000DA0524142C00DD1424C5480068407AF5
:1024600000F08F0040F07000C14909684872C04810
:102470000068407A00F0F000611F01F00F0108438E
:10248000BB49096848723AE0022C00DA0224112C98
:1024900000DD1124B6480068407A00F08F0040F05B
:1024A0007000B34909684872B1480068407A00F08A
:1024B000F000A11E01F00F010843AD490968487200
:1024C0001DE0B4F1FF3F01DA4FF0FF340E2C00DDC8
:1024D0000E24A7480068407A00F08F0040F070009A
:1024E000A34909684872A2480068407A00F0F000E9
:1024F000611C01F00F0108439D49096848729C481E
:102500000068417A0920FFF7AAFA9748047110BDC4
:1025100010B59748016809310920FFF7C5FA9448BA
:10252000016849314D20FFF7BFFA91480068407AB1
:1025300000F08000802819D18D48006890F849008B
:1025400000F00700072808D189480068407A20F089
:10255000F000401D8449087110E085480068407A09
:1025600020F0F000801C8049087107E08048006876
:10257000407A20F0F000401E7B4908717A4890F9BB
:10258000040010BD10B50446794801681D311D20B6
:10259000FFF78AFA76480068407F64F31F10744999
:1025A0000968487772480068417F1D20FFF757FA95
:1025B0006D48447110BD10B56D4801681D311D2076
:1025C000FFF772FA6A480068407F00116649487157
:1025D0000846407910BD10B50446654801683031A1
:1025E0003120FFF761FA6248006890F8300000F08F
:1025F000F80020435E49096881F830005C480068B3
:1026000090F830103120FFF72AFA10BD10B50446BB
:102610000C2C01DD0C2402E0062C00DA0624062C2A
:1026200003D10520FFF7D7FF02E00320FFF7D3FF18
:102630004F4801681E311E20FFF736FA4C480068EB
:10264000807F64F31F104A4909688877484800680A
:10265000817F1E20FFF703FA4348847110BD10B537
:10266000434801681E311E20FFF71EFA40480068EB
:10267000807F00113C4988710846807910BD10B5F3
:1026800004463B4801681D311D20FFF70DFA38480C
:102690000068407F00F0F10040EA440034490968D6
:1026A000487733480068417F1D20FFF7D8F92E484E
:1026B000C47110BD10B52E4801681D311D20FFF7F3
:1026C000F3F92B480068407F20F0F10040102649C4
:1026D000C8710846C07910BD10B504462448016889
:1026E0001E311E20FFF7E0F921480068807F00F0CE
:1026F000FB0040EA84001E49096888771C4800688E
:10270000817F1E20FFF7ABF91748047210BD10B58A
:10271000044602221648016820312020FFF7A7F95D
:10272000200A1349096881F820001149096881F8D5
:10273000214002220E48016820312020FFF773F962
:1027400010BD10B502220A48016820312020FFF791
:102750008EF90748006890F821100548006890F845
:10276000200041EA002010BD5000002080844E402F
:102770006C00002010B5C64801681E311E20FFF70E
:1027800093F9C3480068807F00F00400401008B14E
:10279000012000E00020BF4908720846007A10BD01
:1027A00010B50446BA4801681D311D20FFF77CF9B9
:1027B000B7480068407F00F0FE002043B449096834
:1027C0004877B3480068417F1D20FFF748F9B148BA
:1027D000447210BD10B5AE4801681D311D20FFF7D1
:1027E00063F9AB480068407F00F00100A9494872D6
:1027F0000846407A10BDA74988727047A548807A7C
:102800007047A449C8727047A248C07A704710B593
:1028100004469F48006880F824409D48006890F86E
:1028200024102420FFF71BF99A48047310BD10B53B
:102830009748016824312420FFF736F9944800684E
:1028400090F82400934908730846007B10BD914915
:10285000086170478F48006970478E49486170472A
:102860008C484069704710B504468948006880F874
:1028700022408748006890F822102220FFF7EFF8E6
:102880008448047610BD10B58148016822312220A9
:10289000FFF70AF97E48006890F822007D49087623
:1028A0000846007E10BD10B50446794801684931DC
:1028B0004D20FFF7F9F87648016809310920FFF744
:1028C000F3F873480068407A00F08000802807D150
:1028D000012C0AD187206E49096881F8490004E07B
:1028E00084206B49096881F849006948006890F8BC
:1028F00049104D20FFF7B3F810BD10B564480168CA
:1029000049314D20FFF7D0F86148006890F8490040
:1029100000F00700072801D1012010BD0020FCE7CE
:1029200010B504465A48016809310920FFF7BCF880
:1029300057480068407A00F07F00204354490968F6
:10294000487253480068417A0920FFF788F810BDA3
:1029500010B54F48016809310920FFF7A5F84C4828
:102960000068407A20F07F0010BD10B5044648484A
:1029700001680A310A20FFF797F845480068807A15
:1029800000F0F00024F0F001084341490968887222
:102990003F480068817A0A20FFF761F810BD10B542
:1029A0003B4801680A310A20FFF77EF83848006882
:1029B000807A20F0F00010BD10B5044602223448A1
:1029C00001681E311E20FFF752F831480068807FF1
:1029D00000F0FC006FF0FC0101EA242108432C49BF
:1029E000096888772A490968CC7702222848016853
:1029F0001E311E20FFF717F810BD10B50222244823
:102A000001681E311E20FFF732F821480068C07FA0
:102A10001F490968897F21F0FC0140EA012010BDAF
:102A200010B504461A48016826312620FFF73CF805
:102A30001748006890F8260000F0F70040EAC4004C
:102A40001349096881F826001148006890F826109B
:102A50002620FFF704F810BD10B50D480168263197
:102A60002620FFF721F80A48006890F82600C0F3F6
:102A7000C00010BD10B50648016830313120FFF7A5
:102A800013F80348006890F8300000F0070010BD0C
:102A90006C0000205000002040EA01039B0703D097
:102AA00009E008C9121F08C0042AFAD203E011F88D
:102AB000013B00F8013B521EF9D27047D2B201E04F
:102AC00000F8012B491EFBD270470022F6E710B533
:102AD00013460A4604461946FFF7F0FF204610BD8C
:102AE0002DE9FE4F804681EA0300C00F0C4600909E
:102AF00021F0004123F00045B8EB0200A94105D2C6
:102B00004046214690461C460B46024623F00040B4
:102B1000104347D0270DC7F30A00C3F30A510290B0
:102B2000401A019040286BDAC3F3130040F4801B75
:102B30000098924620B10023D2EB030A63EB0B0B03
:102B400001985946C0F14002504600F088F9064607
:102B50000D4650465946019A00F0A0F910EB0800C6
:102B60006141002487EA115284EAE7731A4340D096
:102B7000009A62B3019A012A4FEA075215DC001B42
:102B800061EB02014FF0004202EA0752CDE9004238
:102B9000001C41F5801132462B4600F0A0F903B02D
:102BA000BDE8F08F40462146F9E7001B61EB0201CA
:102BB000001C41F5801300185B412018A2F5001796
:102BC00047EB030140EAD570B6196D4111E06D087D
:102BD0004FEA360645EAC0754FEA0752001B61EB23
:102BE0000201001C41F5801149084FEA300000192C
:102BF000514132462B4603B0BDE8F04F00F060B9BA
:102C00000098012240000023D0EB020263EBE07346
:102C1000009821464FEAE074B8EB000061EB040134
:102C2000E9E783F000435BE781F0004158E72DE9D5
:102C3000FE4F81EA030404F0004421F000410094B7
:102C40004FF0000B23F0004350EA01045ED052EA3B
:102C500003045BD0C3F30A54C1F30A552C44A4F215
:102C6000F3340194A0FB0254C1F3130141F4801129
:102C7000C3F3130343F4801301FB024400FB034E30
:102C8000840A970A44EA815447EA8357A4FB0768F9
:102C900002958D0A05FB07854FEA932C04FB0C5423
:102CA0002705029D4FEA065847EA1637B5EB080597
:102CB0006EEB070C870E920E47EA811742EA8312E9
:102CC000A7FB0201B6EB0B0164EB00042B0D43EAFA
:102CD0000C335E1844EB1C50DA465146E7FB020108
:102CE000C5F313044FEA0B3343EA14534FEA04329B
:102CF000019C43EA0603A4F10C040294009CCDE974
:102D000000B400F0ECF803B0BDE8F08F00200146FD
:102D1000F9E72DE9F04D81EA030404F0004B21F0BE
:102D2000004514464FF0000A23F0004150EA050226
:102D300020D054EA01021DD0C5F30A570246C5F35C
:102D40001303C1F31300C1F30A5640F4801543F492
:102D50008013A7EB0608101BD64608F2FD3873EB6C
:102D6000050002D308F1010801E092185B41B8F1B7
:102D7000000F03DA00200146BDE8F08D00204FF47B
:102D80008011064684460EE0171B73EB050705D33A
:102D9000121B63EB050306434CEA010C49084FEA9A
:102DA000300092185B4150EA0107EDD152EA03006E
:102DB00012D082EA040083EA0501084305D0101B03
:102DC000AB4106D20122002306E000224FF000436F
:102DD00002E06FF0010253101AEB06004CEB0851B1
:102DE00010EB0A0041EB0B01BDE8F04D00F068B8B4
:102DF0000EB5C10F80EAE0700844CA07002140F216
:102E000033438DE80E000A460B4600F068F803B025
:102E100000BD0EB540F2334102910021CDE9001111
:102E20000A460B4600F05BF803B000BDC1F30A523E
:102E300010B5C1F3130140F2FF3341F480119A42FF
:102E400001DA002010BD40F233439A42A2F233422D
:102E500003DC524200F012F810BD904010BD202A51
:102E600004DB203A00FA02F1002070479140C2F1E1
:102E7000200320FA03F3194390407047202A04DB13
:102E8000203A21FA02F00021704721FA02F3D040E3
:102E9000C2F120029140084319467047202A06DB00
:102EA000CB17203A41FA02F043EAE07306E041FA18
:102EB00002F3D040C2F12002914008431946704706
:102EC00010B5141E73F1000408DA401C41F1000132
:102ED00092185B411A4301D120F0010010BD2DE989
:102EE000F04D92469B4611B1B1FA81F202E0B0FA80
:102EF00080F220329046FFF7B2FF04460F4640EAC8
:102F00000A0041EA0B0153465A46084313D01146C2
:102F100053EA010019D0C8F140025046FFF7AEFF56
:102F200005460E46504659464246FFF798FF08436D
:102F300005D0012004E020463946BDE8F08D002090
:102F4000054346EAE0762C4337430A986305E40AD2
:102F5000A0EB08000022FD0A44EA47540A3002D5DB
:102F600000200146E9E7010510196941DDE908453E
:102F700000196941BDE8F04DA2E70000064C074D7D
:102F800006E0E06840F0010394E807009847103439
:102F9000AC42F6D3FDF7AEF88C300008AC30000838
:102FA00002E008C8121F08C1002AFAD17047704712
:102FB000002001E001C1121F002AFBD17047000070
:102FC00020AEA036E07D0B37A017083660F0AF3694
:102FD00060F0AF36403D2E36C0AFD235000D993689
:102FE00020A5633680A331374061223760DE353655
:102FF00040466B36A032BF36A032BF36A00ECB356E
:10300000E0625436A0443937A00ECB35809AF436AE
:10301000001F1337E050DA3540466B36809AF4369D
:1030200080A33137807F3D360016D636A03BFC3674
:10303000C0C14C36809AF43660DE353680A3313715
:10304000809AF4368091B73660022A3700FB1E362C
:1030500060F0AF36A0443937209C2636000D9936F3
:1030600060D5F835000D9936C0AFD2354034F13512
:10307000C0CA893640466B36C0B80F36807F3D36B1
:10308000A044393760022A37C0C14C36AC30000842
:103090000000002090000000A02F00083C31000834
:1030A00090000020F0050000B02F00080000000094
:1030B000000000000008014000040000000801407A
:1030C00000010000000C01402000000000A24A04A2
:1030D00000000000000000000102030406070809C8
:1030E00000000000010203040102030406070809AE
:1030F00002040608000000000000000080A1031C7C
:103100001409070201000000000000006400000034
:1031100064000000800000000000000000000000CB
:10312000000000000000000000000000010000009E
:0C31300000000000000000000000010191
:04000005080000ED02
:00000001FF
