:020000040800F2
:1030000070220020F54F0008933200089532000826
:1030100097320008993200089B3200080000000037
:103020000000000000000000000000009D320008C9
:103030009F32000800000000DB610008B531000885
:103040000F5000080F5000080F5000089132000880
:103050000F5000080F5000080F500008F131000811
:103060000F5000080F5000080F5000080F500008C4
:103070000F5000080F5000080F5000080F500008B4
:103080000F5000080F5000080F5000080F500008A4
:103090000F5000080F5000080F5000080F50000894
:1030A0000F5000080F5000080F5000080F50000884
:1030B000D33100080F5000080F5000080F500008CF
:1030C0000F5000080F5000080F5000080F50000864
:1030D0000F5000080F5000080F5000080F50000854
:1030E0000F5000080F5000080F500008DFF80CD0F8
:1030F00005F0B0FF004800474B3100087022002067
:1031000010B50B231E4A00211E4804F09DFE072324
:103110001D4A00211D4804F097FE08231C4A002187
:103120001C4804F091FE0A231B4A00211B4804F0AE
:103130008BFE19480321001D04F0A9F91849086005
:10314000BDE81040FF2004F018BF174910B515481E
:10315000086000F01AFB12494860081D0021417008
:1031600000F007FB00F014FB03F0E2FA04230F4A1F
:1031700000210F4804F068FE03F0D0FB002010BDD2
:10318000D8030020CB320008D80500209534000871
:10319000D8070020B1330008D808002055330008B4
:1031A000000000200030000808ED00E0D8010020F9
:1031B0000131000810B502F0EFFF3A4A1178491CBE
:1031C000117002F0EDFF03F0D4FBBDE8104003F0F6
:1031D0004FBB10B501218C07204601F0FEFC0028F2
:1031E00005D02046BDE81040012101F002BD10BD10
:1031F00070B5022001F0B6FD00283DD0022001F09C
:10320000BFFD0221284801F070FE4FF0804228B136
:10321000BDE870400021104601F0B3BC104601F03B
:10322000CEFC2249012300224C7834B3A0F2213491
:1032300040F25725AC4202D28868400008E0A0F670
:103240008144B4F5C77F05D88868400040F001008C
:10325000886007E0A0F5805040F207746938A0420A
:1032600000D24A708878401CC0B28870202803D1F0
:103270000B704A708868486070BD6FF4FA5420443F
:1032800040F2CF74A042F7D24B708A708A6070BD52
:1032900070477047FEE7FEE7FEE7FEE770477047BE
:1032A0007047000082000020000C01400800002050
:1032B000034610B50020024604E09C5C521C2044EA
:1032C000C0B292B28A42F8D310BD08B500F053F9EB
:1032D00000B10120334D68700020287000F04BF9D8
:1032E0006978884221D0641CE4B20C2C1ED90024D9
:1032F000B9B1002068702878A8B10020287000F0CB
:103300002DF9287800F030F9012000210090254B9C
:103310000722084600F098F84FF4FA7005F078F8A4
:1033200004E00120E6E70120E8E700240A2005F098
:103330006FF8D3E71B4D002405F10C06002305228E
:103340001946184605F089F8EC602C74304600F0F8
:1033500045FBF3E708B5144D124C2878D8B100208E
:1033600028701248C178B1B98178FD2913D140780D
:10337000802810D1207890B10020207000F0EEF865
:10338000207800F0F1F8012000210090054B072281
:10339000084600F059F8642005F03AF8DDE701200E
:1033A000EBE70000E8080020080000200C000020E7
:1033B0001CB5204E012501AA0021306804F030F927
:1033C00004464078012806D0032816D005281CD0D2
:1033D00011281DD120E0A07800B10120164F3870CF
:1033E00000F0BCF8387800F0BFF8009520783B4634
:1033F0000222002100F028F80AE0642005F008F815
:10340000009520780C4B0422F3E7642005F000F8C7
:10341000322004F0FDFFCEE70848457000F0A9F91E
:1034200007480168074A01F4E06111430160BFF3F6
:103430004F8FFEE700000020E80800200400002075
:103440000CED00E00400FA0530B591B01146149A75
:103450004225541DE4B28DF800508DF801408DF8DE
:1034600002003B486D4600788DF803008DF804108B
:103470001946681D05F07CFB21466846FFF718FFDA
:103480002855611C684602F063F8642004F0C0FF10
:1034900011B030BD92B002F034F802F054F802F0EE
:1034A0005DF8022804D003284ED004284CD149E00E
:1034B00010A9684602F04AF89DF80000422843D15E
:1034C000BDF840000A283FD2401E81B26846FFF78F
:1034D000EFFEBDF840200DEB020111F8011C8842FF
:1034E00032D11B499DF80300097888422CD1194834
:1034F0000322C17A491CC9B2B1FBF2F302FB1311DA
:10350000C17201EB410101449DF802208A70C17A29
:103510009DF8042001EB41010144CA70C17A9DF875
:10352000052001EB410101440A71C17A01EB41011F
:1035300001440948891C006804F019F90A2004F0C4
:1035400067FF01E001F0FFFF0A2004F061FFA6E73A
:1035500004000020E80800200000002080F00102A4
:103560002021924801F0D9BC80F001024FF4806123
:103570008F4801F0D2BC10B54FF480718C4801F037
:10358000B4FC002800D0012010BD00B585B068460D
:1035900000F0E6FB01984FF47A71B0FBF1F0B0F166
:1035A000807F0DD220F07F414FF0E020491E416125
:1035B000804AF02182F8141D0021816107210161F8
:1035C00005B000BD0EB50121022000F01DFC6846CB
:1035D00001F0B6F84FF48070ADF806001020ADF899
:1035E00002006320ADF804005320ADF800006946E6
:1035F000714800F021FE704810300188C907FCD0E6
:103600004FF6FE7101800EBD6B492431401E0880CB
:10361000694A108840F00100108067481030018826
:10362000C907FCD04FF6FE710180108820F0010020
:10363000108070473EB50121084600F0E5FB684662
:1036400001F07EF80020ADF80600ADF802004FF65C
:10365000FF70ADF804001320ADF800004FF0804477
:103660006946204600F0E8FD0121204601F08CF873
:103670003EBD38B54FF4A06001F0BEFAFF208DF8D2
:10368000000001248DF8014000258DF802508DF8CE
:103690000340684601F0B5FA1C208DF800008DF853
:1036A00001408DF802408DF80340684601F0A9FA08
:1036B00007208DF800008DF801508DF802408DF83C
:1036C0000340684601F09DFA38BDF8B50121042099
:1036D00000F091FB0121082000F08DFB4FF4807079
:1036E000ADF800004826324F8DF8036003248DF8B2
:1036F00002406946384601F0A2FB3815ADF80000DB
:1037000010258DF803508DF802406946384601F0C7
:1037100096FB2020ADF800008DF80350234D8DF866
:1037200002406946284601F08AFB0220ADF80000FD
:103730008DF803608DF802406946284601F07FFB52
:10374000F8BD1CB50121084600F055FB01210846D3
:1037500001F029FC0220009000208DF804001020C8
:103760008DF8050001208DF80600684601F0AAFAE0
:103770001CBD10B5044601F068FC1048216801F03A
:103780003CFDBDE8104001F06CBC0C48006870477F
:1037900010B5FFF76EFFFFF7F8FEFFF796FF00F09A
:1037A00047F8FFF747FFBDE81040CAE7000C0140AB
:1037B000000801400FE000E000040040002C000879
:1037C00010B5012186B0880300F01EFB4FF4604065
:1037D000ADF8140003208DF8160018208DF817009E
:1037E00005A9494801F02BFB0020ADF800004FF47B
:1037F0008271ADF80210ADF808004FF40071ADF819
:103800000A103021ADF80C10ADF80400ADF8060038
:10381000ADF80E0007203D4CADF81000694620467B
:1038200000F05CFB0121204600F0D4FB06B010BD87
:1038300010B5012186B0080300F0DDFAE020ADF8F4
:10384000140003208DF8160018208DF8170005A924
:103850002F4801F0F4FA0020ADF800004FF4827117
:10386000ADF80210ADF808004FF40071ADF80A1081
:103870003021ADF80C10ADF80400ADF80600ADF83D
:103880000E000720234CADF810006946204600F0DA
:1038900025FB0121204600F09DFBC7E700211D4AC2
:1038A00003E0491CC9B2C82909D813899B07F8D578
:1038B0009081002005E0401CC0B2C82801D900203A
:1038C00070471189C907F6D09089C0B270470F4A76
:1038D0000021083203E0491CC9B2C8290BD813885B
:1038E0009B07F8D5094B0C331880002005E0401CDD
:1038F000C0B2C82801D9002070471188C907F6D086
:103900001888C0B270470000000C01400038004029
:10391000000801400030014008B54020ADF800002B
:1039200003208DF8020004208DF803006946434807
:1039300001F085FA08BD08B54020ADF8000003206D
:103940008DF8020010208DF8030069463B4801F015
:1039500076FA08BD10B5FFF7EEFF384C402120463F
:1039600001F0D9FA44F63820FFF74EFE40212046F8
:1039700001F0CFFA1E20FFF747FEBDE81040CBE76D
:1039800040212E4801F0B1BA10B52C4C4021204600
:1039900001F0ABFA0028F9D02820FFF735FE4021CE
:1039A000204601F0A2FA012801D0002010BD4021DC
:1039B000204601F09AFA0128F9D0012010BD70B517
:1039C000002004464FF6FF7606EA4005FFF7DCFFCD
:1039D000641C2843A4B2082CF6D370BD70B505460C
:1039E000FFF7B8FFFFF7CCFF28BBFFF7C9FF0028A0
:1039F000FBD0FFF7C5FF0128FBD00024FFF7DFFF56
:103A00002855641CE4B2052CF8D3FFF7B9FF002851
:103A1000FBD0FFF790FF4021084801F07AFA04211B
:103A20002846FFF745FC2979884201D1012070BD65
:103A3000002028602871002070BD0000000C0140AB
:103A40005E48016841F001010160416841604168E0
:103A500041F40011416041684160016841F08071AA
:103A6000016001688901FCD5416821F003014160D2
:103A7000416841F0020141604168C1F381010229BE
:103A8000FAD170470CB500224C48009201920168AF
:103A900041F4803101604FF4A063016801F400310A
:103AA00001910099491C0091019911B9009999421D
:103AB000F3D10168890333D50121019140490A6896
:103AC00042F010020A600A6822F003020A600A68E3
:103AD00042F002020A604168416041684160416809
:103AE00041F480614160416821F47C11416041688A
:103AF00041F4E8114160016841F0807101600168A2
:103B00008901FCD5416821F003014160416841F021
:103B1000020141604168C1F381010229FAD10CBD63
:103B200001920CBD254810B5016841F0010101600A
:103B30004168244A114041600168234A11400160F4
:103B4000016821F480210160416821F4FE01416097
:103B50004FF41F018160FFF795FF1C494FF0006093
:103B6000086010BD154A10B55068194B10F00C01D3
:103B7000184803D0042901D0082901D0036012E0BD
:103B80005168536801F470114FF0020413F4803F40
:103B900004EB914102D053689B0301D50E4B00E02A
:103BA0000B4B5943016051680A4AC1F30311121DBE
:103BB000515C0268CA40026010BD00000010024063
:103BC000002002400000FFF8FFFFF6FE08ED00E0D5
:103BD00000127A001400002000093D00A548016889
:103BE00041F0010101604168A34A11404160016850
:103BF000A24A11400160016821F4802101604168FE
:103C000021F4FE0141604FF41F0181607047994922
:103C10000A6822F480320A600A6822F480220A606C
:103C2000B0F5803F07D0B0F5802F03D1086840F48D
:103C3000A02008607047086840F48030F9E7034628
:103C4000002059098B4A01290AD002290AD0516A59
:103C500003F01F02012393400B4200D00120704764
:103C60001168F5E7116AF3E718B500204FF4A06476
:103C700000903120FFF7E3FF0099491C0091A14219
:103C800001D00028F5D03120FFF7D9FF002800D05F
:103C9000012018BD774A116821F0F80141EAC000FF
:103CA00010607047764908607047724B5A68084345
:103CB00022F47C12104358607047714908667047BF
:103CC0006C4A516821F00301014351607047694813
:103CD000406800F00C007047664A516821F0F0011E
:103CE000014351607047634A516821F4E061014328
:103CF000516070475F4A516821F4605141EAC00049
:103D0000506070475B4A0029517A01D0014300E0BE
:103D10008143517270475A49C1F8D8007047554ADB
:103D2000516821F4404101435160704751490022DC
:103D300081F8202081F82020012802D0042802D117
:103D4000052081F8200070474E49086070474949B6
:103D50000A6A02430A6270474A4944390860704758
:103D600030B5444A5168484B11F00C0103D0042986
:103D700001D0082901D0036012E05168536801F4B2
:103D800070114FF0020413F4803F04EB914102D014
:103D900053689B0301D53D4B00E03B4B5943016009
:103DA00051680F2303EA1111394B5C5C0168E14053
:103DB00041605468072505EA14241C5D21FA04F4C7
:103DC0008460546805EAD4241B5DD940C160526800
:103DD000032303EA92322E4B1B1F9A5CB1FBF2F1D4
:103DE000016130BD234A0029516901D0014300E03F
:103DF0008143516170471F4A0029916901D00143F5
:103E000000E08143916170471A4A0029D16901D0CD
:103E1000014300E08143D1617047164A0029D1680F
:103E200001D0014300E08143D1607047114A00296D
:103E3000116901D0014300E08143116170471149CC
:103E40004039086070470E49C86470470949C87115
:103E500070470848416A41F0807141627047054AE5
:103E60000146002092680A4200D0012070470149B3
:103E700088727047001002400000FFF8FFFFF6FE56
:103E8000000042428004424200127A0000093D00D4
:103E90002C000020994910B588420AD184140121D0
:103EA0002046FFF7BAFF2046BDE810400021FFF78B
:103EB000B4BF9349884202D10121041404E091491E
:103EC00088420AD10121C4132046FFF7AFFF2046E4
:103ED000BDE810400021FFF7A9BF10BD30B5028832
:103EE0004C8802F441530A88CD8822438C882C43A5
:103EF00022430C8922434C8922438C892243CC895A
:103F000022431A430280828B22F400628283098A50
:103F1000018230BDF0B505460C4602200021AA8B77
:103F200085B001264FF240031A40AA832884AF8B44
:103F3000A268022A21D0A08800B102266846FFF7B5
:103F40000FFFE1880098B1F5007F2CD07101B0FB24
:103F5000F1F000EB8000A1684000B0FBF1F0401DE3
:103F600080B20A21B0FBF1F000F00101401A4FF6D7
:103F7000FF72C0F34F0002EA0121821EFE2A01D324
:103F800002200021E288084302432A8420886188B5
:103F9000A2890843A18811430843384340F40060D4
:103FA000A88305B0F0BD000AD3E70021018041805D
:103FB0008180C180018141818181C181072101828C
:103FC00070470021018041808180C180022282608F
:103FD000818170470029018802D041F0400101E051
:103FE00021F04001018070470029818B02D041F40B
:103FF000806101E021F48061818370470909012318
:104000008B40002A828899B201D00A4300E08A439B
:1040100082807047002A828801D00A4300E08A43E8
:10402000828070478181704780897047A1F57E4208
:104030000188FF3A02D041F4807101E021F48071DF
:10404000018070470029818802D041F0040101E01D
:1040500021F0040181807047028822F4006202800E
:1040600002880A4302807047018841F48051018030
:1040700070470029018802D041F4005101E021F489
:10408000005101807047012901D0008B7047808A60
:104090007047008A7047B1F5804F018803D021F442
:1040A00080410180704741F48041FAE702460020D8
:1040B00012890A4200D001207047C943018170472C
:1040C00030B501F00F030125024605FA03F4002084
:1040D000A3B2090905FA01F49188A4B2128921401A
:1040E0001A4202D0002900D0012030BD01F00F0299
:1040F00001219140C9430181704700000030014017
:1041000000380040003C0040F94910B5884202D117
:104110000121C41486E0B0F1804F09D0F5498842EE
:104120000DD101210220FFF781FE0021022064E071
:1041300001210846FFF77AFE002101205DE0EE49EB
:10414000884206D101210420FFF770FE00210420DF
:1041500053E0EA49884206D101210820FFF766FEB4
:104160000021082049E0E649884206D101211020BB
:10417000FFF75CFE002110203FE0E249884206D1B3
:1041800001212020FFF752FE0021202035E0DE49EA
:10419000884202D10121441444E0DC49884202D122
:1041A0000121CC043EE0DA49884202D101210C050C
:1041B00038E0D849884202D101214C0532E0D64985
:1041C000884206D101214020FFF730FE0021402027
:1041D00013E0D249884206D101218020FFF726FE54
:1041E0000021802009E0CE4988420AD184150121AE
:1041F0002046FFF71BFE00212046BDE81040FFF7D8
:1042000015BEC849884202D101210C040AE0C64902
:10421000884202D101214C0404E0C44988420AD1F9
:1042200001218C042046FFF7F8FD2046BDE8104030
:104230000021FFF7F2BD10BD30B50288AC4CB24D85
:10424000A0420DD0A8420BD0B0F1804F08D0A94BAE
:10425000984205D0A84B984202D0A84B984203D16F
:1042600022F070034A881A43A54B984206D0A54B0A
:10427000984203D022F44073CA881A4302808A8885
:1042800082850A880285A0420AD0A84208D0A54AA1
:10429000904205D0A44A904202D0A44A904201D153
:1042A000097A01860121818230BD30B5028C22F06D
:1042B00001020284028C8388048B22F0020224F023
:1042C00073050C882C430D8915434A882A43884D71
:1042D000A8420BD08C4DA84208D0924DA84205D0E0
:1042E000914DA84202D0914DA8420DD122F008056F
:1042F0004A8923F440732A4322F004058A882A431A
:104300008D891D43CB892B4383800483C988818693
:10431000028430BD70B5028C22F010020284028C3F
:104320008388048B0D8824F4E6464FF6FF7404EA74
:10433000052535430E8922F0200204EA06161643AD
:104340004A8804EA02123243694EB04202D06E4EED
:10435000B04215D122F080064A8923F4406304EA72
:104360000212324322F040068A8804EA02123243E3
:104370008E8904EA86061E43CB8904EA830333430D
:1043800083800583C9880187028470BD70B5028C63
:1043900022F480720284028C8388848B0D8824F03E
:1043A000730425430E894FF6FF7422F4007204EA69
:1043B000062616434A8804EA022232434C4EB04293
:1043C00002D0514EB04215D122F400664A8923F43E
:1043D000405304EA0222324322F480668A8804EAC7
:1043E000022232438E8904EA06161E43CB8904EA70
:1043F0000313334383808583C9888187028470BD1A
:1044000070B5028C22F480520284058C8288838BE2
:104410000C8823F4E6464FF6FF7303EA0424344382
:1044200025F400560D8903EA053535434E8803EA25
:1044300006362E432E4DA84202D0334DA84205D158
:1044400022F480458A8903EA82122A438280848387
:10445000C988A0F84010068470BD828B22F44062A7
:104460008283828B4FF6FF7303EA01210A43828322
:104470007047828B22F00C028283828B0A438283F4
:104480007047028B22F440620283028B4FF6FF7367
:1044900003EA01210A4302837047F0B5048C24F03B
:1044A00010040484078B048C4FF6FF7527F47347C0
:1044B00005EA03333B4305EA02221A430C4B05EAA3
:1044C000011698420ED0104B98420BD0B0F1804F9D
:1044D00008D0084B984205D0074B984202D0074BB2
:1044E000984225D124F02001314341F0100124E00D
:1044F000002C01400004004000080040000C004077
:10450000001000400014004000340140004C014005
:10451000005001400054014000180040001C0040C1
:10452000002000400040014000440140004801409C
:1045300024F0A0030B4343F0100102830184F0BD7B
:10454000028B22F00C020283028B0A430283704723
:1045500070B5048C24F001040484058B048C4FF6A0
:10456000FF7606EA0313134325F0F305F84A2B43BD
:1045700090420ED0F74A90420BD0B0F1804F08D055
:10458000F54A904205D0F54A904202D0F44A904252
:1045900002D124F0020201E024F00A020A4342F0B0
:1045A00001010383018470BD2DE9F84F0D460446D7
:1045B0000888E74FDFF89CC3DFF89C83DFF89C9303
:1045C0004988AA882B894FF0804A48B304282FD005
:1045D0004FF6FF760828934632D0208C9E4620F472
:1045E00080502084A38B208C06EA0132009223F4B1
:1045F000734306EA0B221A4306EA0E331343BC4206
:104600000AD0644508D0544506D0444504D04C45F2
:1046100002D0D34A944242D120F40050009940E0A5
:104620002046FFF795FFE9882046BDE8F84F87E769
:104630002046FFF732FFE9882046BDE8F84F20E723
:10464000208C20F480702084B4F81CE0208C06EAD2
:10465000031306EA01222EF0F30E43EA0B0343EAAA
:104660000E030092BC420AD0644508D0544506D0DF
:10467000444504D04C4502D0B94A944203D120F4B9
:104680000070009901E020F42060084340F480703D
:10469000A3832084E9882046BDE8F84FE9E620F4AA
:1046A0000240084340F48050A3832084E9882046D8
:1046B000BDE8F84FD1E62DE9F0410C4600264988C7
:1046C0000746012501B90226A288012A00D1022548
:1046D000208823890028384610D0FFF7DEFEE188C5
:1046E0003846FFF7CEFE23892A4631463846FFF783
:1046F0002FFFE1883846BDE8F04121E7FFF728FFAA
:10470000E1883846FFF71CFF23892A4631463846A0
:10471000FFF7C3FEE1883846BDE8F041B1E610B5C9
:104720000A884B88CC881A438B8823431A430B8909
:104730001A434B8989891A430A43A0F8442010BDC3
:104740004FF6FF71818000210180C180418001729C
:1047500070470021018041808180C18001814181B9
:104760008181C181704700210180418001228280C6
:10477000C180018170470021018041808180C1801A
:1047800001814181818170470029018802D041F077
:10479000010101E021F0010101807047002930F89A
:1047A000441F02D041F4004101E0C1F30E01018039
:1047B0007047002A828901D00A4300E08A4382813F
:1047C0007047818270471143A0F848107047002A53
:1047D000828901D00A4300E08A43828170470189BF
:1047E00021F0070101817047028922F070020A431B
:1047F0000281704700B50346FFF7F6FF188940F0C5
:104800000700188100BD70B516460D4660290446A4
:104810004FF0010231460AD0FFF79AFE29462046A2
:10482000FFF7E2FF208940F00700208170BDFFF70D
:1048300034FEF3E730B504894FF6FF7505EA03232C
:104840001343E4B20B432343038130BD10B5044648
:10485000FFF7F0FF208940F07700208110BD10B5F0
:104860000446FFF7E7FF208940F48040208110BD17
:10487000018582827047028822F070020A4302801A
:10488000704770B50589048B068C25F007050D432C
:104890004FF6FC410C4040F201110C434FF6FF7102
:1048A00001EA031126F022061143314305810483F6
:1048B000018470BD028B22F070020A4302837047AC
:1048C000028B4FF6FF7322F4E04203EA0121114309
:1048D00001837047828B22F070020A438283704703
:1048E000828B4FF6FF7322F4E04203EA0121114369
:1048F000818370470029018802D041F0800101E0E6
:1049000021F08001018070470029818802D041F0A8
:10491000040101E021F004018180704700298188B1
:1049200002D041F0080101E021F0080181807047C8
:104930000029818802D041F0010101E021F001014C
:1049400081807047028B22F008020A43028370477D
:10495000002C0140003401400004004000080040E9
:10496000000C0040028B4FF6FF7322F4006203EA52
:10497000012111430183EAE7828B22F008020A43F6
:104980008283E4E7828B4FF6FF7322F4006203EA2E
:10499000012111438183DAE7028B22F004020A43EA
:1049A0000283D4E7028B4FF6FF7322F4806203EA9E
:1049B000012111430183CAE7828B22F004020A43DA
:1049C0008283C4E7828B4FF6FF7322F4806203EA8E
:1049D000012111438183BAE7028B22F080020A434E
:1049E0000283B4E7028B4FF6FF73C2F30E0203EAB1
:1049F000012111430183AAE7828B22F080020A433E
:104A00008283A4E7828B4FF6FF73C2F30E0203EAA0
:104A10000121114381839AE7028C22F002020A43AA
:104A2000028494E7028C22F008020A4302848EE793
:104A3000028C4FF6FF7322F0200203EA01111143AA
:104A4000018484E7028C4FF6FF7322F0800203EAB0
:104A50000111114301847AE7028C4FF6FF7322F4AF
:104A6000007203EA01211143018470E7028C4FF6C2
:104A7000FF7322F4006203EA01211143018466E717
:104A8000028C4FF6FF7322F4005203EA0131114306
:104A900001845CE710B50123048C8B409C430484A3
:104AA000038C8A401343038410BD10B50423048C87
:104AB0008B409C430484038C8A401343038410BDC1
:104AC00030B50124058C00F118038C40A543058402
:104AD00089B108290FD0091FC1F34E00184401689D
:104AE00021F4E041016001684FF6FF7303EA0222FE
:104AF0001143016030BD03EB5100016821F07001EA
:104B000001600168F4E70029018802D041F0020148
:104B100001E021F00201018019E70029018802D09B
:104B200041F0040101E021F0040101800FE70029B8
:104B3000818802D041F0800101E021F08001818074
:104B400005E7028822F00802028002880A430280F8
:104B5000FDE6828822F07002828082880A43828089
:104B6000F5E6028922F00702028102890A430281E6
:104B7000EDE6028922F08002028102890A43028165
:104B8000E5E68184E3E68185E1E68186DFE601876B
:104B9000DDE68187DBE6A0F84010D8E6028822F443
:104BA0004072028002880A430280D0E6808ECEE600
:104BB000008FCCE6808FCAE6B0F84000C7E6808C54
:104BC000C5E6008DC3E602460020128A0A4200D0E4
:104BD0000120BCE6C9430182B9E602460020138ADF
:104BE00092890B4202EA010202D0002A00D0012081
:104BF000ADE6C9430182AAE628490843284908606E
:104C0000704730B50F23C27801780125F2B1244AEC
:104C1000126801F1E02102F4E062C2F5E062120ADA
:104C2000C2F10404D3404278A24084781C4014436B
:104C3000220181F80024007800F01F018D40400916
:104C4000800000F1E020C0F8005130BD01F01F00ED
:104C500085404809800000F1E020C0F8805130BD57
:104C6000104A114001430E48001F016070470C4A72
:104C7000121D0029116801D0014300E08143116039
:104C800070474FF0E0210428086903D020F00400A9
:104C90000861704740F00400FAE700000000FA05E0
:104CA0000CED00E080FFFF1F374900200860091D60
:104CB0000860091D0860091D086033493348143134
:104CC0000860704730B5304A8379016853B3136880
:104CD0008B431360111D0B680468A3430B600179BB
:104CE00011440B68046823430B60274B0833196891
:104CF0000468A14319601C1D21680568A94321604F
:104D00004179102905D011440A68006802430A60FD
:104D100030BD1968026811431960216800680143B9
:104D2000216030BD0079104402688A43026030BDC2
:104D30000021016001710C2242718171704712499A
:104D400010310A6802430A60704701460E4A00208B
:104D5000143212680A4200D0012070470A49143107
:104D600008607047084A014600201268064B0A4056
:104D700014331B680B4202D0002A00D00120704778
:104D8000014914310860704700040140FFFF0F0023
:104D90008F4910B5884206D101210420FFF73DF864
:104DA000002104203BE08B49884206D101210820E4
:104DB000FFF733F80021082031E08749884206D107
:104DC00001211020FFF729F80021102027E0834956
:104DD000884206D101212020FFF71FF80021202062
:104DE0001DE07F49884206D101214020FFF715F8D8
:104DF0000021402013E07B49884206D10121802018
:104E0000FFF70BF80021802009E0774988420AD19A
:104E1000841501212046FFF700F800212046BDE857
:104E20001040FEF7FABF10BD10B501210846FEF78D
:104E3000F4FF0021BDE810400120FEF7EEBFF0B501
:104E4000CC78002204F00F03E40601D58C782343CC
:104E50000C784FF00F0C14F0FF0F4FF0010E1BD029
:104E600005680E880EFA02F42640A64210D196007C
:104E70000CFA06F725EA070703FA06F5CE783D4354
:104E8000282E02D0482E02D002E0446100E00461E6
:104E9000521C082AE5D305600A88FF2A1CD94468F9
:104EA000002202F108060EFA06F50E882E40AE42E8
:104EB0000ED196000CFA06F7BC4303FA06F7CE783B
:104EC0003C43282E00D14561CE78482E00D10561A3
:104ED000521C082AE5D34460F0BD4FF6FF710180F3
:104EE000022181700421C17070470246002092683F
:104EF0000A4200D001207047806880B270470246A5
:104F00000020D2680A4200D001207047C06880B2F9
:104F1000704701617047416170470AB10161704794
:104F200041617047C160704741F4803282618161A4
:104F300082618169806970472C4B10B51A684FF601
:104F40008074224042EA00100843186010BD2849CE
:104F5000C8617047F0B5254C002801DAE36900E02C
:104F60006368450D2E0185B2C0F30157B540C0F30B
:104F70000342032F05D0C6020AD503269640B34349
:104F800007E023F07062636823F07063636002E0FF
:104F9000AB4343F0706201B12A43002801DAE261B9
:104FA000F0BD6260F0BD10B58A0721F003040F491F
:104FB000120F21440F238C6893409C438C608B68B4
:104FC000904003438B6010BD0949C1F8DC00704775
:104FD00000080140000C0140001001400014014095
:104FE00000180140001C0140002001400000014069
:104FF000000020420648804706480047FEE7FEE7DB
:10500000FEE7FEE7FEE7FEE7FEE7FEE7FEE7FEE778
:10501000413A0008ED300008FD4A116801F03801FE
:10502000014311607047FA490A6822F008020A60D9
:105030000A6802430A607047F5490A6822F01002C4
:105040000A600A6802430A607047F148F14941600A
:10505000F14941607047EE48EE494160EE494160D8
:105060007047EB48016941F0800101617047E848F1
:10507000016941F0800101617047E5490420CA6877
:10508000D20701D001207047CA68520701D502201B
:105090007047C968C906FBD50320704700B50346B1
:1050A000FFF7EBFF02E0FFF7E8FF5B1E012803D0EC
:1050B000002B00D1052000BD002BF4D1FAE770B51C
:1050C00005464FF430263046FFF7E8FF042811D19B
:1050D000CF4C206940F0020020616561206940F0FA
:1050E000400020613046FFF7D9FF216941F6FD728B
:1050F0001140216170BD30B54FF430252846FFF7CF
:10510000CDFF042810D1C24C206940F0040020617A
:10511000206940F0400020612846FFF7BFFF216969
:1051200041F6FB721140216130BD00B50346FFF727
:10513000A4FF02E0FFF7A1FF5B1E012803D0002BB4
:1051400000D1052000BD002BF4D1FAE730B54FF4B3
:1051500030252846FFF7E9FF042810D1AC4C206920
:1051600040F004002061206940F0400020612846A2
:10517000FFF7DBFF216941F6FB721140216130BD71
:10518000A3490020C969890700D50120704770B57F
:10519000A525FFF7F5FF00B100254FF43026304676
:1051A000FFF77CFF042827D1994C9A48A0609A48C1
:1051B000A060206940F020002061206940F040009C
:1051C00020613046FFF76AFF41F6EF7604280ED1E2
:1051D000206941F6DF7108402061206940F010002D
:1051E00020618E4805804FF40050FFF757FF0528D7
:1051F00002D021693140216170BDF8B5064600201A
:105200004FF4005C00900D466046FFF747FF04280E
:1052100016D17F4C206940F0010020613580604646
:10522000FFF73CFF41F6FE77042806D1B61C280C98
:10523000009630806046FFF731FF216939402161D7
:10524000F8BDF0B506464FF400570D463846FFF757
:1052500025FF04280CD16E4C206940F0010020612C
:1052600035803846FFF71AFF2169BA1E11402161C7
:10527000F0BDF0B506464FF400570D463846FFF72F
:105280000DFF042813D1624C6248A0606248A06000
:10529000206940F01000206135803846FFF7FEFE9F
:1052A000052804D0216941F6EF7211402161F0BD5B
:1052B0002DE9F041C043C7B2C0F30726C0F307454C
:1052C000040E4FF400584046FFF7E8FE04283CD196
:1052D000DFF83CC14F49CCF808104F49CCF8081012
:1052E000DCF8101041F01001CCF81010FF2F07D09F
:1052F0004A48083007804046FFF7D0FE04281BD1FB
:10530000FF2E07D045480A3006804046FFF7C6FE0C
:10531000042811D1FF2D07D040480C3005804046AD
:10532000FFF7BCFE042807D1FF2C07D03B480E3006
:1053300004804046FFF7B2FE052806D0DCF81010C6
:1053400041F6EF721140CCF81010BDE8F08170B555
:1053500005464FF430263046FFF7A0FE042818D14A
:105360002B4C2C48A0602C48A060206940F0200005
:105370002061206940F0400020613046FFF78EFE3A
:1053800041F6DF71042805D0052802D022690A40C1
:10539000226170BD206908402061206940F0100042
:1053A00020611E480DB1002100E0A521018030469A
:1053B000FFF774FE0528ECD0216941F6EF72114029
:1053C000216170BDF0B5124C0746124816460D46D5
:1053D000A0601148A0604FF4005C6046FFF75EFEDD
:1053E000042814D1206940F01000206135430B4996
:1053F0003D43891C45F0F80008806046FFF74EFEEB
:10540000052804D0216941F6EF7211402161F0BDF9
:105410000020024023016745AB89EFCD00F8FF1F54
:105420001C48C069800870471A48006A70471949CB
:1054300000200968890600D501207047154A002917
:10544000116901D0014300E08143116170470146B9
:105450000020104A012903D0D2680A4203D17047C4
:10546000D169C907FBD0012070470A49C86070475D
:1054700008490420CA68D20701D001207047CA68D1
:10548000520701D502207047C968C906FBD5032021
:105490007047000000200240314910B54A7882422E
:1054A0001FD04870002000F0E3F82E4C20684178AF
:1054B00041F080014170012000F09DF8012000F0D2
:1054C000D7F821680020022201F83D0F48704020E3
:1054D00000F074F86F22BDE810402349012000F06D
:1054E00090B810BD10B5012000F05EF8642002F005
:1054F0008FFF002000F058F8BDE81040642002F053
:1055000087BF1948174910B5401E086000F02EF8F3
:10551000FFF7E8FF0120FFF7BFFFBDE8104000F0F4
:10552000C8B80F480078704700F0A2B800F011B971
:1055300000F026B900F019B900F03EB900F03FB90B
:1055400000F041B9FEE7012000F041B900F046B992
:1055500000F04CB900F055B900F039B900F054B979
:105560003C00002050000020FA080020F8B501217E
:105570000420FEF740FC0820ADF8000010243B4E4C
:105580008DF8034003258DF8025069463046FFF739
:1055900056FCADF800408DF803408DF80250694686
:1055A0003046FFF74CFCF8BD304A01284FF00801A7
:1055B000104601D0FFF7ADBCFFF7ADBC2DE9F041BF
:1055C0002A4F0E460446154610213846FFF7A3FC25
:1055D00044F08000FEF762F9002404E0305DFEF73D
:1055E0005DF9641CE4B2AC42F8D33846BDE8F04142
:1055F0001021FFF78EBC13B5012201A9FFF7DEFFD2
:105600001CBD2DE9F041194F0E46044615461021E8
:105610003846FFF780FC04F07F00FEF73FF90024D6
:1056200005E00020FEF73AF93055641CE4B2AC42C4
:10563000F7D33846BDE8F0411021FFF76ABC0122DC
:10564000DFE70A4601460020B8E70A460146002087
:10565000D7E70020704700207047002070470020E7
:1056600070470020704700207047704700080140D5
:1056700030B4F84D00212C69637823F0F802AA7049
:1056800090420ED0032800D10121EA78914200D047
:10569000E97003F0F8010143617030BC0120FFF7AD
:1056A000AABF30BC7047EB48016942203F31FFF789
:1056B000C6BF70B5E74C00202070FFF7F4FFE64D41
:1056C0006F22691C0120FFF79CFF216920206F22B7
:1056D0000873691C0120FFF771FF2034206800F077
:1056E000AFFAA07900F080FBE07900F0AFFB207A00
:1056F00000F0D0FB607900F042FB607A00F00DFC16
:1057000040F2FF3000F0EDFC207E00F05AFC01205A
:1057100000F011FD802000F0A4FC012000F06BFCE3
:105720001420207100F0C0FABDE8704001209FE70E
:1057300010B50120FFF738FF4FF47A74204602F0CD
:1057400067FE0020FFF730FF2046BDE8104002F062
:105750005FBE10B5BF4C01202169491CFFF76FFFE8
:105760002069407820F0F80010BD10B5B94C0C202D
:1057700021690C31FFF763FF2069007B400910BDF0
:1057800010B5B44C1B2021691B31FFF758FF04F101
:105790002000B249006888422069C07E04D203F02C
:1057A000A4FB0022AE4B03E003F09FFBAD4B0022B5
:1057B000BDE8104003F000BAA64840787047A548FD
:1057C00090F904007047A349D1E906017047A14947
:1057D000087070479F490120087070479D4BDA8818
:1057E0000A800021D980A04903F0C2B910B5994CB4
:1057F0000A46218101469C4803F0BAF90520207031
:1058000010BD9448007870472DE9FC47914C012564
:10581000DFF85892207800264FF0020AA84604F1DB
:1058200020070B287ED2DFE800F07D064C96FDFCB9
:10583000FBFA7DF9F8000120FFF71AFF20699D218E
:1058400041741120FFF7D7FEF87A012826D020698D
:1058500080F82460206990F824102420FFF7CBFE04
:1058600021690222402001F83D6F4E70FFF7A6FE2D
:10587000B87A012823D02069C17B41730D20FFF73E
:10588000BAFE0520FFF7F4FE4FF48071764803F06E
:1058900088F97869C4F80C8060616CE02169387B14
:1058A00081F824001C201C31FFF7C9FE2069007F0D
:1058B00000F03F0159F8210000F0C2F9CAE70620C4
:1058C000E0E769461220FFF7BAFE9DF800004006A7
:1058D00017D5C4F80C80F87A01280CD121691C2056
:1058E0001C31FFF7ACFE2069007F00F03F0159F842
:1058F000210000F0A5F940211220FFF77CFE0320D3
:1059000020709DF8000080071AD5C4F80C80F87A42
:1059100001280ED121691C201C31FFF790FE20695F
:10592000007F00E029E000F03F0159F8210000F07D
:1059300087F902211220FFF75EFEFFF716FF607065
:10594000B87A012819D1E0686169C0F10100884284
:1059500013D90420FBE0216912201231FFF76FFEFA
:105960002069807C80060CD520211220FFF743FEA1
:10597000B87A012802D084F800A05AE184F80080A7
:1059800057E101A91920FFF75AFE9DF8040001060E
:1059900005D5C043401CC0F38500404200E08008AC
:1059A000207121691A201A31FFF749FE2B49386806
:1059B0002F4D88422F4E94F904005DD2DFF8A0905D
:1059C0005CE003F081FA054620690E46807E03F014
:1059D0008CFA00224B4603F0EFF82A46334609E0E2
:1059E0002069807E03F081FA2A46334603F08BF962
:1059F00000224B4603F0E0F8C4E90601B87A01281A
:105A00003FD0216910201031FFF719FE787A012864
:105A10004DD021691320133105E0F0E0D9E0D2E048
:105A2000AAE058E053E0FFF70AFE2069C17CE1805C
:105A3000017C41730D20FFF7DEFD2069C17C0A481F
:105A4000FFF703FEB87A01283ED084F800A00225B3
:105A5000EFE0000040000020F9080020008F4233F2
:105A6000008064C000A063C069090020989000080D
:105A70001B9E5E29CB10F13FDFF8BC910028AFDA06
:105A80009FE72069C17B41730D20FFF7B4FD787A51
:105A9000012808D0216913201331FFF7D0FD2069B8
:105AA000C17CE180CBE7206990F82210F9E72069FA
:105AB00090F82210E180017C41730D20FFF79BFDDF
:105AC000206990F82210BAE784F80080BFE784F8D4
:105AD00000800325ADE00120FFF7CAFDF87A012818
:105AE00037D02069F721417480F82460206990F84C
:105AF00024102420FFF77FFD2069417C1120FFF74F
:105B00007AFD2069217A80F822102220FFF773FDA8
:105B10002069314686730E20FFF76DFD2069817B79
:105B200041730D20FFF767FD206990F8221043486C
:105B3000FFF787FD21694120022201F83D0F402037
:105B40004870FFF73BFD0320FFF792FD0620207011
:105B50006FE02169F5204874387B81F824001C200F
:105B60001C31FFF76CFD2069007F00F03F0159F800
:105B7000210000F065F8B9E769461220FFF75FFDE4
:105B80009DF80000000705D508211220FFF733FD1E
:105B9000072020709DF8000080074AD5F87A012878
:105BA0000CD121691C201C31FFF749FD2069007FC1
:105BB00000F03F0159F8210000F042F802211220C4
:105BC000FFF719FD35E00120FFF752FD267004258F
:105BD0002FE00120FFF74CFD2069FA2141741120CC
:105BE000FFF709FD21690222402001F83D6F4E7048
:105BF000FFF7E4FC0720FFF73BFD0A20A7E7694613
:105C00001220FFF71CFD9DF80000400711D504216C
:105C10001220FFF7F0FC9DF80000C00707D001211B
:105C20001220FFF7E8FC84F80080082501E02670C8
:105C300007252846BDE8FC8700A063C0690900204D
:105C4000FC4910B5086003F050F90022FA4B03F04C
:105C5000CCF803F057F9F949020C096801F8062F4E
:105C6000020A4A7088700322BDE810400620FFF740
:105C7000A5BC10B5F14C032206202168891DFFF751
:105C8000C0FC2168EB4C8879CA790004097A40EAA3
:105C90000220084303F029F90022E74B03F033F810
:105CA00003F030F9206010BD70B5E44D04460920C2
:105CB00029680931FFF7C3FC29684D204931FFF7F6
:105CC000BEFC2868417A0A0628D590F84930872218
:105CD0009A4303D0022C0EDA02240FE0052C01DADD
:105CE000052402E0142C00DD142401F0F00141F041
:105CF0007001621F07E0112C00DD112401F0F0019A
:105D000041F07001A21E02F00F0211434172C9B2AC
:105D10000920FFF770FCC748047170BD4FF0FF32D7
:105D2000944201DA144602E00E2C00DD0E2401F04C
:105D3000F00141F07001621CE5E710B5BF4C09208D
:105D400021680931FFF77BFC21684D204931FFF7BD
:105D500076FC2168B74A487A03060CD591F84910B9
:105D600020F0F000C943490703D0801C107140B2F5
:105D700010BD401DFAE720F0F000401EF6E770B5B8
:105D8000AE4D04461D2029681D31FFF758FC2A68D6
:105D9000507F64F31F10C1B251771D20FFF72BFC19
:105DA000A448447170BD10B5A44C1D2021681D315C
:105DB000FFF745FC20689F49407F0009487110BDEE
:105DC00070B59E4D0446312029683031FFF737FC0D
:105DD0002A6812F8300F00F0F80121431170BDE875
:105DE00070403120FFF707BC70B504460C2801D97C
:105DF0000C2408E0062C02D24FF0060400E002D189
:105E00004FF0050001E04FF00300FFF7D9FF8B4D85
:105E10001E2029681E31FFF712FC2868817F64F379
:105E20001F11C9B281771E20FFF7E5FB81488471FD
:105E300070BD10B5814C1E2021681E31FFF7FFFB9D
:105E400020687C49807F0009887110BD70B57B4D4A
:105E500004461D2029681D31FFF7F1FB2A68507F99
:105E600000F0F10040EA4400C1B251771D20FFF775
:105E7000C2FB7048C47170BD10B5704C1D20216804
:105E80001D31FFF7DCFB20686A49407FC0F3420008
:105E9000C87110BD70B5694D04461E2029681E31B9
:105EA000FFF7CDFB2A68907F00F0FB0040EA8401F9
:105EB00091771E20FFF79FFB5E48047270BD70B59E
:105EC0005E4D04460222296820202031FFF799FB0D
:105ED0002968200A022201F8200F20204C70BDE81A
:105EE0007040FFF76BBB10B5544C02222020216894
:105EF0002031FFF786FB2068008C40BA10BD10B53A
:105F00004E4C1E2021681E31FFF799FB206849493D
:105F1000807FC0F38000087210BD70B5474D044605
:105F20001D2029681D31FFF78AFB2A68507F00F089
:105F3000FE01214351771D20FFF75DFB3D48447270
:105F400070BD10B53D4C1D2021681D31FFF777FB5A
:105F500020683849407F00F00100487210BD354983
:105F6000887270473348807A70473249C8727047E8
:105F70003048C07A7047314910B50968044681F845
:105F8000240001462420FFF736FB2A48047310BD85
:105F900010B52A4C242021682431FFF750FB2068DB
:105FA000244990F82400087310BD22490861704705
:105FB0002048006970471F49486170471D48406983
:105FC00070471E4910B50968044681F82200014651
:105FD0002220FFF710FB1748047610BD10B5174CB0
:105FE000222021682231FFF72AFB2068114990F80E
:105FF0002200087610BD70B5104C05464D20216872
:106000004931FFF71CFB216809200931FFF717FB15
:106010002168487A00060AD515B1872081F8490021
:1060200091F84910BDE870404D20FFF7E4BA842094
:10603000F4E700006000002080844E405000002003
:1060400010B5544C4D2021684931FFF7F8FA20680B
:1060500090F84900C043400701D0002010BD012046
:1060600010BD70B54B4D0446092029680931FFF772
:10607000E6FA2A68507A00F07F0121435172BDE8A8
:1060800070400920FFF7B7BA10B5424C09202168CB
:106090000931FFF7D4FA2068407A20F07F0010BD64
:1060A00070B53C4D04460A2029680A31FFF7C7FA4B
:1060B0002A68907A00F0F00124F0F0000143917218
:1060C000BDE870400A20FFF796BA10B5314C0A209F
:1060D00021680A31FFF7B3FA2068807A20F0F000D7
:1060E00010BD70B52B4D0446022229681E201E31BA
:1060F000FFF787FA2968032202EA142211F81E0F1B
:1061000000F0FC00104308704C70BDE870400222A3
:106110001E20FFF753BA10B51E4C02221E20216824
:106120001E31FFF76EFA2068C17F807F20F0FC00EF
:1061300041EA002010BD70B5164C054626202168A6
:106140002631FFF77CFA226812F8260F00F0F700DC
:1061500040EAC5011170BDE870402620FFF74BBA38
:1061600010B50C4C262021682631FFF768FA20680C
:1061700090F82600C0F3C00010BD10B5054C3120CA
:1061800021683031FFF75BFA206890F8300000F0AA
:10619000070010BD50000020EFF3108072B670476A
:1061A00080F3108870471D484FF0FF0101700020F8
:1061B00080F309881A48012101701A484FF0805174
:1061C000016062B6FEE717484FF0805101607047EA
:1061D00014484FF080510160704772B6EFF30980A8
:1061E00028B1203880E8F00F0F490968086000B531
:1061F0000E4880475DF804EB0D480E490A7802709E
:1062000009480D490A680260106890E8F00F2030D4
:1062100080F309884EF0040E62B6704722ED00E06C
:106220008700002004ED00E0A0000020C16200080B
:106230008400002085000020A800002027490020BD
:1062400008807047704770477047704770474FF03D
:1062500080731360131F1860A2F108006FF0010330
:106260000360001F4FF012330360001F4FF0033331
:106270000360001F4FF002330360001F5B100360D8
:10628000001F0160001F4FF011310160001F190154
:106290000160001F4FF009310160001FD90001604B
:1062A000001F4FF007310160001F4FF00631016001
:1062B000001F4FF0053101609900001F0160704719
:1062C0007047704705490888401C80B208806428E0
:1062D00003D30020088002F07EBB70477C000020C2
:1062E000002204E0521C00F8013BD2B2491C0B789A
:1062F000002BF7D100210170104670472DE9F041C5
:106300000E460546140006D045B14EB1FC488078D3
:1063100040B1112010E00020BDE8F08104200BE026
:106320000C2009E02878012808D0022806D003288C
:1063300004D0042802D001201070ECE7FFF72CFFF6
:10634000074605F113013046FFF7CAFF05463846F8
:10635000FFF726FF002020702846DDE701460020D9
:1063600002E0401CC0B2491C0A78002AF9D17047EB
:106370002DE9F0410E4605461400CDD02DB136B1C1
:10638000DF48807828B112200DE004200BE00C20BB
:1063900009E02878012808D0022806D0032804D074
:1063A000042802D001201070B6E7FFF7F5FE07467B
:1063B0003046FFF7D3FF0F2804D93846FFF7F0FE29
:1063C0000B2008E0314605F11300FFF789FF38463E
:1063D000FFF7E6FE002020709EE770B510F8345FEE
:1063E00084784678086809E04319DA7AB243DA72A9
:1063F00002D1827AA243827251F8040F0028F3D1AD
:1064000070BD70B5FFF7C8FEBD4C0546A07898B9C1
:10641000E07888B900F002FCBA48627950F822109E
:10642000A1622079824207D0886B401C8863E068B3
:10643000401CE060FFF7C7FE2846BDE87040FFF74C
:10644000AFBE70B5AE4D0022296AC1E907200168D0
:1064500010E02C6A01F10B0214F8343F64789E5C62
:1064600026439E542B6A8A7A93F836301A438A72EE
:1064700050F8041F0029ECD1286AA14B90F8341081
:10648000343390F835405A5CA2435A5404D190F802
:106490003610A8798843A87170BD2DE9FF5F834647
:1064A000DDF8388016460C465FEA08002BD0BBF1B9
:1064B00000014FF0040008D03CB136B14FF00009A4
:1064C0000846C4F8009009680FE088F8000019E059
:1064D0000978012907D0022905D0032903D001201A
:1064E00088F800000EE050F8041F0029F0D184481D
:1064F000817809B1022103E08148C07830B10D21D3
:1065000088F80010002004B0BDE8F09FFFF744FEBB
:10651000002382461F4619465A46DBF800503DE0EC
:106520002878012811D0022818D0032801D050461D
:1065300081E0288930B1401E288120C4012346F81B
:10654000049B24E041F0010126E0686818B101C60F
:10655000C5F8049019E041F002011DE06868B0F848
:1065600016C0BCF1000F15D0036903F1040CC0F88C
:1065700010C01B6808C6D0F808C00369634501D184
:1065800043680361C38A5B1EC38220C401237F1C4E
:10659000BFB201E041F0040152F8045F002DBFD109
:1065A000012B1FD0564841F08001006A10F8302FAF
:1065B0000A4300F8022980F80390039901805846A5
:1065C000FFF73FFF5046FFF7EBFDFFF71AFFFFF71E
:1065D000E3FD84464A48006A90F8311059B1022917
:1065E00013D108E04D465046C4F80090FFF7D8FD9F
:1065F00088F8005040E0C56925B1E4E801597F1CE6
:10660000BFB205E0012180F831105946FFF7E5FEE1
:106610003B4A116A91F8310028B10228C6F800906F
:1066200019D00A2118E0287801280FD002280DD0AF
:10663000032808D06046FFF7B3FD0120C4F800909E
:1066400088F8000018E0C6F8009001E0486A306061
:1066500088F8009002E00E2188F80010106A80F897
:10666000309080F8319040F81C9FC0F80490C0F83A
:1066700008906046FFF794FD384644E77CB5214D0D
:1066800000246946204601F000FE58B955F8241050
:1066900041B1012906D0D1E9020200EB8200486431
:1066A00001988864641CE4B23F2CEAD97CBD144C88
:1066B00002E0C82001F0ACFE60780028F9D0642127
:1066C00060690025B0FBF1F0606118B92570FF200A
:1066D00001F01AFEFFF760FDE169C4E90615FFF756
:1066E0005FFDD4E90510B0FBF1F0C0F1640020704B
:1066F000FFF7ACFDFFF7C2FF642001F089FEE9E778
:1067000080000020D40F0020FB4CFFF745FDE1691D
:10671000491CE161FFF744FDFFF797FDF5E7002213
:1067200003E0491E00F8012B89B20029F9D1704716
:1067300070B586B0FFF782FDEF4B00241C639C70A0
:10674000DC701C72DC71DC60DC619C615C615C7023
:106750009C7103F134012046401CC0B201F8014B8A
:106760000828F9D31C715C719C624FF4CF61E34837
:106770001C62FFF7D4FF4FF48071E148FFF7CFFFB1
:10678000DE48002200F15C013F25416180F84C5059
:1067900080F84D40521CD2B25C305C31112AF4D3E7
:1067A000446180F84C5080F84D40D448DC62586217
:1067B0004FF4B471A0F5CD60FFF7B1FFD1480022CE
:1067C00000F1240100F8044B521C40F80F1B92B258
:1067D00000F8015B243100F8104B092AF2D3047051
:1067E0004460C5740475C748186100F0FAFC00F0F5
:1067F000FFFD01F0B8F88026C348CDE90106C04A84
:1068000003254FF6FF703F23121F00210090AFF2C7
:106810000710CDE9034501F064FB05AABBA13F20A9
:1068200001F0B2FCBD48CDE90106B74A4FF6FE7053
:106830003E23121F00210090AFF28D10CDE90345D9
:1068400001F04FFB05AAB6A13E2001F09DFC02F02D
:10685000FBF806B0BDE87040FFF7F4BCA649C87964
:10686000012804D18878FF2801D2401C8870704725
:1068700070B5A14CE079012822D1FFF78DFCA178F9
:10688000054621B1491E11F0FF00A07013D1E07838
:1068900088B900F0C3F99A49607951F82010A162D3
:1068A0002279904207D0886B401C8863E068401CC6
:1068B000E060FFF78DFC2846BDE87040FFF770BC34
:1068C00070BD10B58C4CE07901280CD1FFF764FC49
:1068D000A17821B9E178FF2901D2491CE170BDE816
:1068E0001040FFF75DBC10BD10B5834CE079012866
:1068F00013D1FFF751FCE17831B1491E11F0FF01CE
:10690000E17001D1A17819B1BDE81040FFF748BC92
:10691000FFF746FCBDE8104073E510BD10B5764C9E
:10692000E07900280CD100F079F960797449207180
:1069300051F82000A0622062BDE81040FFF733BC90
:1069400010BD10B5022001F063FDFFF725FC6A4C75
:106950000021E161FFF724FC642001F059FDFFF7FD
:106960001BFCE169616101216170BDE81040FFF726
:1069700017BC2DE9F041FFF7A5FCFFF70DFC5E4DBC
:10698000296B491C2963FFF70BFCE87901283DD1ED
:10699000687A0126002720B1012837D0022802D0CA
:1069A0006F72EC6A2EE06E72FBE7FFF7F5FBE18D8C
:1069B00029B3491E0904090CE18520D194F830104F
:1069C00011F0370F06D021F0370184F8301084F829
:1069D000316001E084F8317094F8301009070ED46A
:1069E00094F83610AA79444B1143A97194F83410E5
:1069F000343394F835C05A5C42EA0C025A54646944
:106A0000FFF7CEFB94F832003F28CED184E44FF458
:106A10008F707047704710B590F8342090F835406B
:106A20008B18DA7AA243DA7204D18A7A90F83600A7
:106A300082438A7210BDF0B50F460546807A3C4904
:106A4000085C2C18E47A095D01EBC001CEB22C4938
:106A500051F826400021E185676294F83010914397
:106A600084F8301084F8313009070BD4224994F8A7
:106A700036208B791A438A71343194F835300A5CA8
:106A80001A430A5429462046FFF7C5FF216A19B167
:106A90002046FFF7A2FCE5613046F0BD30B5164C4C
:106AA00000F10B02216A41F81C0F0B7E497E9D5CB0
:106AB0000D439D54216A827A91F836301A438272CE
:106AC00091F8340004F1340391F835501A5CAA436C
:106AD0001A5404D191F83610A0798843A07130BDC2
:106AE0000022827211460B30491CC9B200F8012BFA
:106AF0000829F9D37047000080000020D41000203E
:106B0000D40F00206C0A0020D40D002075432F4FB5
:106B1000532D49492049646C65000000D40B0020C6
:106B200075432F4F532D4949205374617400000061
:106B30006491000805E011F8013B521E00F8013B8A
:106B400092B2002AF7D1D5E72DE9F05F9846DDE94A
:106B50000ABA91460D460646FFF71EFB354F7C6A82
:106B6000002C57D0616918347962FFF719FB44F89B
:106B7000185CA676002525766576E58244F80CBC7F
:106B800044E905A90C9824F8080C24F8068CF008B0
:106B9000E5772077012306F0070103FA00F2E1769A
:106BA000A27703FA01F262776560A5602561E5606E
:106BB0002562A5626562E5623F20256384F83400A2
:106BC00084F83550183C2046FFF77BFB2046FFF742
:106BD0003AFBFFF7E1FA0146174840F82640F86A09
:106BE000C4E9050500B18461FC6294F83600BA7905
:106BF0001043B8710F4A14F8340F34326478135CC0
:106C000023431354387A401C38720846FFF7C8FAF9
:106C1000002079E4FFF7C4FA422075E40549074AE9
:106C200001F134038879105C1B5CD25C02EBC0007C
:106C300048715FE780000020D40F002064910008B5
:106C40002DE9F0410F4605461E00144605D03DB122
:106C50002878052806D0012018700020BDE8F081B2
:106C60006E20F9E714F0800002D022F080040120A9
:106C7000804600203070FFF78FFA7022FCB1012CA3
:106C800023D0022C08D0032C11D0FFF789FA00245E
:106C90006F2030702046E1E72C8921463C40BC4201
:106CA00009D01CE0A14318E0FFF77AFAF2E72C893B
:106CB00021463C4013D0B8F1000FF5D0F2E7298906
:106CC00027EA0104BC4204D009E0298937EA01041B
:106CD00005D0B8F1000FE7D021432981E4E73270F5
:106CE000E2E770B506460D0004D0F848007818B108
:106CF00010200870002070BDFFF74EFAF4490C68B0
:106D00006CB162680A6005212170268100263F214E
:106D10006660A172E672FFF743FA2E7003E0FFF798
:106D20003FFA72202870204670BDD0E9001200237F
:106D30002AB1116001B14A60806883627047C268FD
:106D400000295160F8D04B60F6E710B50246806824
:106D50000023C385818590F8301031F0200180F840
:106D6000301080F8313005D000241046FFF7DDFFE9
:106D7000204610BDD74990F836300C7823430B706D
:106D800010F8341FD44B40785C5C04435C540124FD
:106D9000EBE72DE9F05F88461500044629D02CB1B9
:106DA000CA48007820B10F20107021E06E20FBE768
:106DB0002078052801D00120F6E7FFF7EDF9666895
:106DC00081460EB1012700E00027DFF804B34FF041
:106DD000000AB8F1000F06D0B8F1010F22D0FFF77A
:106DE000DFF9072003E037B1FFF7DAF9492028700F
:106DF0002046BDE8F09F3F20A07284F80BA084F8E5
:106E000000A0DBF800106160A4F808A056464846D0
:106E1000CBF80040FFF7C4F91AE000213046FFF735
:106E200094FF3668002EF8D13F20A07284F80BA0A2
:106E300084F800A0DBF800106160A4F808A05646B2
:106E40004846CBF80040FFF7ABF90FB1FFF7D9FA8E
:106E50002E700020CDE72DE9F0410F4605461400C5
:106E600016D02DB137B19948007830B1112002E029
:106E70006E2000E00C2010700AE0FFF78DF9064646
:106E80002878052806D03046FFF78AF901202070BF
:106E90000020E3E605F10A013846FFF721FA05462E
:106EA0003046FFF77DF9002020702846D6E62DE910
:106EB000F0410F460546140006D035B13FB1834876
:106EC000007830B112201070C8E66E20FBE70C206D
:106ED000F9E7FFF761F906462878052804D030461F
:106EE000FFF75EF9012012E03846FFF737FA0F2866
:106EF00004D93046FFF754F9732008E0394605F10C
:106F00000A00FFF7EDF93046FFF74AF9002020703C
:106F1000A4E6F0B5714D059E2C6894F8307047F0EA
:106F2000200784F83070002784F83170E685A1626C
:106F30000A828B748C604268C860C1E9002742688D
:106F400002B1516041602868634B90F8341090F8AA
:106F500035405A5CA2435A5405D15E4990F8362018
:106F6000087890430870F0BD2DE9F04F87B09A463D
:106F7000109D91460F4604462DB144B15348007808
:106F800038B1022092E0002007B0BDE8F08F6E20FB
:106F90008CE05348007808B10D2087E02078052860
:106FA00001D0012082E019F0800F03D029F0800980
:106FB000012600E00026FFF7EFF806905FEA0900DF
:106FC0004FF0000B1CD001282ED0022808D0B9F1B8
:106FD000030F0ED00698FFF7E3F800206F2153E06F
:106FE000208900EA0708B84524D196B120EA0800B4
:106FF0000EE0208900EA07015FEA0108F5D119E0F7
:10700000208927EA0008B84514D116B140EA0800E3
:10701000208132490968A1F82C800698FFF7C0F852
:1070200085F800B04046AFE7208927EA00015FEA13
:107030000108EAD14B463A4601A92046CDF800A006
:10704000FFF767FF0698FFF7ABF8FFF7DAF9FFF7EE
:10705000A3F8DFF888808446D8F8000090F83170F3
:10706000A7B180F831B05C4601A8FFF75EFED8F802
:10707000000080F830406046FFF792F80020022FB1
:1070800001D00A2100E00E2129707DE7878DAEB185
:107090005FEA09000FD001280DD0022808D0B9F10D
:1070A000030F05D06046FFF77BF86F2028706AE772
:1070B0002089B84301E02089384320816046FFF7EA
:1070C0006FF885F800B038465EE7000082000020C7
:1070D000BC00002086000020B4000020A00000209A
:1070E0008300002010B5FFF757F84E4909688C8DD2
:1070F000FFF756F8204610BD2DE9F04114460E4624
:1071000005461F0028D02DB12878052804D001207D
:10711000187021E06E20FBE7FFF73EF880462CB1A7
:10712000012C06D0FFF73CF8712014E02889B04309
:1071300001E028893043288100266C6828E0A07C83
:10714000A0B1012819D0022808D003280AD040464F
:10715000FFF726F86F20387000207FE52989208A04
:10716000014007E02989208A014009E0218A2A8913
:1071700008469143884204D009E0218A2889814346
:1071800029B12046FFF7E1FD012800D1012624683E
:10719000002CD4D14046FFF703F8012E01D1FFF7B0
:1071A00030F9FEF7F9FF2C89FEF7FAFF002038705E
:1071B000204653E570B505460C0005D035B128785A
:1071C000052805D001200870002070BD6E20FAE768
:1071D000FEF7E2FF2D89FEF7E3FF0020207028462E
:1071E00070BD10B58C211048FFF799FA0E480022A7
:1071F00000F11C0113463F2400F8043B521C40F8E8
:10720000061B92B200F8014B1C3100F8113B042A16
:10721000F2D30370436084720449C3720248086069
:1072200010BD0000A00000204C170020BC00002072
:107230002DE9F0411746884606461D0020D0622001
:107240000EB1B10701D018701AE0B8F1020F01D2E7
:107250005B20F8E7042F01D25C20F4E7FEF79CFFE7
:1072600072490C680CB162680A60FEF799FF2CB194
:10727000F01932460021A8F1010308E05A202870D5
:107280000020BDE8F081106002463844491C994254
:10729000F9D3002010602660C4F810806660C4E94D
:1072A000027828702046ECE770B504460D0016D031
:1072B00074B1FEF771FF216969B16668491E3268D1
:1072C00062602161FEF76CFF00202870304670BDBF
:1072D0006020087003E0FEF763FF5D202870002047
:1072E00070BD2DE9F0410E460546140006D03DB1B3
:1072F00046B14F48007838B1112010700020C0E727
:107300006020FAE70C20F8E7FEF746FF074605F194
:1073100014013046FEF7E4FF05463846FEF740FF0D
:10732000002020702846ACE72DE9F0410E460546C6
:107330001400A6D035B13EB13D48007830B11220DE
:1073400010709EE76020FBE70C20F9E7FEF724FFB2
:1073500007463046FFF702F80F2804D93846FEF7F3
:107360001FFF632008E0314605F11400FEF7B8FF67
:107370003846FEF715FF0020207082E770B50D46F5
:1073800004000AD05DB1FEF707FFD4E903128A4278
:1073900007D3FEF705FF5E2070BD602070BD5F2043
:1073A00070BD6168296065602169491C2161FEF733
:1073B000F7FE002070BD70B50C46050014D0ACB1CE
:1073C000FEF7EAFE2968216069686160A968A1602A
:1073D000E968E16029692161FEF7E2FED4E9030171
:1073E000401A6061002070BD602070BD612070BDDA
:1073F00070B5B4210F48FFF792F90E4800210B46F3
:1074000004463F2501EBC10204EB820224324260B4
:1074100005754375491C89B224300429F2D34360B1
:10742000057543750148046070BD0000C000002070
:1074300082000020D817002070B505460C0005D04A
:1074400035B12878022805D001200870002070BDD1
:107450000420FAE7FEF7A0FE6A680346D08A70B1FE
:107460001169081D10610D68D18A491ED182916889
:10747000884201D1506810610020207002E01F2076
:10748000207000251846FEF78BFE284670BD2DE9BA
:10749000F0410646FC488846007810B10020BDE85F
:1074A000F081FEF779FEF94F3C680CB161683960F4
:1074B000FEF776FE1CB3FEF76FFEF5490D68C5B109
:1074C0002A680A60FEF76CFE06EB8800C5E90160D9
:1074D000EE602E61A5F814800020E8820221217060
:1074E00020813F216560E17420752046FFF7F8FA9E
:1074F00005E0396861603C60FEF752FE00242046DA
:10750000CDE72DE9F05F8846150004462ED02CB15A
:107510002078022804D00120107026E00420FBE728
:10752000D948007808B10F20F6E7FEF735FE074688
:10753000A07A08B1012600E000265FEA0800DFF823
:107540005093DFF848A34FF03F084FF0000B06D0F0
:1075500001282CD03846FEF723FE072004E03EB178
:107560003846FEF71DFE492028702046BDE8F09FF2
:1075700084F8138084F814B06068D9F800205E465F
:107580000260C9F8000084F800B0DAF80010616009
:10759000A4F808B03846CAF80040FEF701FE2E7085
:1075A00024E00023042219462046FFF744FAA07A7B
:1075B0000028F6D184F8138084F814B06068D9F8F4
:1075C0000030D8460360C9F8000084F800B0DAF84B
:1075D00000206260A4F808B03846CAF80040FEF700
:1075E000DFFD0EB1FEF70DFF85F800800020BDE73E
:1075F00010B5040004D02078022803D0012010BD6B
:10760000042010BDFEF7C8FD014660684268C260F4
:1076100002610022C2820846FEF7C2FD002010BDB2
:107620002DE9F04789460546140005D03DB128787C
:10763000022806D001200DE00020BDE8F0870420DC
:1076400008E09148007808B1022003E091480078F2
:1076500010B10D201070EFE7FEF79EFD064668683A
:107660000027C18A81B10269111D01611568C28AB2
:10767000521EC2828268914201D141680161304646
:10768000FEF78EFD277036E0DFF80C82D8F8000098
:1076900010F8301F41F004010170477020F8029C7F
:1076A0002846FFF7FBF93046FEF77AFDFEF7A9FE04
:1076B000FEF772FD0646D8F8000090F8311039B197
:1076C000022908D02946FFF7A6F900250A2004E080
:1076D000456A277002E000250E202070D8F80000CF
:1076E00080F8307080F8317040F81C7F4760876008
:1076F0003046FEF755FD28469FE72DE9F0410F463D
:107700000646150031D02EB131780120022903D070
:1077100010702AE00420FBE7FEF73EFD8046B07AB9
:10772000F0B10024012F0FD00223042200213046A3
:10773000FFF781F901244046FEF732FDFEF761FEB6
:107740000E2028702046AAE602230422002130469B
:10775000FFF771F9641CB07AE4B20028F4D1EAE7CB
:107760004046FEF71DFD00202870002097E670B50A
:107770000E46040004D02078022803D0012070BDFA
:10778000042070BDFEF708FD0546A07A58B100231D
:10779000042231462046FFF74EF92846FEF700FD49
:1077A000FEF72FFE19E06068C18A828A914204D3F5
:1077B0002846FEF7F5FC1E2070BDC1680A1DC26098
:1077C0000E60C18A491CC182D0E902128A4201D1ED
:1077D0004168C1602846FEF7E3FC002070BD70B52B
:1077E0000E46040004D02078022803D0012070BD8A
:1077F000042070BDFEF7D0FC0546A07A58B10023E6
:10780000042231462046FFF716F92846FEF7C8FC49
:10781000FEF7F7FD18E06068C18A828A914204D3BE
:107820002846FEF7BDFC1E2070BD426801699142EA
:1078300001D181680161091F01610E60C18A491C83
:10784000C1822846FEF7ACFC002070BD2DE9F04156
:1078500014460D46070004D03878022803D00120D2
:107860001DE604201BE6FEF797FC0646B87A20B317
:10787000E00713D00023042229463846FFF7DBF83F
:10788000B87A0028F6D10FE0820000209000002096
:10789000C400002083000020A00000200023042258
:1078A00029463846FFF7C7F83046FEF779FC6007EF
:1078B00001D4FEF7A6FD0020F1E57B68D88A998AFD
:1078C000884204D33046FEF76BFC1E20E7E5A00794
:1078D00009D559681869884201D198681861001F54
:1078E0001861056009E0D868011DD9600560D3E919
:1078F0000201814201D15868D860D88A401CD882E0
:107900003046FEF74DFCD6E770B50C46060005D0B4
:1079100034B13078022805D0012070BD042070BD3C
:10792000092070BDFEF738FC0246B07A207406F1DB
:107930000B0504F108010020401C15F8013BC0B202
:1079400001F8013B0828F7D37068C18A09B10169C1
:1079500009682160C18AA180808AE0801046FEF714
:107960001FFC002070BD10B560210A48FEF7D7FE4D
:107970000848002200F1180140F8181B521C92B26E
:107980001831032AF8D30021016003490148086037
:1079900010BD00008C180020C400002070B5040049
:1079A00002D02078032801D0002070BDFEF7F4FB40
:1079B00025890DB1691E2181FEF7F2FB284670BDB5
:1079C00070B50546C548007808B1002070BDFEF7C7
:1079D000E3FBC3490C680CB162680A60FEF7E0FB88
:1079E00054B103202070258100203F216060E174A4
:1079F00020752046FFF774F8204670BD2DE9F0474A
:107A00008846150004462CD02CB12078032804D0D9
:107A10000120107024E00420FBE7B048007808B192
:107A20000F20F6E7FEF7B8FB0746A07A08B101265B
:107A300000E000265FEA0800DFF8A4924FF03F085C
:107A40004FF0000A06D0012826D03846FEF7A8FBE2
:107A5000072004E03EB13846FEF7A2FB492028701B
:107A60002046BDE8F08784F8138084F814A084F8D9
:107A700000A0D9F800106160A4F808A05646384666
:107A8000C9F80040FEF78CFB2E701EE00023012297
:107A900019462046FEF7CFFFA07A0028F6D184F8D9
:107AA000138084F814A084F800A0D9F80020626044
:107AB000A4F808A0D0463846C9F80040FEF770FB8D
:107AC0000EB1FEF79EFC85F800800020C9E72DE985
:107AD000F047894605461400C3D025B1287803280D
:107AE00003D001200AE0042008E07C48007808B1B7
:107AF000022003E07B48007810B10D201070B0E741
:107B0000FEF74AFB06462889002730B1401E28812F
:107B10003046FEF745FB2770A3E7DFF8CC81D8F8A5
:107B2000000010F8301F41F001010170477020F88B
:107B3000029C2846FEF7B2FF3046FEF731FBFEF707
:107B400060FCFEF729FB0646D8F8000090F83110DB
:107B500031B1022906D02946FEF75DFF0A2002E076
:107B6000277001E00E202070D8F8000080F83070F7
:107B700080F8317040F81C7F47603046BDE8F04720
:107B8000FEF70EBB2DE9F0410F460646150032D038
:107B90002EB131780120032903D010702BE004208E
:107BA000FBE7FEF7F9FA8046B07AF8B10024012F1E
:107BB00010D00223012200213046FEF73CFF0124B1
:107BC0004046FEF7EDFAFEF71CFC0E20287020461A
:107BD000BDE8F0810223012200213046FEF72BFF91
:107BE000641CB07AE4B20028F4D1E9E74046FEF71D
:107BF000D7FA002028700020EAE770B5040004D00E
:107C00002078032803D0012070BD042070BDFEF74A
:107C1000C3FA0546A07A58B100230122194620462E
:107C2000FEF709FF2846FEF7BBFAFEF7EAFB09E07C
:107C300020894FF6FF71884206D2401C20812846D9
:107C4000FEF7AEFA002070BD2846FEF7A9FA3220F2
:107C500070BD2DE9F0410F46060005D037B13078F0
:107C6000032805D00120B3E70420B1E70920AFE7DE
:107C7000FEF792FA0146B07AB872BC1C06F10B0509
:107C80000020401C15F8012BC0B204F8012B082875
:107C9000F7D3308938800846FEF782FA002097E74C
:107CA00070B50E460446150005D02CB12078032887
:107CB00004D00120107070BD0420FBE7FEF76CFAC1
:107CC00000212970218939B9A17A29B14921297066
:107CD000BDE87040FEF764BA2681F9E78200002013
:107CE0009000002083000020A00000202DE9F05F1C
:107CF0000C4605463F2801D3FF2D01D13F2C02D36E
:107D00002A20BDE8F09FFEF747FA8346F84850F86E
:107D1000241021B15846FEF743FA2820F1E7FF2D41
:107D200003D1F449096891F8325050F825200AB37C
:107D3000012A24D0E108012707FA01F304F0070E15
:107D400003F0FF0907FA0EF3DEB2002340F82530F6
:107D500040F8242092F83470E74B92F8355092F8AE
:107D600036A0D85D28421ED0A843DFF890C3D8556E
:107D70000AD00FE05846FEF713FA2920C1E758460B
:107D8000FEF70EFA4320BCE79CF8000020EA0A0048
:107D90008CF800009CF8008048EA09088CF8008004
:107DA000585C30435854D069B8B100EB070C9CF8CC
:107DB0000B30AB438CF80B3005D190F80AC02CEA9D
:107DC0000A0C80F80AC090F80AC04CEA090C80F846
:107DD0000AC00844C37A3343C372136A0BB31868EA
:107DE0001DE000EB070898F80BC03CEA050C88F88A
:107DF0000BC005D190F80AC02CEA0A0C80F80AC022
:107E000090F80AC04CEA090C80F80AC0084490F8BF
:107E10000BC04CEA060C80F80BC053F8040F002886
:107E2000DFD102F8324F5846917082F801E082F8B3
:107E30000490D670FEF7B4F9B1480078012801D15A
:107E4000FEF7DFFA00205CE72DE9FE431C461646EC
:107E50000F4680463F2B02D92A20BDE8FE83FEF75D
:107E60009BF9A849097819B1FEF79AF93C20F4E783
:107E70009F4D55F8241019B1FEF792F92820ECE730
:107E8000012145F82410FEF78BF9002332463946CC
:107E90004046FEF7DCF9002601460096019633467F
:107EA000324620460296FEF74FFE070007D0FEF747
:107EB00073F945F82460FEF773F93846CDE790482A
:107EC00000780128F9D1FEF79CFAF6E7D30707D02E
:107ED000920705D50022002902D004C0491EFAE706
:107EE00070472DE9FF4F83B01C46DDE91386DDE9BD
:107EF000119792468B463F2B03D92A2007B0BDE845
:107F0000F08FFEF749F97F49097819B1FEF748F972
:107F10003C20F3E7764D55F8241019B1FEF740F9EF
:107F20002820EBE7012145F82410FEF739F9324605
:107F300039464846FFF7CAFF33465246594603982A
:107F4000FEF785F90097CDE9018601464A462046AD
:107F5000109BFEF7F9FD060008D0FEF71DF9002181
:107F600045F82410FEF71CF93046C7E7644800784E
:107F70000128F9D1FEF745FAF6E72DE9F047054665
:107F80006048007810B14020BDE8F0873F2D04D054
:107F900005D3FF2D03D02A20F6E73E20F4E7FEF7B5
:107FA000FBF80646FF2D03D15248006890F8325086
:107FB000DFF83C9159F825405CB1012C0ED094F8C3
:107FC00034104D4A94F83530505C984350540AD0E0
:107FD0000FE03046FEF7E4F84320D5E73046FEF7E1
:107FE000DFF83D20D0E7454894F8362001789143EA
:107FF0000170E16911B12046FEF70DFD216A11B152
:108000002046FEF7EAF9A06A08B1FEF78EFE4FF0AF
:108010000008A4F82E803C4F84F8308084F831802A
:108020003878FF2801D2401C38703046FEF7B8F887
:10803000FEF7F0FCFEF7B0F80646387808B1401EAF
:1080400038702046FEF700F930480178491E01706B
:1080500049F82580A0694146A0B162694261D4E92E
:10806000050282612A480268626104603F2004F8C8
:108070004C0F30466170FEF793F8214800780128D4
:1080800006D007E06069234A816160691060E9E712
:10809000FEF7B7F9002077E710B504463F2804D073
:1080A0000FD3FF2803D02A2010BD3E2010BDFEF7BD
:1080B00073F81049096891F83740FEF771F82046C7
:1080C00010BDFEF769F80A4951F8241041B10129A1
:1080D0000AD03F2281F83720FEF762F8002010BD59
:1080E000FEF75EF8432010BDFEF75AF83D2010BDA4
:1080F000D40F0020A0000020B40000208600002043
:1081000087000020820000208300002088000020DB
:10811000A4000020AC0000202DE9F0410F460546E8
:1081200014002FD03F2D03D9FF2D01D02A2006E0C7
:1081300027B1B148007820B1112000E00C20107068
:1081400020E0FEF729F80646FF2D03D1AB48006872
:1081500090F83250AA4850F82510432571B10129F2
:108160000CD038464C31FEF7BBF805463046FEF7DA
:1081700017F8002020702846BDE8F0813046FEF751
:108180000FF825700020F7E72DE9F04188460546F5
:108190001400F1D03F2D03D9FF2D01D02A2006E095
:1081A000B8F1000F05D09448007820B1122010706B
:1081B000E2E70C20FBE7FDF7EFFF0646FF2D03D1BA
:1081C0008E48006890F832508D48432750F825506B
:1081D0005DB1012D09D04046FEF7C0F80F2809D93E
:1081E0003046FDF7DDFF41200DE03046FDF7D8FFBA
:1081F0002770C1E7414605F14C00FEF771F83046A3
:10820000FDF7CEFF00202070B6E710B504463F28EA
:1082100001D32A206BE7FDF7BFFF794951F82410FD
:1082200059B101290DD091F83020130729D532F02A
:10823000080281F8302008D009E0FDF7B1FF4620A0
:1082400055E7FDF7ADFF432051E7CA8D1AB1FDF7A1
:10825000A7FF00204BE76B4A91F836301478234390
:10826000137011F8342F684B49789C5C0C439C5474
:10827000FDF796FF654800780128EAD1FEF7C1F8BE
:10828000E7E7FDF78DFF442031E72DE9F0410E4689
:1082900004463F2803D9FF2C01D02A206CE746B1C1
:1082A000002030607060FDF777FF0146FF2C02D0A0
:1082B00005E0092060E75148006890F832405048D6
:1082C00050F8240058B1012809D0027CD2070BD005
:1082D000D0E9025700240846FDF762FF0AE008468D
:1082E000FDF75EFF432047E70846FDF759FF4520AD
:1082F00042E7641C01CD0028FBD0A0003060381B91
:1083000080007060002037E770B504463F2804D035
:1083100005D3FF2C03D02A2070BD472070BDFDF788
:108320003BFF01463548FF2C006805D090F832002D
:10833000A04204D1012503E090F83240FAE700257D
:108340002F4850F8240058B101280ED090F834205E
:108350002D4C90F83560A35CB343A3540AD00FE0D2
:108360000846FDF71DFF482070BD0846FDF718FFC1
:10837000432070BD234A90F836401378A34313700E
:1083800010F8302F42F0080202700846FDF708FF8F
:108390000DB1FEF736F8002070BD70B50E460446EC
:1083A0003F2803D9FF2C01D02A2070BD2EB1FDF744
:1083B000F3FE0546FF2C02D005E0092070BD0F48F2
:1083C000006890F832400E4850F8241051B101294D
:1083D0000DD05C223046FEF7ADFB2846FDF7E0FEEF
:1083E000002070BD2846FDF7DBFE292070BD284621
:1083F000FDF7D6FE432070BD82000020A0000020C3
:10840000D40F002086000020B40000208700002048
:1084100070B504465C48007800281DD1002C1BD0A4
:10842000FDF7BAFE03465948594D016891F83420CA
:1084300091F83560A85CB043A85405D1554891F82F
:1084400036500278AA430270CC851846FDF7A8FE84
:10845000BDE87040FDF7D5BF70BD70B54A4C2478BB
:108460000CB1552070BD00B919B13B2902D951207A
:1084700070BD1AB13B2A02D9522070BD2BB14FF406
:108480007A74A34203D3532070BD542070BD4FF4BF
:108490007A756B43B3FBF4F34FF461646043C1EB53
:1084A000011100EB8100104400EB4001C1EBC01052
:1084B00003EBC000040C80B2FFF7AAFF4FF40045A5
:1084C00007E02846FFF7A4FF2846FFF7A1FF641E38
:1084D000A4B2002CF5D1002070BD10B504463F2891
:1084E00001D32A2010BDFDF757FE2B4951F8241067
:1084F00091B1012910D0CA8D92B10023CB8591F89A
:10850000302012F0370F0FD022F0370281F83020E0
:10851000012281F8312009E0FDF742FE432010BD21
:10852000FDF73EFE502010BD81F8313091F830202B
:10853000120711D4174A91F8363014782343137078
:1085400011F8342F124B49789C5C0C439C54FDF776
:1085500027FEFDF756FF01E0FDF722FE002010BDCB
:1085600010B5FDF719FE0D490C68FDF719FE204600
:1085700010BD10B50446FDF70FFE08490C60BDE8BC
:108580001040FDF70DBE000082000020A00000207A
:10859000B400002086000020D40F0020B00000208E
:1085A0002DE9F05F9B46DDE90BA51746884681461D
:1085B0002DB1012F0BD0022F04D0842044E00020E5
:1085C000BDE8F09FB8F1000F04D183203CE0B9F181
:1085D000000F04D0F648007818B18B2034E08220D8
:1085E00032E000F094FAF348002604683CB3E168F6
:1085F0000160F148E66026610188491C0180EF486E
:108600000188491E0180E4B1012084F83100C4E9E9
:10861000069884F83070C4F804B00A98A060BAF1E3
:10862000000008D0FDF79AFE10280FD2514604F141
:108630002000FDF755FE00F066FA2E700FE034467C
:10864000E1E700F060FA86202870B8E7232084F87C
:10865000200084F821608C20287000F054FA204615
:10866000AEE7002180F8311080F83010C16141611F
:1086700041603F22816080F8202080F82110016154
:10868000CC490A68C2600860CB480188491E018055
:10869000CA480188491C0180704710B5017DC84A4D
:1086A00001F0070102EBC10100240B68C26883429C
:1086B00003D10A602AB1146103E00369DA6002B1F0
:1086C0001361012280F83120C46004618888401E53
:1086D000888010BD70B505460C002CD02DB12878CF
:1086E000642804D08920087025E08A20FBE7B04880
:1086F000007808B18B20F6E700F009FA95F8311000
:10870000A9B1002601290AD0022908D0032903D0E3
:1087100000F0F9F98D200DE02846FFF7BEFF28464E
:10872000FFF79FFF00F0EFF92670012070BD00F009
:10873000EAF987202070002070BD70B50E4605460E
:1087400014002FD02EB135B12878642806D08920A6
:1087500002E0882000E08A20107023E0944800782E
:1087600008B11120F8E700F0D2F995F83100A8B16E
:10877000012807D0022805D0032803D000F0C3F950
:108780008D200EE005F120013046FDF7A9FD0546DC
:1087900000F0B9F900212170284670BD00F0B3F94E
:1087A00087202070002070BD2DE9F04105460C00A7
:1087B0003BD02DB12878642804D08920087034E09B
:1087C0008A20FBE77A48007808B18B20F6E700F0B2
:1087D0009EF995F8310020B30026012811D0022817
:1087E0001BD0032803D000F08EF98D201CE07549C2
:1087F00068690968451A00F086F926702846BDE8C0
:10880000F08195F83000AF69022801D107B9EF690E
:1088100000F079F926703846F1E700F074F9267017
:1088200003E000F070F9872020700020E7E770B5C2
:1088300005460C0005D035B12878642805D089207C
:1088400007E0002070BD8A2003E05948007810B18D
:108850008B200870F5E700F05AF995F831503DB1DA
:10886000012D05D0022D03D0032D01D08D2000E075
:108870000020207000F047F9284670BD032280F8E0
:108880003120504A0129126814D0816991B11144F4
:108890004161017D4A4A01F0070102EBC101002359
:1088A0000A68086042B1C26010618A88521C8A80DE
:1088B00003617047C169EAE70122C360F7E770B559
:1088C00005460C002DD02DB12878642804D08920CD
:1088D000087026E08A20FBE73548007808B18B2035
:1088E000F6E700F014F995F83110B1B1002601292E
:1088F0000AD0022908D0032903D000F004F98D2002
:108900000EE02846FFF7C9FE00212846FFF7B6FF14
:1089100000F0F9F82670012070BD00F0F4F887200F
:108920002070002070BD2DE9F04117460E46054627
:108930001C004ED02DB12878642804D089201870EE
:1089400047E08A20FBE71A48007808B18B20F6E759
:1089500000F0DDF895F83100B0B3012823D00228EB
:1089600021D0032803D000F0CEF88D2030E0284637
:10897000FFF793FE002020708EB18F20032E03D0CE
:10898000042E05D0842009E06A683AB1A96802E0A3
:108990006A681AB139462846904700E0207000F016
:1089A000B2F801202BE700F0AEF88E202070F8E737
:1089B00082000020D8000020CA000020C80000204B
:1089C0002C1E0020CC000020FFE700F09CF8872040
:1089D0002070002013E752480068FFF70EB908B571
:1089E000DFF83C81DFF83C914F4E6A460021D8F811
:1089F0000000FFF76CF800F08AF83068401C306027
:108A000000F00700022759F8304013E06069316830
:108A1000E56888420DD1626812B12046A16890478E
:108A20002046FFF73AFE94F83000022807D084F879
:108A300031702C46002CE9D100F065F8D5E7012112
:108A40002046FFF71BFFF4E770B588B04FF4507174
:108A50003648FDF764FE40213248FDF760FE33489A
:108A60000022642300F1340114463F2500F8313B15
:108A7000521C00F8254992B240F8141B343100F81A
:108A8000015B0F2A00F8134BF0D3037080F83140DC
:108A9000C46080F8205080F82140234825490460B4
:108AA00023480480102008802349204808600120C2
:108AB000FEF786FF214D28600020FEF781FF184E4B
:108AC00005AA1FA130602868FDF752FC05AA1FA166
:108AD0003068FDF74DFC802102910320CDE9034071
