:020000040800F2
:1040000070220020B55F000881420008834200084A
:10401000854200088742000889420008000000002D
:104020000000000000000000000000008B420008BB
:104030008D42000800000000276D0008A54100081F
:10404000CF5F0008CF5F0008CF5F00087F42000805
:10405000CF5F0008CF5F0008CF5F0008E141000894
:10406000CF5F0008CF5F0008CF5F0008CF5F000878
:10407000CF5F0008CF5F0008CF5F0008CF5F000868
:10408000CF5F0008CF5F0008CF5F0008CF5F000858
:10409000CF5F0008CF5F0008CF5F0008CF5F000848
:1040A000CF5F0008CF5F0008CF5F0008CF5F000838
:1040B000C3410008CF5F0008CF5F0008CF5F000852
:1040C000CF5F0008CF5F0008CF5F0008CF5F000818
:1040D000CF5F0008CF5F0008CF5F0008CF5F000808
:1040E000CF5F0008CF5F0008CF5F0008DFF80CD07B
:1040F00005F072FD004800474B4100087022002087
:1041000010B50B231A4A00211A4804F050FC07236B
:10411000194A0021194804F04AFC0823184A0021D2
:10412000184804F044FC0A23174A0021174804F0F9
:104130003EFC15480321001D03F055FF144908609B
:10414000BDE81040FF2004F0CBBC134910B5114866
:10415000086000F0FAFA03F092F804230F4A0021F5
:104160000F4804F024FC03F081F9002010BD00008A
:10417000D8030020B7420008D80500207344000887
:10418000D80700209D430008D808002041430008BC
:10419000000000200040000808ED00E0D8010020E9
:1041A0000141000810B502F09DFD394A1178491C03
:1041B000117002F09BFD03F084F9BDE8104003F09C
:1041C000FFB810B501218C07204601F0E2FC002861
:1041D00005D02046BDE81040012101F0E6BC10BD2D
:1041E00070B5022001F09AFD00283CD0022001F0B9
:1041F000A3FD0221274801F058FE01004FF0804046
:1042000004D0BDE87040002101F097BC01F0B3FC80
:104210002149012300224C7834B3A0F2213440F22A
:104220005725AC4202D28868400008E0A0F68144DD
:10423000B4F5C77F05D88868400040F00100886069
:1042400007E0A0F5805040F207746938A04200D220
:104250004A708878401CC0B28870202803D10B7047
:104260004A708868486070BD6FF4FA54204440F288
:10427000CF74A042F7D24B708A708A6070BD7047CD
:104280007047FEE7FEE7FEE7FEE7704770477047BE
:1042900082000020000C014004000020034610B5FD
:1042A0000020024604E09C5C521C2044C0B292B242
:1042B0008A42F8D310BD08B500F049F900B10120D9
:1042C000334C60700020207000F041F96178884222
:1042D00021D06D1CEDB20C2D1ED90025B9B10020E6
:1042E00060702078A8B10020207000F023F92078B9
:1042F00000F026F9012000210090254B07220846F6
:1043000000F092F84FF4FA7004F040FE04E001204F
:10431000E6E70120E8E700250A2004F037FED3E7AE
:104320001B4C002604F10C050023052219461846F3
:1043300004F051FEE6602674284600F02BFBF3E7FC
:1043400008B5144D124C2878D8B1002028701248B6
:10435000C178B1B98178FD2913D14078802810D176
:10436000207890B10020207000F0E4F8207800F070
:10437000E7F8012000210090054B0722084600F0D5
:1043800053F8642004F002FEDDE70120EBE70000B3
:10439000E808002004000020080000201CB51E4E84
:1043A000012501AA0021306803F0E9FE04464078A7
:1043B000012806D0032816D005281CD011281DD1AD
:1043C00020E0A07800B10120144F387000F0B2F85E
:1043D000387800F0B5F8009520783B46022200219D
:1043E00000F022F80AE0642004F0D0FD0095207867
:1043F0000A4B0422F3E7642004F0C8FD322004F0E5
:10440000C5FDCEE706480168064A01F4E0611143A4
:104410000160BFF34F8FFEE700000020E808002096
:104420000CED00E00400FA0530B591B01146149A85
:104430004225541D8DF80050E4B28DF801408DF8EE
:10444000020001208DF803008DF804106D46194616
:10445000681D05F04FF921466846FFF71FFF2855F4
:10446000611C684601F014FE642004F08FFD11B059
:1044700030BD92B001F0E5FD01F005FE01F00EFE49
:10448000022804D003284CD004284AD147E010A9C0
:10449000684601F0FBFD9DF80000422841D1BDF8BF
:1044A00040000A283DD2401E81B26846FFF7F6FE62
:1044B000BDF840200DEB020111F8011C884230D1FB
:1044C0009DF8030001282CD118490322C87A401C0A
:1044D000C0B2B0FBF2F302FB1300C87200EB400065
:1044E00008449DF802208270CA7A9DF8040002EB0D
:1044F00042020A44D070CA7A9DF8050002EB4202DB
:104500000A441071C87A00EB400001440848891C35
:10451000006803F0DBFE0A2004F038FD01E001F042
:10452000B2FD0A2004F032FDA8E70000E8080020F0
:104530000000002080F0010220218B4801F0CDBC5A
:1045400080F001024FF48061884801F0C6BC10B5CC
:104550004FF48071854801F0A8FC002800D00120AC
:1045600010BD00B585B0684600F0D6FB01984FF449
:104570007A71B0FBF1F0B0F1807F0DD220F07F4175
:104580004FF0E020491E4161794AF02182F8141D64
:10459000002181610721016105B000BD0EB5012137
:1045A000022000F00BFC684601F0A5F84FF4807083
:1045B000ADF806001020ADF802006320ADF804004D
:1045C0005320ADF8000069466A4800F00FFE6948C4
:1045D00010300188C907FCD04FF6FE7101800EBD76
:1045E00064492431401E08806248018841F001017D
:1045F0000180604910310A88D207FCD04FF6FE7264
:104600000A80018821F00101018070473EB5012137
:10461000084600F0D3FB684601F06DF80020ADF8C5
:104620000600ADF802004FF6FF70ADF8040013204D
:10463000ADF800004FF080446946204600F0D6FDFA
:104640000121204601F07BF83EBD38B54FF4A06053
:1046500001F0AEFAFF208DF8000001248DF8014032
:1046600000258DF802508DF80340684601F0A5FA48
:104670001C208DF800008DF801408DF802408DF867
:104680000340684601F099FA07208DF800008DF884
:1046900001508DF802408DF80340684601F08DFA14
:1046A00038BDF8B50121042000F07FFB012108206E
:1046B00000F07BFB4FF48070ADF8000048252B4FD5
:1046C0008DF8035003248DF802406946384601F006
:1046D00092FB3815ADF8000010268DF803608DF8B8
:1046E00002406946384601F086FB2020ADF8000004
:1046F0008DF803601C4E8DF802406946304601F08B
:104700007AFB0220ADF800008DF803508DF80240CE
:104710006946304601F06FFBF8BD1CB50121084623
:1047200000F043FB0121084601F01DFC022000902F
:1047300000208DF8040010208DF8050001208DF870
:104740000600684601F09AFA1CBD10B5FFF77DFF20
:10475000FFF707FFFFF7A5FF00F046F8FFF756FF4A
:10476000BDE81040D9E70000000C014000080140FE
:104770000FE000E00004004010B5012186B088037E
:1047800000F01CFB4FF46040ADF8140003208DF8DE
:10479000160018208DF8170005A9494801F02BFBD9
:1047A0000020ADF800004FF48271ADF80210ADF8B2
:1047B00008004FF40071ADF80A103021ADF80C106C
:1047C000ADF80400ADF80600ADF80E0007203D4C32
:1047D000ADF810006946204600F05AFB0121204642
:1047E00000F0D3FB06B010BD10B5012186B0080360
:1047F00000F0DBFAE020ADF8140003208DF816007D
:1048000018208DF8170005A92F4801F0F4FA0020B0
:10481000ADF800004FF48271ADF80210ADF8080059
:104820004FF40071ADF80A103021ADF80C10ADF85E
:104830000400ADF80600ADF80E000720234CADF8DB
:1048400010006946204600F023FB0121204600F0BD
:104850009CFBC7E700211D4A03E0491CC9B2C829D7
:1048600009D813899B07F8D59081002005E0401CEA
:10487000C0B2C82801D9002070471189C907F6D0F5
:104880009089C0B270470F4A0021083203E0491CEA
:10489000C9B2C8290BD813889B07F8D509490C3130
:1048A0000880002005E0401CC0B2C82801D90020C3
:1048B00070471388DB07F6D00888C0B27047000045
:1048C000000C014000380040000801400030014069
:1048D00008B54020ADF8000003208DF80200042048
:1048E0008DF803006946444801F085FA08BD08B513
:1048F0004020ADF8000003208DF8020010208DF854
:10490000030069463C4801F076FA08BD10B5FFF790
:10491000EEFF394C4021204601F0DDFA44F6382004
:10492000FFF75EFE4021204601F0D3FA1E20FFF77C
:1049300057FEBDE81040CBE740212F4801F0B5BA43
:1049400010B52D4C4021204601F0AFFA0028F9D0D7
:104950002820FFF745FE4021204601F0A6FA012855
:1049600001D0002010BD4021204601F09EFA012810
:10497000F9D0012010BD70B5002004464FF6FF7538
:1049800005EA4006FFF7DCFF641C3043A4B2082CA4
:10499000F6D370BD70B50546FFF7B8FFFFF7CCFF43
:1049A00040BB00BFFFF7C8FF0028FBD0FFF7C4FFE4
:1049B0000128FBD05FF00004FFF7DDFF2855641CE1
:1049C000E4B2052CF8D300BFFFF7B6FF0028FBD0F8
:1049D000FFF78DFF4021084801F07BFA04212846AB
:1049E000FFF75CFC2979884201D1012070BD0020CD
:1049F00028602871002070BD000C01405D480168EE
:104A000041F00101016041684160416841F40011D9
:104A1000416041684160016841F080710160016856
:104A20008901FCD5416821F003014160416841F0F2
:104A3000020141604168C1F381010229FAD1704746
:104A40000CB500214B4801910091026842F480327C
:104A500002604FF4A063026802F400320092019AEF
:104A6000521C0192009A12B9019A9A42F3D102683B
:104A7000920333D5012100913F490A6842F01002A8
:104A80000A600A6822F003020A600A6842F0020221
:104A90000A604168416041684160416841F4806159
:104AA0004160416821F47C114160416841F4E811A2
:104AB0004160016841F08071016001688901FCD5A5
:104AC000416821F003014160416841F00201416009
:104AD0004168C1F381010229FAD10CBD00910CBDDE
:104AE000244810B5016841F0010101604168234A82
:104AF000114041600168224A11400160016821F4BF
:104B000080210160416821F4FE0141604FF41F01E2
:104B10008160FFF795FF1B494FF00060086010BDF2
:104B2000144910B54868184A10F00C03174803D010
:104B3000042B01D0082B0AD002604968134AC1F344
:104B40000311121D515C0268CA40026010BD4A6820
:104B50004B6802F470124FF0020413F4803F04EB30
:104B6000924202D04B689B0301D5094B00E0064BF3
:104B70005A43E1E700100240002002400000FFF825
:104B8000FFFFF6FE08ED00E000127A0010000020A2
:104B900000093D00A448016841F00101016041683D
:104BA000A24A114041600168A14A114001600168B8
:104BB00021F480210160416821F4FE0141604FF43D
:104BC0001F018160704798490A6822F480320A60A8
:104BD0000A6822F480220A60B0F5803F07D0B0F561
:104BE000802F03D1086840F4A0200860704708684F
:104BF00040F48030F9E70246002053098A49012B2E
:104C00000AD0022B0AD0496A02F01F020123934006
:104C10000B4200D0012070470968F5E7096AF3E705
:104C200018B500204FF4A06400903120FFF7E3FF97
:104C30000099491C0091A14201D00028F5D03120F3
:104C4000FFF7D9FF002800D0012018BD76490A6877
:104C500022F0F80242EAC000086070477549086017
:104C60007047714A5368084323F47C13184350601B
:104C700070477049086670476B4A516821F003011C
:104C80000143516070476848406800F00C0070476D
:104C9000654A516821F0F001014351607047624A52
:104CA000516821F4E0610143516070475E494A68F0
:104CB00022F4605242EAC000486070475A4A002914
:104CC000517A01D0014300E0814351727047594944
:104CD000C1F8D8007047544A516821F4404101435B
:104CE000516070475049002281F8202081F820202F
:104CF000012802D0042802D1052081F82000704745
:104D00004D490860704748490A6A02430A62704781
:104D1000494944390860704730B543494A6812F040
:104D20000C03464A03D0042B01D0082B21D002608B
:104D30004A680F23424C03EA1212A35C0268DA406D
:104D400042604B68072505EA1323E35C22FA03F36C
:104D500083604B6805EAD323E35CDA40C2604968AC
:104D6000032303EA9131231F595CB2FBF1F1016186
:104D700030BD4A684B6802F470124FF0020413F41D
:104D8000803F04EB924202D04B689B0301D52D4B30
:104D900000E02A4B5A43CAE7234A0029516901D04F
:104DA000014300E08143516170471F4A0029916926
:104DB00001D0014300E08143916170471A4A002904
:104DC000D16901D0014300E08143D1617047164AA7
:104DD0000029D16801D0014300E08143D1607047D0
:104DE000114A0029116901D0014300E0814311619A
:104DF000704711494039086070470E49C8647047D0
:104E00000949C87170470848416A41F080714162A0
:104E10007047054A0146002092680A4200D00120EE
:104E20007047014988727047001002400000FFF887
:104E3000FFFFF6FE000042428004424200127A0068
:104E40002800002000093D00994910B588420AD188
:104E5000841401212046FFF7BAFF2046BDE8104028
:104E60000021FFF7B4BF9349884202D10121041405
:104E700004E0914988420AD10121C4132046FFF77A
:104E8000AFFF2046BDE810400021FFF7A9BF10BDCD
:104E900030B502884C8802F441530A88CD882243F9
:104EA0008C882C4322430C8922434C8922438C89D1
:104EB0002243CC8922431A430280828B22F400626F
:104EC0008283098A018230BDF0B505460C46022076
:104ED0000021AA8B85B001264FF240031A40AA8315
:104EE0002884AF8BA268022A27D0A08800B10226AE
:104EF0006846FFF711FFE1880098B1F5007F2DD0DB
:104F00007101B0FBF1F000BF00EB8000A168400030
:104F1000B0FBF1F0401D80B20A21B0FBF1F000F0CF
:104F20000101401A4FF6FF72C0F34F0002EA01215F
:104F3000821EFE2A01D302200021E2880843024398
:104F40002A8420886188A2890843A18811430843E4
:104F5000384340F40060A88305B0F0BD000AD3E7F1
:104F60000021018041808180C18001814181818156
:104F7000C181072101827047002101804180818029
:104F8000C18002228260818170470029018802D09D
:104F900041F0400101E021F040010180704700290B
:104FA000818B02D041F4806101E021F48061818332
:104FB0007047090901238B40002A828899B201D0E9
:104FC0000A4300E08A4382807047002A828801D029
:104FD0000A4300E08A43828070478181704780895C
:104FE0007047A1F57E420188FF3A02D041F48071FA
:104FF00001E021F48071018070470029818802D08E
:1050000041F0040101E021F0040181807047028831
:1050100022F40062028002880A43028070470188FD
:1050200041F48051018070470029018802D041F489
:10503000005101E021F4005101807047012901D0A5
:10504000008B7047808A7047008A7047B1F5804FA7
:10505000018803D021F480410180704741F48041F0
:10506000FAE70246002012890A4200D00120704768
:10507000C9430181704710B501F00F0401220346B6
:1050800002FA04F4002009098A4091B29A88A4B275
:105090000A401989214202D0002A00D0012010BD07
:1050A00001F00F0201219140C943018170470000C6
:1050B0000030014000380040003C0040F94910B584
:1050C000884202D10121C41486E0B0F1804F09D09A
:1050D000F54988420DD101210220FFF781FE002110
:1050E000022064E001210846FFF77AFE002101203A
:1050F0005DE0EE49884206D101210420FFF770FEF1
:105100000021042053E0EA49884206D10121082009
:10511000FFF766FE0021082049E0E649884206D1F3
:1051200001211020FFF75CFE002110203FE0E24942
:10513000884206D101212020FFF752FE00212020C5
:1051400035E0DE49884202D10121441444E0DC49C3
:10515000884202D10121CC043EE0DA49884202D1E2
:1051600001210C0538E0D849884202D101214C05C3
:1051700032E0D649884206D101214020FFF730FEB7
:105180000021402013E0D249884206D1012180202D
:10519000FFF726FE0021802009E0CE4988420AD18F
:1051A000841501212046FFF71BFE00212046BDE8A3
:1051B0001040FFF715BEC849884202D101210C04F6
:1051C0000AE0C649884202D101214C0404E0C449E6
:1051D00088420AD101218C042046FFF7F8FD2046C1
:1051E000BDE810400021FFF7F2BD10BD30B50288C8
:1051F000AC4BB24C98420DD0A0420BD0B0F1804FD6
:1052000008D0A94DA84205D0A84DA84202D0A84D6B
:10521000A84203D122F070054A882A43A54DA8422E
:1052200006D0A54DA84203D022F44075CA882A436F
:1052300002808A8882850A88028598420AD0A04224
:1052400008D0A54A904205D0A44A904202D0A44A70
:10525000904201D1097A01860121818230BD30B5A9
:10526000028C22F001020284028C8388048B22F0DB
:10527000020224F073050C882C430D8915434A88DB
:105280002A43884DA8420BD08C4DA84208D0924D9D
:10529000A84205D0914DA84202D0914DA8420DD10F
:1052A00022F008054A8923F440732A4322F00405BA
:1052B0008A882A438D891D43CB892B4383800483AD
:1052C000C9888186028430BD70B5028C22F010023C
:1052D0000284028C8488038B0D8823F4E6464FF603
:1052E000FF7303EA052535430E8922F0200203EA05
:1052F000061616434A8803EA02123243694EB04248
:1053000002D06E4EB04215D122F080064A8924F4B4
:10531000406403EA0212324322F040068A8803EA1C
:10532000021232438E8903EA86062643CC8903EAB9
:105330008404344384800583C9880187028470BD56
:1053400070B5028C22F480720284028C8488838B74
:105350000D8823F073031D4322F400730E894FF66A
:10536000FF7202EA06261E434B8802EA03233343F8
:105370004C4EB04202D0514EB04215D123F40066DB
:105380004B8924F4405402EA0323334323F4806618
:105390008B8802EA032333438E8902EA06162643EA
:1053A000CC8902EA0414344384808583C9888187C8
:1053B000038470BD70B5028C22F480520284048C88
:1053C0008288838B0D8823F4E6464FF6FF7303EA49
:1053D0000525354324F400560C8903EA043434438C
:1053E0004E8803EA063626432E4CA04202D0334CA8
:1053F000A04205D122F480448A8903EA8212224322
:1054000082808583C988A0F84010068470BD828B95
:1054100022F440628283828B4FF6FF7303EA0121FC
:105420000A4382837047828B22F00C028283828B34
:105430000A4382837047028B22F440620283028B0C
:105440004FF6FF7303EA01210A4302837047F0B568
:10545000048C24F010040484078B048C4FF6FF7531
:1054600027F4734705EA03333B4305EA02221A4354
:105470000C4B05EA011698420ED0104B98420BD007
:10548000B0F1804F08D0084B984205D0074B9842A6
:1054900002D0074B984225D124F02001314341F03E
:1054A000100124E0002C01400004004000080040EE
:1054B000000C004000100040001400400034014087
:1054C000004C0140005001400054014000180040D1
:1054D000001C00400020004000400140004401400A
:1054E0000048014024F0A0030B4343F01001028365
:1054F0000184F0BD028B22F00C020283028B0A436E
:105500000283704770B5048C24F001040484058B79
:10551000048C4FF6FF7606EA0313134325F0F305D8
:10552000F94A2B4390420ED0F84A90420BD0B0F18A
:10553000804F08D0F64A904205D0F64A904202D0F9
:10554000F54A904202D124F0020201E024F00A025E
:105550000A4342F001010383018470BD2DE9F05F2D
:105560000D4604460888E84FDFF8A0C3DFF8A083A3
:105570004988AA882B894FF0804960B3042832D02B
:105580004FF6FF7E082836D0208C9B4620F48050B2
:105590002084A38B268C704600EA022223F47343F6
:1055A0001A4300EA0B3010430EEA013EBC420BD016
:1055B000644509D04C4507D0444505D0D54A9442AE
:1055C00002D0D54B9C4245D126F4005141EA0E0150
:1055D00041F4805143E02046FFF794FFE9882046DC
:1055E000BDE8F05F86E72046FFF731FFE9882046F7
:1055F000BDE8F05F1FE7208C20F480702084B4F8B1
:105600001CA0208C0EEA031313432AF0F30A0EEABF
:10561000012B43EA0A03BC420BD0644509D04C4538
:1056200007D0444505D0BB4A944202D0BA4A9442BE
:1056300004D120F4007040EA0B0002E020F4206066
:10564000084340F48070A3832084E9882046BDE8A5
:10565000F05FE8E626F402420A4342F48051A08358
:1056600020462184E988BDE8F05FD0E62DE9F041CD
:105670000C46002649880746012501B90226A28862
:10568000012A00D10225208823890028384610D01D
:10569000FFF7DDFEE1883846FFF7CDFE23892A4675
:1056A00031463846FFF72EFFE1883846BDE8F04125
:1056B00020E7FFF727FFE1883846FFF71BFF238924
:1056C0002A4631463846FFF7C2FEE1883846BDE833
:1056D000F041B0E610B50A884B88CC881A438B8815
:1056E00023431A430B891A434B8989891A430A4376
:1056F000A0F8442010BD4FF6FF7181800021018089
:10570000C180418001727047002101804180818009
:10571000C180018141818181C18170470021018067
:10572000418001228280C180018170470021018077
:1057300041808180C1800181418181817047002940
:10574000018802D041F0010101E021F00101018056
:105750007047002930F8441F02D041F4004101E0B5
:10576000C1F30E0101807047002A828901D00A43EB
:1057700000E08A4382817047818270471143A0F81C
:1057800048107047002A828901D00A4300E08A430A
:1057900082817047018921F00701018170470289E8
:1057A00022F070020A430281704700B50346FFF7FA
:1057B000F6FF188940F00700188100BD70B5164645
:1057C0000D46602904464FF0010231460AD0FFF72A
:1057D00099FE29462046FFF7E2FF208940F00700A6
:1057E000208170BDFFF733FEF3E730B504894FF633
:1057F000FF7505EA03231343E4B20B4323430381FC
:1058000030BD10B50446FFF7F0FF208940F0770067
:10581000208110BD10B50446FFF7E7FF208940F452
:105820008040208110BD018582827047028822F06D
:1058300070020A430280704770B50589048B068C9C
:1058400025F007050D434FF6FC410C4040F20111D5
:105850000C434FF6FF7101EA031126F022061143B3
:10586000314305810483018470BD028B22F07002F4
:105870000A4302837047028B4FF6FF7322F4E04223
:1058800003EA0121114301837047828B22F07002E9
:105890000A4382837047828B4FF6FF7322F4E04203
:1058A00003EA01211143818370470029018802D056
:1058B00041F0800101E021F0800101807047002962
:1058C000818802D041F0040101E021F004018180CF
:1058D00070470029818802D041F0080101E021F0E1
:1058E0000801818070470029818802D041F00101C0
:1058F00001E021F0010181807047028B22F0080253
:105900000A43028370470000002C0140003401402C
:105910000004004000080040000C0040028B4FF6DD
:10592000FF7322F4006203EA012111430183E9E7D6
:10593000828B22F008020A438283E3E7828B4FF6D0
:10594000FF7322F4006203EA012111438183D9E746
:10595000028B22F004020A430283D3E7028B4FF644
:10596000FF7322F4806203EA012111430183C9E736
:10597000828B22F004020A438283C3E7828B4FF6B4
:10598000FF7322F4806203EA012111438183B9E7A6
:10599000028B22F080020A430283B3E7028B4FF6A8
:1059A000FF73C2F30E0203EA012111430183A9E749
:1059B000828B22F080020A438283A3E7828B4FF618
:1059C000FF73C2F30E0203EA01211143818399E7B9
:1059D000028C22F002020A43028493E7028C22F036
:1059E00008020A4302848DE7028C4FF6FF7322F00F
:1059F000200203EA01111143018483E7028C4FF670
:105A0000FF7322F0800203EA01111143018479E758
:105A1000028C4FF6FF7322F4007203EA0121114356
:105A200001846FE7028C4FF6FF7322F4006203EAF1
:105A300001211143018465E7028C4FF6FF7322F4C4
:105A4000005203EA0131114301845BE710B50123E1
:105A5000048C8B409C430484038C8A40134303844E
:105A600010BD10B50423048C8B409C430484038C2C
:105A70008A401343038410BD30B50124058C00F126
:105A800018038C40A543058489B108290FD0091F4C
:105A9000C1F34E001844016821F4E041016001683F
:105AA0004FF6FF7303EA02221143016030BD03EB9E
:105AB0005100016821F0700101600168F4E70029DC
:105AC000018802D041F0020101E021F002010180D1
:105AD00018E70029018802D041F0040101E021F01B
:105AE000040101800EE70029818802D041F0800185
:105AF00001E021F08001818004E7028822F00802A1
:105B0000028002880A430280FCE6828822F070024A
:105B1000828082880A438280F4E6028922F00702AA
:105B2000028102890A430281ECE6028922F08002A6
:105B3000028102890A430281E4E68184E2E68185EA
:105B4000E0E68186DEE60187DCE68187DAE6A0F81A
:105B50004010D7E6028822F44072028002880A438D
:105B60000280CFE6808ECDE6008FCBE6808FC9E63F
:105B7000B0F84000C6E6808CC4E6008DC2E602465E
:105B80000020128A0A4200D00120BBE6C9430182EC
:105B9000B8E602460020138A92890B4202EA01020B
:105BA00002D0002A00D00120ACE6C9430182A9E658
:105BB0002849084328490860704770B50F23C47806
:105BC00001780122F4B1244C2468457804F4E0649F
:105BD000C4F5E064240AC4F10406E3408478B540C7
:105BE0001C402C4301F1E021230181F800340078AE
:105BF00000F01F018A404009800000F1E020C0F859
:105C0000002170BD01F01F0082404809800000F1B2
:105C1000E020C0F8802170BD104A114001430E48B9
:105C2000001F016070470C4A121D0029116801D045
:105C3000014300E08143116070474FF0E0210428E8
:105C4000086903D020F004000861704740F00400A8
:105C5000FAE700000000FA050CED00E080FFFF1FEE
:105C6000374900200860091D0860091D0860091DEA
:105C700008603349334814310860704730B5304903
:105C80008379026853B30B6893430B600A1D136852
:105C90000468A343136002790A4413680468234329
:105CA0001360274A083213680468A3431360131D66
:105CB0001C680568AC431C604479102C05D0214455
:105CC0000A68006802430A6030BD11680468214315
:105CD0001160196800680143196030BD00790844FB
:105CE00001689143016030BD0021016001710C2207
:105CF000427181717047124910310A6802430A608B
:105D0000704701460E4A0020143212680A4200D041
:105D1000012070470A49143108607047084A01465B
:105D200000201268064B0A4014331B680B4202D055
:105D3000002A00D0012070470149143108607047E3
:105D400000040140FFFF0F00914910B5884206D1C1
:105D500001210420FFF73BF8002104203BE08D499E
:105D6000884206D101210820FFF731F800210820E0
:105D700031E08949884206D101211020FFF727F838
:105D80000021102027E08549884206D101212020EA
:105D9000FFF71DF8002120201DE08149884206D12F
:105DA00001214020FFF713F80021402013E07D4936
:105DB000884206D101218020FFF709F800218020C8
:105DC00009E0794988420AD1841501212046FEF76D
:105DD000FEFF00212046BDE81040FEF7F8BF10BDD1
:105DE00010B501210846FEF7F2FF0021BDE8104082
:105DF0000120FEF7ECBFF0B5CA78002502F00F03D2
:105E0000D20601D58A7813430A784FF00F0E12F0AC
:105E1000FF0F4FF001021DD0D0F800400F8802FAAA
:105E200005F63740B74211D14FEA850C0EFA0CF750
:105E300024EA070703FA0CF43C43CF78282F02D05A
:105E4000482F02D002E0466100E006616D1C082D7B
:105E5000E4D304600C88FF2C1ED944685FF0000670
:105E600006F1080702FA07F50F882F40AF420FD15D
:105E70004FEA860C0EFA0CF7BC4303FA0CF73C43CE
:105E8000CF78282F00D14561CF78482F00D1056108
:105E9000761C082EE4D34460F0BD4FF6FF710180FC
:105EA000022181700421C17070470246002092686F
:105EB0000A4200D001207047806880B270470246D5
:105EC0000020D2680A4200D001207047C06880B22A
:105ED000704701617047416170470AB101617047C5
:105EE00041617047C160704741F4803282618161D5
:105EF00082618169806970472C4B10B51A684FF632
:105F00008074224042EA00100843186010BD2849FE
:105F1000C8617047F0B5254C002801DAE36900E05C
:105F20006368420D120185B2C0F301579540C0F37A
:105F30000346032F05D0C2020AD50322B240934381
:105F400007E023F07062636823F07063636002E02F
:105F5000AB4343F0706201B12A43002801DAE261E9
:105F6000F0BD6260F0BD10B58A0721F003040F494F
:105F7000130F21440F228C689A4094438C608A68E6
:105F8000984002438A6010BD0949C1F8DC0070479F
:105F900000080140000C01400010014000140140C5
:105FA00000180140001C0140002001400000014099
:105FB000000020420648804706480047FEE7FEE70B
:105FC000FEE7FEE7FEE7FEE7FEE7FEE7FEE7FEE7A9
:105FD000FD490008ED400008314910B54A78824279
:105FE0001FD04870002000F0E3F82E4C2068417864
:105FF00041F080014170012000F09DF8012000F087
:10600000D7F821680020022201F83D0F4870402097
:1060100000F074F86F22BDE810402349012000F021
:1060200090B810BD10B5012000F05EF8642002F0B9
:10603000ADFF002000F058F8BDE81040642002F0E9
:10604000A5BF1948174910B5401E086000F02EF88A
:10605000FFF7E8FF0120FFF7BFFFBDE8104000F0A9
:10606000C8B80F480078704700F0A2B800F012B925
:1060700000F027B900F01AB900F03FB900F040B9BC
:1060800000F042B9FEE7012000F042B900F047B944
:1060900000F04DB900F056B900F03AB900F055B92A
:1060A0003800002050000020FA080020F8B5012137
:1060B0000420FEF77AFE0820ADF8000010243B4EC5
:1060C0008DF8034003258DF8025069463046FFF7EE
:1060D00092FEADF800408DF803408DF802506946FD
:1060E0003046FFF788FEF8BD304A01284FF008011E
:1060F000104601D0FFF7EDBEFFF7EDBE2DE9F041F0
:106100002A4F0E460446154610213846FFF7E3FE97
:1061100044F08000FEF79EFB002404E0305DFEF7B3
:1061200099FB641CE4B2AC42F8D33846BDE8F041B8
:106130001021FFF7CEBE13B5012201A9FFF7DEFF44
:106140001CBD2DE9F041194F0E460446154610219D
:106150003846FFF7C0FE04F07F00FEF77BFB00240B
:1061600005E00020FEF776FB3055641CE4B2AC423B
:10617000F7D33846BDE8F0411021FFF7AABE01224F
:10618000DFE70A4601460020B8E70A46014600203C
:10619000D7E700207047002070470020704700209C
:1061A000704700207047002070477047000801408A
:1061B000FE4A30B4136900215C7824F0F80595702C
:1061C000A8420ED0032800D10121D578A94200D0E1
:1061D000D17004F0F8010143597030BC0120FFF781
:1061E000AABF30BC7047F148016942203F31FFF738
:1061F000C6BF70B5ED4D00202870FFF7F4FFEC4CE2
:106200006F22611C0120FFF79CFF296920206F226B
:106210000873611C0120FFF771FF05F1200420685D
:1062200000F0B4FAA07900F085FBE07900F0B4FB4F
:10623000207A00F0D5FB607900F047FB607A00F02F
:1062400012FC40F2FF3000F0F2FC207E00F05FFC18
:10625000012000F016FD802000F0A9FC012000F0D4
:1062600070FC1420207100F0C5FABDE870400120D8
:106270009EE710B50120FFF737FF4FF47A742046F0
:1062800002F084FE0020FFF72FFF2046BDE81040FB
:1062900002F07CBE10B5C54C01202169491CFFF7F6
:1062A0006EFF2069407820F0F80010BD10B5BF4C9B
:1062B0000C2021690C31FFF762FF2069007B400947
:1062C00010BD10B5B94C1B2021691B31FFF757FFDA
:1062D00004F12000B749006888422069C07E04D2DA
:1062E00003F0C5FB0022B44B03E003F0C0FBB34B4B
:1062F0000022BDE8104003F021BAAC484078704756
:10630000AA4890F904007047A849D1E906017047EE
:10631000A64908707047A549012008707047A34B33
:10632000DA880A800021D980A54903F0E3B910B5C5
:106330009E4C0A4621810146A14803F0DBF9052065
:10634000207010BD9948007870472DE9FC47974CA4
:106350000126DFF87092207800274FF0020AB0463D
:1063600004F120050B287DD2DFE800F07C064D9774
:10637000FDFCFBFA7CF9F8000120FFF719FF20690A
:106380009D2141741120FFF7D6FEE87A012827D01D
:10639000206980F82470206990F824102420FFF7E9
:1063A000CAFE21690222402001F83D7F4F70FFF7AD
:1063B000A5FEA87A012824D02069C17B41730D2055
:1063C000FFF7B9FE5FF00500FFF7F2FE4FF48071B2
:1063D0007B4803F0A8F96869C4F80C8060616CE040
:1063E0002169287B81F824001C201C31FFF7C7FE9F
:1063F0002069007F00F03F0159F8210000F0C6F944
:10640000C9E70620E0E769461220FFF7B8FE9DF8CD
:106410000000400617D5C4F80C80E87A01280CD19A
:1064200021691C201C31FFF7AAFE2069007F00F0C3
:106430003F0159F8210000F0A9F940211220FFF78F
:106440007AFE032020709DF8000080071AD5C4F85A
:106450000C80E87A01280ED121691C201C31FFF73D
:106460008EFE00E02BE02069007F00F03F0159F82C
:10647000210000F08BF902211220FFF75CFEFFF7EC
:1064800015FF6070A87A012819D1E0686169C0F130
:106490000100884213D9042000E121691220123141
:1064A000FFF76DFE2069807C80060CD5202112202C
:1064B000FFF741FEA87A012802D084F800A05FE12E
:1064C00084F800805CE101A91920FFF758FE9DF8CF
:1064D0000400010605D5C043401CC0F385004042BE
:1064E00000E08008207121691A201A31FFF747FE69
:1064F00030492868344E8842344F94F9040013D24E
:10650000DFF8B490002804DA03F0A0FA06460F463C
:1065100012E02069807E03F0AAFA32463B4603F07F
:10652000B4F900224B4611E0DFF890900028F0DA31
:1065300003F08CFA0F4606462069807E03F097FA36
:1065400000224B4603F0FAF832463B4603F0F6F8D9
:10655000C4E90601A87A01283AD005E0F6E0DFE0B8
:10656000D8E0B0E05EE059E0216910201031FFF77B
:1065700006FE687A012841D0216913201331FFF704
:10658000FEFD2069C17CE180017C41730D20FFF795
:10659000D2FD2069C17C0A48FFF7F7FDA87A0128DF
:1065A00039D084F800A00226EAE000004000002074
:1065B000F9080020008F4233008064C000A063C04F
:1065C000690900201C9C00081B9E5E29CB10F13F2E
:1065D0002069C17B41730D20FFF7ADFD687A01286A
:1065E00008D0216913201331FFF7C9FD2069C17C50
:1065F000E180D0E7206990F82210F9E7206990F84F
:106600002210E180017C41730D20FFF794FD206989
:1066100090F82210BFE784F80080C4E784F8008077
:106620000326ADE00120FFF7C3FDE87A012837D04B
:106630002069F721417480F82470206990F82410B3
:106640002420FFF778FD2069417C1120FFF773FDBE
:106650002069217A80F822102220FFF76CFD206942
:10666000394687730E20FFF766FD2069817B4173F1
:106670000D20FFF760FD206990F822104248FFF7D7
:1066800080FD21694120022201F83D0F4020487021
:10669000FFF734FD0320FFF78BFD062020706FE02D
:1066A0002169F5204874287B81F824001C201C31C6
:1066B000FFF765FD2069007F00F03F0159F82100D8
:1066C00000F064F8B9E769461220FFF758FD9DF81D
:1066D0000000000705D508211220FFF72CFD072038
:1066E00020709DF8000080074AD5E87A01280CD177
:1066F00021691C201C31FFF742FD2069007F00F05A
:106700003F0159F8210000F041F802211220FFF763
:1067100012FD35E00120FFF74BFD277004262FE026
:106720000120FFF745FD2069FA2141741120FFF790
:1067300002FD21690222402001F83D7F4F70FFF7E2
:10674000DDFC0720FFF734FD0A20A7E76946122089
:10675000FFF715FD9DF80000400711D50421122018
:10676000FFF7E9FC9DF80000C00707D001211220C7
:10677000FFF7E1FC84F80080082601E02770072677
:106780003046BDE8FC87000069090020FC4910B5CF
:10679000086003F06CF90022FA4B03F0E8F803F00C
:1067A00073F9F949020C096801F8062F020A4A70C8
:1067B00088700322BDE810400620FFF79FBC10B58B
:1067C000F14C032206202168891DFFF7BAFC2168DD
:1067D000EB4C8879CA790004097A40EA0220084320
:1067E00003F045F90022E74B03F04FF803F04CF9B2
:1067F000206010BD70B5E44D0446092029680931B8
:10680000FFF7BDFC29684D204931FFF7B8FC286827
:10681000417A0A0628D590F8493087229A4303D056
:10682000022C0EDA02240FE0052C01DA052402E026
:10683000142C00DD142401F0F00141F07001621FFE
:1068400007E0112C00DD112401F0F00141F070018E
:10685000A21E02F00F0211434172C9B20920FFF7D4
:106860006AFCC748047170BD4FF0FF32944201DAF0
:10687000144602E00E2C00DD0E2401F0F00141F080
:106880007001621CE5E710B5BF4C09202168093191
:10689000FFF775FC21684D204931FFF770FC226835
:1068A000B749507A03060CD592F8492020F0F00041
:1068B000D243520703D0801C087140B210BD401D66
:1068C000FAE720F0F000401EF6E770B5AE4D044642
:1068D0001D2029681D31FFF752FC2868417F64F3B1
:1068E0001F11C9B241771D20FFF725FCA448447150
:1068F00070BD10B5A44C1D2021681D31FFF73FFC71
:1069000020689F49407F0009487110BD70B59E4DB9
:106910000446312029683031FFF731FC286810F82F
:10692000301F01F0F80121430170BDE870403120B3
:10693000FFF701BC70B504460C2801D90C2408E00F
:10694000062C02D24FF0060400E002D14FF0050001
:1069500001E04FF00300FFF7D9FF8B4D1E2029689F
:106960001E31FFF70CFC2868817F64F31F11C9B248
:1069700081771E20FFF7DFFB8148847170BD10B561
:10698000814C1E2021681E31FFF7F9FB20687C49ED
:10699000807F0009887110BD70B57B4D04461D20B5
:1069A00029681D31FFF7EBFB2868417F01F0F101F9
:1069B00041EA4401C9B241771D20FFF7BCFB704892
:1069C000C47170BD10B5704C1D2021681D31FFF7DA
:1069D000D6FB20686A49407FC0F34200C87110BDF1
:1069E00070B5694D04461E2029681E31FFF7C7FBAC
:1069F0002868817F01F0FB0141EA840181771E2034
:106A0000FFF799FB5E48047270BD70B55E4D044699
:106A10000222296820202031FFF793FB2968200AF1
:106A2000022201F8200F20204C70BDE87040FFF7D3
:106A300065BB10B5544C0222202021682031FFF79D
:106A400080FB2068008C40BA10BD10B54E4C1E2053
:106A500021681E31FFF793FB20684949807FC0F30E
:106A60008000087210BD70B5474D04461D2029688E
:106A70001D31FFF784FB2868417F01F0FE012143AF
:106A800041771D20FFF757FB3D48447270BD10B59C
:106A90003D4C1D2021681D31FFF771FB20683849EE
:106AA000407F00F00100487210BD35498872704780
:106AB0003348807A70473249C87270473048C07A8C
:106AC000704710B5044630482146006880F82440DD
:106AD0002420FFF730FB2A48047310BD10B52A4C60
:106AE000242021682431FFF74AFB2068244990F8CC
:106AF0002400087310BD22490861704720480069CE
:106B000070471F49486170471D484069704710B57C
:106B100004461D482146006880F822402220FFF7E5
:106B20000AFB1748047610BD10B5174C22202168C7
:106B30002231FFF724FB2068114990F822000876E3
:106B400010BD70B5104C05464D2021684931FFF746
:106B500016FB216809200931FFF711FB2168487AEB
:106B600000060AD515B1872081F8490091F849102F
:106B7000BDE870404D20FFF7DEBA8420F4E7000046
:106B80006000002080844E405000002010B5544C1E
:106B90004D2021684931FFF7F2FA206890F849004A
:106BA000C043400701D0002010BD012010BD70B5CA
:106BB0004B4D0446092029680931FFF7E0FA28689F
:106BC000417A01F07F0121434172BDE87040092004
:106BD000FFF7B1BA10B5424C092021680931FFF71F
:106BE000CEFA2068407A20F07F0010BD70B53C4D91
:106BF00004460A2029680A31FFF7C1FA286824F000
:106C0000F002817A01F0F00111438172BDE8704019
:106C10000A20FFF790BA10B5314C0A2021680A31DA
:106C2000FFF7ADFA2068807A20F0F00010BD70B553
:106C30002B4D0446022229681E201E31FFF781FADF
:106C40002968032202EA142211F81E0F00F0FC004A
:106C5000104308704C70BDE8704002221E20FFF700
:106C60004DBA10B51E4C02221E2021681E31FFF7BE
:106C700068FA2068C17F807F20F0FC0041EA002094
:106C800010BD70B5164D0446262029682631FFF741
:106C900076FA286810F8261F01F0F70141EAC401CE
:106CA0000170BDE870402620FFF745BA10B50C4CC6
:106CB000262021682631FFF762FA206890F8260026
:106CC000C0F3C00010BD10B5054C31202168303133
:106CD000FFF755FA206890F8300000F0070010BD6B
:106CE00050000020EFF3108072B6704780F31088D8
:106CF00070471D484FF0FF010170002080F30988A4
:106D00001A48012101701A484FF08051016062B6A3
:106D1000FEE717484FF080510160704714484FF06C
:106D200080510160704772B6EFF3098028B12038B6
:106D300080E8F00F0F490968086000B50E488047E9
:106D40005DF804EB0D480E490A78027009480D49B8
:106D50000A680260106890E8F00F203080F309881C
:106D60004EF0040E62B6704722ED00E0870000206E
:106D700004ED00E0A00000200F6E00088400002059
:106D800085000020A80000202849002008807047C6
:106D9000704770477047704770474FF080731360BB
:106DA000131F1860A2F108006FF001030360001FB9
:106DB0004FF012330360001F4FF003330360001FD6
:106DC0004FF002330360001F5B100360001F01607F
:106DD000001F4FF011310160001F19010160001FF9
:106DE0004FF009310160001FD9000160001F4FF012
:106DF00007310160001F4FF006310160001F4FF0A6
:106E000005310160980042F83C0D1046704770470C
:106E1000704706480188491C89B20180642903D360
:106E20000021018002F098BB704700007C00002028
:106E30000246002005E000BF401C02F8013BC0B242
:106E4000491C0B78002BF7D10021117070472DE9F8
:106E5000F0410E460546140006D045B14EB1FB4840
:106E6000807840B1112010E00020BDE8F0810420BE
:106E70000BE00C2009E02878012808D0022806D071
:106E8000032804D0042802D001201070ECE7FFF79B
:106E900029FF074605F113013046FFF7C9FF0546F4
:106EA0003846FFF723FF002020702846DDE7014623
:106EB000002002E0401CC0B2491C0A78002AF9D127
:106EC00070472DE9F0410E4605461400CDD02DB196
:106ED00036B1DE48807828B112200DE004200BE0A6
:106EE0000C2009E02878012808D0022806D00328C1
:106EF00004D0042802D001201070B6E7FFF7F2FE9C
:106F000007463046FFF7D3FF0F2804D93846FFF76E
:106F1000EDFE0B2008E0314605F11300FFF788FF76
:106F20003846FFF7E3FE002020709EE770B510F8AA
:106F3000343F84784578086809E0C618F27AAA4395
:106F4000F27202D1827AA243827251F8040F0028B1
:106F5000F3D170BD70B5FFF7C5FEBC4C0546A078F7
:106F600098B9E07888B900F0FFFBB949607951F829
:106F70002010A1622279904207D0886B401C886360
:106F8000E068401CE060FFF7C4FE2846BDE87040A2
:106F9000FFF7ACBEF0B5AD4A0021136AC3E9071094
:106FA00001680FE093F8345001F10B0493F8357049
:106FB0002E5D3E432E558C7A93F836502C438C72BE
:106FC00050F8041F0029EDD1106AA04C90F834301D
:106FD000343490F83550E15CA943E15404D190F881
:106FE0003610907988439071F0BD2DE9FF5F164609
:106FF0000E9F0C4682466FB10420BAF1000F23D0D9
:1070000014B30EB34FF0000BC4F800B05046DAF8DA
:1070100000100EE0002004B0BDE8F09F09780129BF
:1070200005D0022903D0032901D001200CE050F83B
:10703000041F0029F2D18548817809B1022003E0BC
:107040008248C07810B10D203870E3E7FFF74AFEA0
:1070500000238446994619465246DAF8005043E028
:107060002878012815D002281CD0032805D06046B6
:10707000FFF73CFEC4F800B089E0288930B1401E1B
:10708000288120C4012346F804BB24E041F001011B
:1070900028E0686818B101C6C5F804B019E041F0ED
:1070A00002011FE06868B0F81680B8F1000F17D031
:1070B000036903F10408C0F810801B6808C6D0F803
:1070C00008800369434501D143680361C38A5B1E9D
:1070D000C38220C4012309F101001FFA80F901E0F5
:1070E00041F0040152F8045F002DB9D1012B20D0EA
:1070F000564841F08001D846006A10F8302F0A4304
:1071000000F8022980F803B0039901805046FFF788
:1071100041FF6046FFF7EAFDFFF71CFFFFF7E2FDC6
:1071200084464A48006A90F8311051B1022914D1BE
:1071300007E05D466046C4F800B0FFF7D7FD3D703C
:1071400040E0C56935B1E4E8015809F101001FFAD2
:1071500080F905E0012180F831105146FFF7E6FE85
:107160003A49086A90F831202AB1022AC6F800800C
:1071700018D00A2017E02A78012A0ED0022A0CD053
:10718000032A07D06046FFF7B1FDC4F80080012054
:10719000387017E0C6F8008001E0406A306087F878
:1071A000008001E00E203870096A604681F8308066
:1071B00081F8318041F81C8FC1F80480C1F8088043
:1071C000FFF794FD484626E77CB5214D002469462B
:1071D000204601F017FE58B955F8240040B10128A7
:1071E00006D0D0E9021201EB820141640199816469
:1071F000641CE4B23F2CEAD97CBD144C02E0C820E8
:1072000001F0C4FE60780028F9D06421606900258F
:10721000B0FBF1F0606118B92570FF2001F031FE7C
:10722000FFF760FDE169C4E90615FFF75FFDD4E9EA
:107230000510B0FBF1F0C0F164002070FFF7ACFD69
:10724000FFF7C2FF642001F0A1FEE9E78000002003
:10725000D40F0020F64C00BFFFF744FDE169491C44
:10726000E161FFF743FDFFF796FDF5E7002203E03C
:10727000491E00F8012B89B20029F9D1704770B579
:1072800086B0FFF781FDEA4B00241C639C70DC7024
:107290001C72DC71DC60DC619C615C615C709C7107
:1072A00003F134004FEA0401491CC9B200F8014B54
:1072B0000829F9D31C715C719C624FF4CF61DD48E1
:1072C0001C62FFF7D3FF4FF48071DB48FFF7CEFF5E
:1072D000D848002100F15C023F25426180F84C5003
:1072E00080F84D40491CC9B25C305C321129F4D39E
:1072F000446180F84C5080F84D40CE48DC625862C2
:107300004FF4B471A0F5CD60FFF7B0FFCB4800217A
:1073100000F1240200F8044B491C40F80F2B89B2FD
:1073200000F8015B243200F8104B0929F2D30470F5
:107330004460C5740475C148186100F0FAFC00F09F
:1073400003FE01F0C0F88026BD48CDE90106BA4A27
:1073500003254FF6FF703F23121F00210090AFF26C
:107360000B10CDE9034501F06FFB05AAB5A13F2045
:1073700001F0C1FCB748CDE90106B14A4FF6FE70F5
:107380003E23121F00210090AFF29110CDE903457A
:1073900001F05AFB05AAB0A13E2001F0ACFC02F0BE
:1073A00014F906B0BDE87040FFF7F2BCA049C879F7
:1073B000012804D18878FF2801D2401C88707047CA
:1073C00070B59B4CE079012822D1FFF78BFC054674
:1073D000A07820B1401E10F0FF00A07013D1E0781B
:1073E00088B900F0C1F99448617950F82100A06291
:1073F0002279914207D0816B491C8163E068401C6F
:10740000E060FFF78BFC2846BDE87040FFF76EBCDC
:1074100070BD10B5864CE07901280CD1FFF762FCF5
:10742000A17821B9E178FF2901D2491CE170BDE8BA
:107430001040FFF75BBC10BD10B57D4CE079012812
:1074400013D1FFF74FFCE17831B1491E11F0FF0174
:10745000E17001D1A17819B1BDE81040FFF746BC39
:10746000FFF744FCBDE8104074E510BD10B5704C4A
:10747000E07900280CD100F077F960796E4920712D
:1074800051F82000A0622062BDE81040FFF731BC37
:1074900010BD10B5022001F079FDFFF723FC644C0C
:1074A0000021E161FFF722FC642001F06FFDFFF78E
:1074B00019FCE169616101216170BDE81040FFF7CD
:1074C00015BC2DE9F041FFF7A4FCFFF70BFC584D6C
:1074D000296B491C2963FFF709FCE87901283ED193
:1074E000687A0126002720B1012838D0022802D06E
:1074F0006F72EC6A2FE06E72FBE700BFFFF7F2FBE2
:10750000E18D29B3491E0904090CE18520D194F8C5
:10751000301011F0370F06D021F0370184F8301009
:1075200084F8316001E084F8317094F83010090774
:107530000ED494F83610AA791143A9713C4A94F8F4
:107540003410343294F835C0535C43EA0C0353547E
:107550006469FFF7CBFB94F832003F28CED184E476
:107560004FF48F707047704710B590F8342090F842
:1075700035408B18DA7AA243DA7204D18A7A90F80D
:10758000360082438A7210BDF0B50546807A364CCB
:107590000027205C2E18F67AA45D04EBC004E6B246
:1075A000254C54F82640E785616294F830109143E9
:1075B00084F8301084F8313009070BD41C4994F852
:1075C00036208B791A438A71343194F835300A5C4D
:1075D0001A430A5429462046FFF7C6FF216A19B10B
:1075E0002046FFF7A3FCE5613046F0BD30B51049F9
:1075F00000F10B020B6A43F81C0F1C7E5B7EA55C3E
:107600001D43A5540A6A837A92F836402343837255
:1076100092F8340001F1340492F83550235CAB4306
:10762000235404D192F8362088799043887130BD74
:1076300080000020D4100020D40F00206C0A00200D
:10764000D40D002075432F4F532D49492049646CB8
:1076500065000000D40B002075432F4F532D49497E
:107660002053746174000000E89C000800228272BC
:1076700011460B30491CC9B200F8012B0829F9D377
:10768000704705E011F8013B521E00F8013B92B231
:10769000002AF7D170472DE9F05F9846DDE90ABA74
:1076A00091460D460746FFF71DFB354E746A002CC8
:1076B00056D0616918347162FFF718FB44F8185C02
:1076C000A776002525766576E58244F80CBC44E96A
:1076D00005A90C9824F8080CFB0824F8068CE5771B
:1076E00007F007020120237700FA03F1E276A17781
:1076F000904060776560A5602561E5602562A562C0
:107700006562E5623F20256384F8340084F83550D3
:10771000183C2046FFF77CFB2046FFF73AFBFFF7BB
:10772000E1FA0146174840F82740F06AC4E9050528
:1077300000B18461F46294F83600B2791043B071FC
:107740000F4814F8342F34306478835C2343835417
:10775000307A401C30720846FFF7C8FA00205BE41C
:10776000FFF7C4FA422057E40549074A01F1340300
:107770008879105C1B5CD25C02EBC00048717047DA
:1077800080000020D40F0020E89C00082DE9F04183
:107790000D4606461F00144605D03EB13078052838
:1077A00006D0012018700020BDE8F0816E20F9E7B6
:1077B00014F0800002D022F08004012080460020D6
:1077C0003870FFF78FFA0246702104B3012C24D0E1
:1077D000022C08D0032C12D0FFF788FA00246F2067
:1077E00038702046E0E7308900EA0504AC420AD050
:1077F0001DE0A04319E01046FFF778FAF1E7308961
:1078000010EA050413D0B8F1000FF4D0F1E7308985
:1078100025EA0004AC4204D009E0308935EA0004CE
:1078200005D0B8F1000FE6D020433081E3E739708E
:10783000E1E770B506460D0004D0F848007818B1AD
:1078400010200870002070BDFFF74CFAF4490C6856
:107850006CB162680A6005212170268100263F21F3
:107860006660A172E672FFF741FA2E7003E0FFF73F
:107870003DFA72202870204670BDD0E90012002326
:107880002AB1116001B14A60806883627047C268A2
:1078900000295160F8D04B60F6E710B502468068C9
:1078A0000023C385818590F8301031F0200180F8E5
:1078B000301080F8313005D000241046FFF7DDFF8E
:1078C000204610BDD74990F836300C7823430B7012
:1078D00010F8343FD4494078CC5C0443CC540124A4
:1078E000EBE72DE9F05F88461500044629D02CB15E
:1078F000CA48007820B10F20107021E06E20FBE70D
:107900002078052801D00120F6E7FFF7EBF966683B
:1079100081460EB1012700E00027DFF804B34FF0E5
:10792000000AB8F1000F06D0B8F1010F22D0FFF71E
:10793000DDF9072003E037B1FFF7D8F949202870B7
:107940002046BDE8F09F3F20A07284F80BA084F889
:1079500000A0DBF800106160A4F808A05646484675
:10796000CBF80040FFF7C2F91AE000213046FFF7DC
:1079700094FF3668002EF8D13F20A07284F80BA047
:1079800084F800A0DBF800106160A4F808A0564657
:107990004846CBF80040FFF7A9F90FB1FFF7DAFA34
:1079A0002E700020CDE72DE9F0410E46054614006B
:1079B00016D02DB136B19948007830B1112002E0CF
:1079C0006E2000E00C2010700AE0FFF78BF90746EC
:1079D0002878052806D03846FFF788F9012020705E
:1079E0000020E1E605F10A013046FFF721FA0546DD
:1079F0003846FFF77BF9002020702846D4E62DE9B1
:107A0000F0410E460546140006D035B13EB183481C
:107A1000007830B112201070C6E66E20FBE70C2013
:107A2000F9E7FFF75FF907462878052804D03846BC
:107A3000FFF75CF9012012E03046FFF738FA0F2813
:107A400004D93846FFF752F9732008E0314605F1B2
:107A50000A00FFF7EDF93846FFF748F900202070DB
:107A6000A2E6F0B5714D059F2C6894F8306046F0A1
:107A7000200684F83060002684F83160E785A16232
:107A80000A828B748C604268C860C1E90026426833
:107A900002B1516041602868634B90F8342090F83F
:107AA0003540995CA143995405D190F836205D4842
:107AB000017891430170F0BD2DE9F04F89B09A46ED
:107AC000129D91460F4604462DB144B153480078AB
:107AD00038B1022093E0002009B0BDE8F08F6E209D
:107AE0008DE05348007808B10D2088E02078052803
:107AF00001D0012083E019F0800F03D029F0800924
:107B0000012600E00026FFF7EDF802905FEA090089
:107B10004FF0000B1DD001282FD0022808D0B9F15A
:107B2000030F0FD00298FFF7E1F800206F2154E017
:107B3000208900EA0708B84525D19EB120EA08004F
:107B400020810FE0208900EA07015FEA0108F4D1F3
:107B500019E0218927EA0108B84514D116B141EA94
:107B60000801218131490968A1F82C800298FFF7AA
:107B7000BDF885F800B04046AEE7218927EA01004C
:107B80005FEA0008EAD14B463A4603A92046CDF801
:107B900000A0FFF766FF0298FFF7A8F8FFF7DAF9F1
:107BA000FFF7A0F8DFF884808446D8F8000090F84A
:107BB0003170A7B180F831B05C4603A8FFF75DFED5
:107BC000D8F8000080F830406046FFF78FF80020BA
:107BD000022F01D00A2100E00E2129707CE7878D59
:107BE000AEB15FEA09000FD001280DD0022808D0FD
:107BF000B9F1030F05D06046FFF778F86F202870C1
:107C000069E72089B84301E0208938432081604634
:107C1000FFF76CF885F800B038465DE78200002079
:107C2000BC00002086000020B4000020A00000203E
:107C30008300002010B5FFF755F84E4909688C8D78
:107C4000FFF754F8204610BD2DE9F04117460D46C8
:107C500004461E0028D02CB12078052804D001202D
:107C6000187021E06E20FBE7FFF73CF880462FB14B
:107C7000012F06D0FFF73AF8712014E02089A843BD
:107C800001E02089284320810027656828E0A87C3E
:107C9000A0B1012819D0022808D003280AD04046F4
:107CA000FFF724F86F20307000207DE52189288AB5
:107CB000014007E02189288A014009E0288A2289B9
:107CC00020EA0201884204D009E0298A2089814300
:107CD00029B12846FFF7E1FD012800D101272D68D1
:107CE000002DD4D14046FFF701F8012F01D1FFF755
:107CF00031F9FEF7F7FF2489FEF7F8FF0020307016
:107D0000204651E570B505460C0005D035B1287800
:107D1000052805D001200870002070BD6E20FAE70C
:107D2000FEF7E0FF2D89FEF7E1FF002020702846D6
:107D300070BD10B58C211048FFF798FA0E4800214D
:107D400000F11C020B463F2400F8043B491C40F89C
:107D5000062B89B200F8014B1C3200F8113B0429B4
:107D6000F2D30370436084720449C372024808600E
:107D700010BD0000A00000204C170020BC00002017
:107D80002DE9F04190460F4604461E0022D06220A5
:107D90000CB1A10701D018701CE0022F01D25B20AA
:107DA000F9E7B8F1040F01D25C20F4E7FEF79AFF7F
:107DB0000146744805680DB16A6802600846FEF71E
:107DC00095FF2DB10022204604EB08017B1E08E040
:107DD0005A2030700020BDE8F0810160084641441F
:107DE000521C9A42F9D3002101602F61EF602C6090
:107DF000C5E9014831702846EDE770B504460D002D
:107E000019D084B1FEF76EFF0146206970B1666833
:107E1000401E3268626020610846FEF767FF00205E
:107E20002870304670BD6020087004E00846FEF7F8
:107E30005DFF5D202870002070BD2DE9F0410E46E9
:107E40000546140006D03DB146B14F48007838B120
:107E5000112010700020BEE76020FAE70C20F8E740
:107E6000FEF740FF074605F114013046FEF7E0FF3C
:107E700005463846FEF73AFF002020702846AAE75C
:107E80002DE9F0410E4605461400A4D035B13EB1AF
:107E90003D48007830B1122010709CE76020FBE76D
:107EA0000C20F9E7FEF71EFF07463046FEF7FFFFFE
:107EB0000F2804D93846FEF719FF632008E0314641
:107EC00005F11400FEF7B4FF3846FEF70FFF00205F
:107ED000207080E770B50D4604000AD05DB1FEF752
:107EE00001FFD4E903128A4207D3FEF7FFFE5E20AA
:107EF00070BD602070BD5F2070BD616829606560E5
:107F00002169491C2161FEF7F1FE002070BD70B5AA
:107F10000C46050014D0ACB1FEF7E4FE29682160E0
:107F200069686160A968A160E968E1602969216107
:107F3000FEF7DCFED4E90301401A6061002070BD49
:107F4000602070BD612070BD70B5B4210F48FFF78F
:107F50008DF90E4800210A4603463F2401EBC10576
:107F600003EB85052435456004754275491C89B2CB
:107F700024300429F2D3426004754275014803603D
:107F800070BD0000C000002082000020D817002033
:107F900070B505460C0005D035B12878022805D00B
:107FA00001200870002070BD0420FAE7FEF79AFE59
:107FB0006A680146D08A70B11369181D10611D6886
:107FC000D38A5B1ED3829368984201D150681061B6
:107FD0000020207002E01F20207000250846FEF7D8
:107FE00085FE284670BD2DE9F0410746FE488846CB
:107FF000007810B10020BDE8F081FEF773FEFB4E63
:1080000034680CB161683160FEF770FE34B3FEF77E
:1080100069FE0146F6480568CDB12A680260084647
:10802000FEF764FE07EB8800C5E90170EF602F6181
:10803000A5F814800020E8820221217020813F21D0
:108040006560E17420752046FFF710FB06E030689C
:10805000606008463460FEF749FE00242046CAE707
:108060002DE9F05F8846150004462ED02CB120780B
:10807000022804D00120107026E00420FBE7DA4833
:10808000007808B10F20F6E7FEF72CFE0746A07A2D
:1080900008B1012600E000265FEA0800DFF85093EF
:1080A000DFF848A34FF03F084FF0000B06D001283F
:1080B0002CD03846FEF71AFE072004E03EB13846C1
:1080C000FEF714FE492028702046BDE8F09F84F892
:1080D000138084F814B06168D9F800205E460A6005
:1080E000C9F8001084F800B0DAF800106160A4F854
:1080F00008B03846CAF80040FEF7F8FD2E7024E0BC
:108100000023042219462046FFF73EFAA07A0028F1
:10811000F6D184F8138084F814B06268D9F800307E
:10812000D8461360C9F8002084F800B0DAF80020BF
:108130006260A4F808B03846CAF80040FEF7D6FDE1
:108140000EB1FEF707FF85F800800020BDE710B5EF
:10815000040004D02078022803D0012010BD0420A0
:1081600010BDFEF7BFFD014660684268C260026153
:108170000022C2820846FEF7B9FD002010BD2DE99D
:10818000F04789460646140005D03EB130780228F3
:1081900006D001200DE00020BDE8F087042008E0B3
:1081A0009148007808B1022003E09248007810B1AD
:1081B0000D201070EFE7FEF795FD0746706800256B
:1081C000C18A81B10269111D01611668C28A521EFD
:1081D000C2828268914201D1416801613846FEF74E
:1081E00085FD257036E0DFF81082D8F8000010F821
:1081F000301F41F004010170457020F8029C3046A8
:10820000FFF7F4F93846FEF771FDFEF7A3FEFEF71F
:1082100069FD0746D8F8000090F8311039B10229FD
:1082200008D03146FFF7A0F900260A2004E0466A8C
:10823000257002E000260E202070D8F8000080F89B
:10824000305080F8315040F81C5F456085603846FA
:10825000FEF74CFD30469FE72DE9F0410F460646FC
:10826000150031D02EB131780120022903D01070D1
:108270002AE00420FBE7FEF735FD8046B07AF0B136
:108280000024012F0FD00223042200213046FFF7E3
:108290007BF901244046FEF729FDFEF75BFE0E2028
:1082A00028702046A7E60223042200213046FFF76B
:1082B0006BF9641CB07AE4B20028F4D1EAE74046D6
:1082C000FEF714FD00202870002094E670B50E46DD
:1082D000040004D02078022803D0012070BD0420BF
:1082E00070BDFEF7FFFC0546A07A58B100230422BA
:1082F00031462046FFF748F92846FEF7F7FCFEF71F
:1083000029FE19E06068C18A828A914204D3284616
:10831000FEF7ECFC1E2070BDC1680A1DC2600E6035
:10832000C18A491CC182D0E902128A4201D1416846
:10833000C1602846FEF7DAFC002070BD70B50E461D
:10834000040004D02078022803D0012070BD04204E
:1083500070BDFEF7C7FC0546A07A58B10023042281
:1083600031462046FFF710F92846FEF7BFFCFEF71E
:10837000F1FD18E06068C18A828A914204D32846E0
:10838000FEF7B4FC1E2070BD42680169914201D124
:1083900081680161091F01610E60C18A491CC182A7
:1083A0002846FEF7A3FC002070BD2DE9F0411446DD
:1083B0000D46070004D03878022803D001201AE6C1
:1083C000042018E6FEF78EFC0646B87A28B3E007CC
:1083D00014D00023042229463846FFF7D5F8B87A8E
:1083E0000028F6D110E0000082000020900000205C
:1083F000C400002083000020A000002000230422ED
:1084000029463846FFF7C0F83046FEF76FFC600794
:1084100001D4FEF79FFD0020EDE57B68D88A998A9C
:10842000884204D33046FEF761FC1E20E3E5A00736
:1084300009D559681869884201D198681861001FE8
:108440001861056009E0D868011DD9600560D3E9AD
:108450000201814201D15868D860D88A401CD88274
:108460003046FEF743FCD6E770B50C46050005D054
:1084700034B12878022805D0012070BD042070BDD9
:10848000092070BDFEF72EFC0346A87A207405F182
:108490000B0004F108020021491C10F8016BC9B25D
:1084A00002F8016B0829F7D36868C18A09B101692C
:1084B00009682160C18AA180808AE0801846FEF7A1
:1084C00015FC002070BD10B560210A48FEF7CEFEF5
:1084D000084A002002F1180142F8181B401C80B223
:1084E00018310328F8D300200349106001480860C0
:1084F00010BD00008C180020C400002070B50500DD
:1085000002D02878032801D0002070BDFEF7EAFBD6
:108510002C890CB1611E2981FEF7E8FB204670BD55
:1085200070B50546C648007808B1002070BDFEF75A
:10853000D9FB0146C34804680CB162680260084672
:10854000FEF7D4FB54B103202070258100203F2189
:108550006060E17420752046FFF788F8204670BD02
:108560002DE9F0478846150004462CD02CB1207820
:10857000032804D00120107024E00420FBE7B04859
:10858000007808B10F20F6E7FEF7ACFB0746A07AAB
:1085900008B1012600E000265FEA0800DFF8A49297
:1085A0004FF03F084FF0000A06D0012826D0384689
:1085B000FEF79CFB072004E03EB13846FEF796FB31
:1085C000492028702046BDE8F08784F8138084F89D
:1085D00014A084F800A0D9F800106160A4F808A0E5
:1085E00056463846C9F80040FEF780FB2E701EE064
:1085F0000023012219462046FEF7C6FFA07A002874
:10860000F6D184F8138084F814A084F800A0D9F877
:1086100000206260A4F808A0D0463846C9F800409F
:10862000FEF764FB0EB1FEF795FC85F80080002094
:10863000C9E72DE9F047894606461400C3D026B1A4
:108640003078032803D001200AE0042008E07C48A9
:10865000007808B1022003E07B48007810B10D20BB
:108660001070B0E7FEF73EFB07463089002530B1B9
:10867000401E30813846FEF739FB2570A3E7DFF84E
:10868000CC81D8F8000010F8301F41F001010170D2
:10869000457020F8029C3046FEF7A8FF3846FEF7EA
:1086A00025FBFEF757FCFEF71DFB0746D8F8000038
:1086B00090F8311031B1022906D03146FEF754FF4F
:1086C0000A2002E0257001E00E202070D8F800009A
:1086D00080F8305080F8315040F81C5F45603846D3
:1086E000BDE8F047FEF702BB2DE9F0410F46064614
:1086F000150032D02EB131780120032903D010703B
:108700002BE00420FBE7FEF7EDFA8046B07AF8B1E3
:108710000024012F10D00223012200213046FEF751
:1087200033FF01244046FEF7E1FAFEF713FC0E206A
:1087300028702046BDE8F081022301220021304646
:10874000FEF722FF641CB07AE4B20028F4D1E9E716
:108750004046FEF7CBFA002028700020EAE770B50B
:10876000040004D02078032803D0012070BD042029
:1087700070BDFEF7B7FA0546A07A58B10023012272
:1087800019462046FEF700FF2846FEF7AFFAFEF72F
:10879000E1FB09E020894FF6FF71884206D2401CB8
:1087A00020812846FEF7A2FA002070BD2846FEF779
:1087B0009DFA322070BD70B50D46040005D035B16C
:1087C0002078032805D0012070BD042070BD092049
:1087D00070BDFEF787FA0346A07AA872A81C04F1C0
:1087E0000B010022521C11F8016BD2B200F8016B90
:1087F000082AF7D3208928801846FEF777FA002048
:1088000070BD70B50E460446150005D02CB1207819
:10881000032804D00120107070BD0420FBE7FEF790
:1088200061FA00212970218939B9A17A29B1492138
:108830002970BDE87040FEF759BA2681F9E70000BB
:10884000820000209000002083000020A000002073
:108850002DE9F05F0C4605463F2801D3FF2D01D1DD
:108860003F2C02D32A20BDE8F09FFEF73BFA824658
:10887000F84850F8241021B15046FEF737FA282066
:10888000F1E7FF2D03D1F449096891F8325050F80F
:10889000252022B3012A27D0E108012304F0070E86
:1088A00003FA01F603FA0EF303F0FF09002340F880
:1088B000253040F8242092F83470E84892F835507A
:1088C00092F836B010F807C0F6B21CEA050F20D0B7
:1088D0003CEA050CE24B00F807C00AD00FE0504616
:1088E000FEF704FA2920BEE75046FEF7FFF94320C1
:1088F000B9E793F800C02CEA0B0C83F800C093F89A
:1089000000C04CEA060C83F800C0435C43EA09034C
:108910004354D06998B100EB070C9CF80B30AB4383
:108920008CF80B3003D1837A23EA0B038372837AAA
:10893000334383720844C37A43EA0903C372136A58
:1089400013B318681EE000BF00EB070898F80BC0CF
:108950003CEA050C88F80BC005D190F80AC02CEA57
:108960000B0C80F80AC090F80AC04CEA060C80F89C
:108970000AC0084490F80BC04CEA090C80F80BC000
:1089800053F8040F0028DFD102F8324F504691709F
:1089900082F801E0167182F80390FEF7A7F9B1485A
:1089A0000078012801D1FEF7D5FA00205BE72DE918
:1089B000FE431C4615460F4680463F2B02D92A200F
:1089C000BDE8FE83FEF78EF9A749097819B1FEF7D5
:1089D0008DF93C20F4E79F4E56F8241019B1FEF7AC
:1089E00085F92820ECE7012146F82410FEF77EF9EE
:1089F00000232A4639464046FEF7CFF900250146B6
:108A0000009501952B462A4620460295FEF743FE27
:108A1000070007D0FEF766F946F82450FEF766F91E
:108A20003846CDE78F4800780128F9D1FEF792FA51
:108A3000F6E7D30707D0920705D50022002902D018
:108A400004C0491EFAE770472DE9FF4F83B01C466A
:108A5000DDE91386DDE9119792468B463F2B03D95A
:108A60002A2007B0BDE8F08FFEF73CF97E4909786F
:108A700019B1FEF73BF93C20F3E7764D55F8241089
:108A800019B1FEF733F92820EBE7012145F824104E
:108A9000FEF72CF9324639464846FFF7CAFF3346FF
:108AA000524659460398FEF778F90097CDE90186BA
:108AB00001464A462046109BFEF7EDFD060008D011
:108AC000FEF710F9002145F82410FEF70FF93046A3
:108AD000C7E7644800780128F9D1FEF73BFAF6E7CA
:108AE0002DE9F04705466048007810B14020BDE808
:108AF000F0873F2D04D005D3FF2D03D02A20F6E7C1
:108B00003E20F4E7FEF7EEF80746FF2D03D152486A
:108B1000006890F83250DFF83C9159F825405CB17C
:108B2000012C0ED094F834104C4A94F83530505C37
:108B3000984350540AD00FE03846FEF7D7F8432048
:108B4000D5E73846FEF7D2F83D20D0E7444894F800
:108B50003620017891430170E16911B12046FEF79A
:108B600003FD216A11B12046FEF7E0F9A06A08B1C1
:108B7000FEF783FE4FF00008A4F82E803B4E84F8E9
:108B8000308084F831803078FF2801D2401C30706A
:108B90003846FEF7ABF8FEF7E6FCFEF7A3F807460B
:108BA000307808B1401E30702046FEF7F3F83049A7
:108BB0000878401E087049F82580A1694046A1B197
:108BC00062694A61D4E905128A612A490A686261C8
:108BD0000C603F2104F84C1F60703846FEF786F8A1
:108BE00020480078012806D007E06169224A8861A0
:108BF00061691160E9E7FEF7ADF9002077E710B58C
:108C000004463F2804D00FD3FF2803D02A2010BDEC
:108C10003E2010BDFEF766F80F49096891F837400D
:108C2000FEF764F8204610BDFEF75CF801460948DF
:108C300050F8240048B1012820D03F2280F8372086
:108C40000846FEF753F8002010BD0846FEF74EF820
:108C5000432010BDD40F0020A0000020B40000204D
:108C60008600002087000020820000208300002072
:108C700088000020A4000020AC0000200846FEF779
:108C800035F83D20E5E72DE9F0410E460546140094
:108C90002FD03F2D03D9FF2D01D02A2006E026B189
:108CA000B448007820B1112000E00C20107020E0C2
:108CB000FEF718F80746FF2D03D1AF48006890F87B
:108CC0003250AE4850F82510432571B101290CD01F
:108CD00030464C31FEF7ACF805463846FEF706F84C
:108CE000002020702846BDE8F0813846FDF7FEFFE1
:108CF00025700020F7E72DE9F0418846054614006D
:108D0000F1D03F2D03D9FF2D01D02A2006E0B8F184
:108D1000000F05D09748007820B112201070E2E7CC
:108D20000C20FBE7FDF7DEFF0646FF2D03D192483E
:108D3000006890F832509148432750F825505DB1B3
:108D4000012D09D04046FEF7B2F80F2809D9304668
:108D5000FDF7CCFF41200DE03046FDF7C7FF27703F
:108D6000C1E7414605F14C00FEF762F83046FDF7D9
:108D7000BDFF00202070B6E710B504463F2801D3A0
:108D80002A2066E7FDF7AEFF01467C4850F8240034
:108D900058B101280ED090F8302013072DD532F0AD
:108DA000080280F830200AD00BE00846FDF79EFF4D
:108DB00046204EE70846FDF799FF432049E7C28D5C
:108DC00022B10846FDF792FF002042E76C4A90F876
:108DD000363014782343137010F8343F694A4078D2
:108DE000D45C0443D4540846FDF780FF66480078FD
:108DF0000128E9D1FEF7AEF8E6E70846FDF776FF71
:108E0000442026E72DE9F0410C4605463F2803D9CA
:108E1000FF2D01D02A2066E744B100202060606069
:108E2000FDF760FF0146FF2D02D005E009205AE75B
:108E30005148006890F83250504850F8250058B119
:108E4000012809D0027CD2070BD0D0E90276002598
:108E50000846FDF74BFF0AE00846FDF747FF4320B1
:108E600041E70846FDF742FF45203CE76D1C01CF76
:108E70000028FBD0A8002060701B800060600020EC
:108E800031E770B504463F2804D005D3FF2C03D04A
:108E90002A2070BD472070BDFDF724FF03463648E9
:108EA000FF2C006805D090F83200A04204D10125C3
:108EB00003E090F83240FAE70025304850F82400EB
:108EC00058B101280ED090F834202E4C90F835601F
:108ED000A15CB143A1540AD00FE01846FDF706FF8C
:108EE000482070BD1846FDF701FF432070BD24499E
:108EF00090F836400A78A2430A7010F8301F41F00B
:108F0000080101701846FDF7F1FE0DB1FEF722F8D9
:108F1000002070BD70B50D4604463F2803D9FF2CD4
:108F200001D02A2070BD2DB1FDF7DCFE0646FF2CD6
:108F300002D005E0092070BD0F48006890F832406B
:108F40000E4850F8241051B101290DD05C2228465A
:108F5000FEF797FB3046FDF7C9FE002070BD304696
:108F6000FDF7C4FE292070BD3046FDF7BFFE43204B
:108F700070BD000082000020A0000020D40F00205F
:108F800086000020B40000208700002070B5044651
:108F90005E48007800281DD1002C1BD0FDF7A2FEF2
:108FA00003465B485B4D016891F8340091F83560E9
:108FB0002A5CB2432A5405D1574891F836500278BA
:108FC000AA430270CC851846FDF790FEBDE87040BC
:108FD000FDF7C0BF70BD70B54C4C24780CB1552066
:108FE00070BD00B919B13B2902D9512070BD1AB129
:108FF0003B2A02D9522070BD2BB14FF47A74A342A0
:1090000003D3532070BD542070BD4FF47A756B4369
:10901000B3FBF4F34FF461646043C1EB011100EB67
:109020008100104400EB4001C1EBC01003EBC00015
:10903000040C80B2FFF7AAFF4FF4004507E0284672
:10904000FFF7A4FF2846FFF7A1FF641EA4B2002C7F
:10905000F5D1002070BD10B504463F2801D32A2069
:1090600010BDFDF73FFE01462C4850F8240090B19A
:10907000012810D0C28D9AB10023C38590F830200A
:1090800012F0370F11D022F0370280F83020012281
:1090900080F831200BE00846FDF728FE432010BD84
:1090A0000846FDF723FE502010BD80F8313090F8BF
:1090B0003020120712D4184A90F83630147823431F
:1090C000137010F8343F134A4078D45C0443D454EE
:1090D0000846FDF70BFEFDF73DFF02E00846FDF7F1
:1090E00005FE002010BD10B5FDF7FCFD0C490C6815
:1090F000FDF7FCFD204610BD10B50446FDF7F2FD5E
:1091000007490C60BDE81040FDF7F0BD820000206B
:10911000A0000020B400002086000020D40F002012
:10912000B00000202DE9F05F9B46DDE90BA5174656
:10913000894680462DB1012F0BD0022F04D0842008
:1091400041E00020BDE8F09FB9F1000F04D1832079
:1091500039E0B8F1000F04D0F648007818B18B2040
:1091600031E082202FE000F094FAF34800260468F2
:1091700034B3E1680160F149E66026610888401C6B
:109180000880EF490888401E0880012084F83100DB
:10919000C4E9068984F83070C4F804B00A98A06065
:1091A000BAF1000008D0FDF782FE10280DD251461A
:1091B00004F12000FDF73CFE00F067FA2E700DE090
:1091C00000F063FA86202870BBE7232084F8200093
:1091D00084F821608C20287000F057FA2046B1E70F
:1091E000002180F8311080F83010C1614161416088
:1091F0003F22816080F8202080F821100161CE4953
:109200000A68C2600860CD490888401E0880CC49C1
:109210000888401C0880704710B5017DC94A01F0DC
:10922000070102EBC10200231468C168844203D124
:10923000116029B10B6103E00469E16001B10C61C7
:10924000012180F83110C36003619088401E908036
:1092500010BD70B505460C002CD02DB128786428BF
:1092600004D08920087025E08A20FBE7B148007807
:1092700008B18B20F6E700F00CFA95F83100A8B1A0
:10928000002601280AD0022808D0032803D000F0C5
:10929000FCF98D200DE02846FFF7BEFF2846FFF7BA
:1092A0009FFF00F0F2F92670012070BD00F0EDF98B
:1092B00087202070002070BD70B50E460546140052
:1092C0002FD02EB135B12878642806D0892002E04D
:1092D000882000E08A20107023E09648007808B1CA
:1092E0001120F8E700F0D5F995F83100A8B1012870
:1092F00007D0022805D0032803D000F0C6F98D203E
:109300000EE005F120013046FDF792FD054600F024
:10931000BCF900202070284670BD00F0B6F9872007
:109320002070002070BD2DE9F04105460C003BD0B7
:109330002DB12878642804D08920087034E08A2070
:10934000FBE77C48007808B18B20F6E700F0A1F934
:1093500095F8310020B30027012811D002281BD036
:10936000032803D000F091F98D201CE0764968694C
:109370000968451A00F089F927702846BDE8F08190
:1093800095F83000AE69022801D106B9EE6900F007
:109390007CF927703046F1E700F077F9277003E099
:1093A00000F073F9872020700020E7E770B50546CC
:1093B0000C0005D035B12878642805D0892007E055
:1093C000002070BD8A2003E05A48007810B18B203D
:1093D0000870F5E700F05DF995F831503DB1012DC9
:1093E00005D0022D03D0032D01D08D2000E00020F8
:1093F000207000F04AF9284670BD032280F8312021
:10940000514A0129126814D0816991B11144416116
:10941000017D4C4A01F0070102EBC10100230A68FB
:10942000086042B1C26010618A88521C8A80036160
:109430007047C169EAE70122C360F7E770B50546E6
:109440000C002DD02DB12878642804D08920087014
:1094500026E08A20FBE73748007808B18B20F6E742
:1094600000F017F995F83100B0B1002601280AD0B4
:10947000022808D0032803D000F007F98D200EE061
:109480002846FFF7C9FE00212846FFF7B6FF00F087
:10949000FCF82670012070BD00F0F7F887202070DE
:1094A000002070BD2DE9F04116460F4605461C0010
:1094B00050D02DB12878642804D08920187049E054
:1094C0008A20FBE71B48007808B18B20F6E700F004
:1094D000E0F895F8310060B3012825D0022823D0A8
:1094E000032803D000F0D1F88D2032E02846FFF7A2
:1094F00093FE002020709FB18F20032F03D0042FF4
:1095000007D084200BE06A684AB12846A9689047D2
:1095100006E06B681BB131462846984700E0207092
:1095200000F0B3F8012029E700F0AFF88E2020709A
:10953000F8E70BE082000020D8000020CA000020DD
:10954000C80000202C1E0020CC00002000F09DF858
:1095500087202070002011E752480068FFF7FFB80D
:1095600008B5DFF84081DFF84091504D6A46002190
:10957000D8F80000FFF75DF800F08BF82868401C71
:10958000286000F00700022759F8304013E06069B6
:109590002968E66888420DD1626812B12046A16848
:1095A00090472046FFF738FE94F83000022807D095
:1095B00084F831703446002CE9D100F066F8D5E724
:1095C00001212046FFF719FFF4E770B588B04FF48A
:1095D00050713748FDF74AFE40213348FDF746FEFB
:1095E00033480021642500F134020C465FF03F034C
:1095F00000F8315B491C00F8254989B240F8142B6A
:10960000343200F8013B0F2900F8134BF0D30570FA
:1096100080F83140C46080F8203080F82140234831
:1096200025490460234804801020088023492048ED
:1096300008600120FEF774FF214D28600020FEF72E
:109640006FFF184E05AA1FA130602868FDF739FC8E
:1096500005AA1FA13068FDF734FC80210291032088
:10966000CDE903401D4A4FF6FD70CDE900023D23D0
:1096700002F5FE7200211A48FFF7E6F906AA19A1C1
:109680003D20FFF738FB08B070BD0D480068FFF7BC
:1096900066B808B50A486A4600210068FEF7C9FFA7
:1096A00008BD0000D40000202C1E0020CC000020AB
:1096B000EC180020CA000020C8000020D8000020BC
:1096C000D00000204F532D546D724C6F636B00001F
:1096D0004F532D546D725369670000002C1C0020FD
:1096E0006195000875432F4F532D494920546D72E1
:1096F0000000000040EA01039B0703D009E008C90D
:10970000121F08C0042AFAD203E011F8013B00F846
:10971000013B521EF9D27047D2B201E000F8012B92
:10972000491EFBD270470022F6E710B513460A46E1
:1097300004461946FFF7F0FF204610BD2DE9FE4F05
:10974000804681EA0300C00F0C46009021F00041E2
:1097500023F00045B8EB0200A94105D2404621465E
:1097600090461C460B46024623F00040104347D06B
:10977000270DC7F30A00C3F30A510290401A019063
:1097800040286BDAC3F3130040F4801B0098924624
:1097900020B10023D2EB030A63EB0B0B019859466F
:1097A000C0F14002504600F088F906460D4650468A
:1097B0005946019A00F0A0F910EB0800614100241D
:1097C00087EA115284EAE7731A4340D0009A62B3E1
:1097D000019A012A4FEA075215DC001B61EB0201D6
:1097E0004FF0004202EA0752CDE90042001C41F569
:1097F000801132462B4600F0A0F903B0BDE8F08F8F
:1098000040462146F9E7001B61EB0201001C41F5CF
:10981000801300185B412018A2F5001747EB0301E5
:1098200040EAD570B6196D4111E06D084FEA360671
:1098300045EAC0754FEA0752001B61EB0201001CAC
:1098400041F5801149084FEA300000195141324674
:109850002B4603B0BDE8F04F00F060B9009801223C
:1098600040000023D0EB020263EBE0730098214636
:109870004FEAE074B8EB000061EB0401E9E783F024
:1098800000435BE781F0004158E72DE9FE4F81EA94
:10989000030404F0004421F0004100944FF0000B59
:1098A00023F0004350EA01045ED052EA03045BD087
:1098B000C3F30A54C1F30A552C44A4F2F3340194BF
:1098C000A0FB0254C1F3130141F48011C3F313034D
:1098D00043F4801301FB024400FB034E840A970A01
:1098E00044EA815447EA8357A4FB076802958D0A2E
:1098F00005FB07854FEA932C04FB0C542705029DBA
:109900004FEA065847EA1637B5EB08056EEB070C29
:10991000870E920E47EA811742EA8312A7FB0201E3
:10992000B6EB0B0164EB00042B0D43EA0C335E181D
:1099300044EB1C50DA465146E7FB0201C5F3130421
:109940004FEA0B3343EA14534FEA0432019C43EAD3
:109950000603A4F10C040294009CCDE900B400F0CD
:10996000ECF803B0BDE8F08F00200146F9E72DE9DF
:10997000F04D81EA030404F0004B21F00045144649
:109980004FF0000A23F0004150EA050220D054EACB
:1099900001021DD0C5F30A570246C5F31303C1F3F4
:1099A0001300C1F30A5640F4801543F48013A7EB6B
:1099B0000608101BD64608F2FD3873EB050002D3EB
:1099C00008F1010801E092185B41B8F1000F03DAD9
:1099D00000200146BDE8F08D00204FF480110646BE
:1099E00084460EE0171B73EB050705D3121B63EBD0
:1099F000050306434CEA010C49084FEA300092186F
:109A00005B4150EA0107EDD152EA030012D082EA2D
:109A1000040083EA0501084305D0101BAB4106D2C0
:109A20000122002306E000224FF0004302E06FF025
:109A3000010253101AEB06004CEB085110EB0A0020
:109A400041EB0B01BDE8F04D00F068B80EB5C10F59
:109A500080EAE0700844CA07002140F233438DE8F1
:109A60000E000A460B4600F068F803B000BD0EB5C4
:109A700040F2334102910021CDE900110A460B4624
:109A800000F05BF803B000BDC1F30A5210B5C1F39A
:109A9000130140F2FF3341F480119A4201DA0020B1
:109AA00010BD40F233439A42A2F2334203DC5242E9
:109AB00000F012F810BD904010BD202A04DB203ABF
:109AC00000FA02F1002070479140C2F1200320FA11
:109AD00003F3194390407047202A04DB203A21FA0F
