:020000040800F2
:104000008024002025680008D7420008D942000813
:10401000DD420008E1420008E5420008000000001F
:10402000000000000000000000000000E94200085D
:10403000EB4200080000000057800008C94100085A
:104040003F6800083F6800083F680008D542000844
:104050003F6800083F6800083F6800080142000808
:104060003F6800083F6800083F6800083F68000894
:104070003F6800083F6800083F6800083F68000884
:104080003F6800083F6800083F6800083F68000874
:104090003F6800083F6800083F6800083F68000864
:1040A0003F6800083F6800083F6800083F68000854
:1040B000EB4100083F6800083F6800083F680008BF
:1040C0003F6800083F6800083F6800083F68000834
:1040D0003F6800083F6800083F6800083F68000824
:1040E0003F6800083F6800083F680008DFF80CD010
:1040F00007F034FD004800474941000880240020B3
:1041000010B504460B23214A0021214806F09DFAF0
:104110000723204A0021204806F097FA08231F4A67
:1041200000211F4806F091FA0A231E4A00211E486A
:1041300006F08BFA03211D4805F0AFFC1C4908600E
:10414000FF2006F038FB10BD08B51A481A49086070
:1041500000F0BBFB009019480099016040780128ED
:1041600005D1002015494870084600F0A0FB00F07A
:10417000AFFB04F0DCFB0423114A0021114806F0D8
:1041800064FA04F0BEFC002008BD0000E803002033
:1041900029430008E80500204F450008E8070020F3
:1041A00031440008E80A0020C9430008EC0A002056
:1041B000040000200040000808ED00E00800002096
:1041C000E80100200141000810B503F023FF044678
:1041D00047480078401C46490870204603F01EFFFF
:1041E00004F0C6FC04F0CBFB10BD10B5012188071C
:1041F00002F059F818B10121880702F065F810BDE6
:1042000010B5022002F046F9002862D0022002F028
:1042100052F90221374802F04AFA28B100214FF042
:10422000804002F00BF854E04FF0804002F029F893
:10423000044631480078D8B3B4F5487F08DDB4F5BA
:10424000AF6F05DA2D48006840002C4908601BE07C
:10425000B4F5486F0DDDB4F5616F0ADA27480068E0
:104260004000264908600846006840F001000860E8
:104270000AE041F26800844206DD41F27070844237
:1042800002DA00201C4908701D480078401C1C49B7
:1042900008700846007820281AD1012019490870B2
:1042A00000201549087015480068174908600FE09C
:1042B000FFE7B4F5FA5F0BDD42F21070844207DAD3
:1042C00001200D49087000200D4908700B49086055
:1042D00000BF10BD7047704700BFFEE700BFFEE79C
:1042E00000BFFEE700BFFEE7704770477047000061
:1042F000A5000020000C0140140000201800002040
:10430000150000200C0000201000002010B502460F
:104310000B460020002104E0545C0444E0B24C1C35
:10432000A1B29942F8DB10BD08B500F09AF908B1C6
:10433000012000E000203B4948700020087033E075
:1043400000F08FF937494978884229D0601CC0B203
:1043500004460C2825DD00243248407808B90120A5
:1043600000E000202F4948700846007808B9012075
:1043700000E000202B490870087800F061F9294915
:10438000087800F065F90120264B072200210090F3
:10439000084600F0ADF84FF4FA7006F0C9FC00E0F2
:1043A00000240A2006F0C4FCCAE70CE00023052222
:1043B0001946184606F0ECFC1A480021C160017449
:1043C0000C3000F0C9FBF1E708B529E01648007889
:1043D00018B3002014490870144CE078E0B9A078B4
:1043E000FD2819D16078802816D10E48007808B9C8
:1043F000012000E000200B490870087800F020F947
:104400000849087800F024F90120064B0722002112
:104410000090084600F06CF800BF642006F088FCAD
:10442000D4E70000F80A00200C0000201000002053
:104430001CB551E001AA00212848006805F019FCCC
:1044400004466078012806D003281BD0052825D013
:1044500011283CD126E0A07808B1012000E000201E
:104460001F490870087800F0EBF81D49087800F043
:10447000EFF8012000902078194B0222002100F073
:1044800037F824E0642006F053FC012000902078E7
:10449000134B0422002100F02BF818E0642006F0F2
:1044A00047FC14E001200F494870084600F0FFF96E
:1044B00000BF0D48006800F4E0600C490843001D8F
:1044C00009490860BFF34F8F00BF00BFFEE700BF80
:1044D000322006F02DFC00BFACE7000004000020F5
:1044E000F80A0020080000200CED00E00000FA05AA
:1044F0002DE9F04391B00546894616461F46DDF882
:10450000608008F10500C4B242208DF804008DF8E7
:1045100005408DF80650474800788DF807008DF863
:104520000860424639460DF1090007F0A5F821461A
:1045300001A8FFF7EBFE01A90855611C01A802F0D4
:10454000E4FC642006F0F4FB11B0BDE8F08392B007
:1045500002F09CFC02F0CCFC6AE002F0E8FC0228CD
:1045600005D0032802D004285DD159E05CE001A900
:1045700002A802F0C2FC9DF8080042284FD1BDF805
:1045800004000A284BDABDF80400401E81B202A8DC
:10459000FFF7BCFEBDF80410491E02AA515C884218
:1045A0003DD19DF80B0023490978884237D1224834
:1045B000C07A401CC0B22049C872032190FBF1F2BE
:1045C00001FB12001C49C8729DF80A101A48C07AF3
:1045D00000EB40021848801C81549DF80C10801E8E
:1045E000C07A00EB40021448801C104441709DF8D2
:1045F0000D101148C07A00EB40020F48801C104497
:1046000081700D48C07A00EB40020B48801C1118E5
:104610000A48006805F00BFC0A2006F089FB03E05D
:1046200002F066FC00E000BF00BF0A2006F080FB3D
:1046300093E7000008000020F80A00200400002092
:1046400010B5044622462021A84802F04EF810BDBD
:1046500010B5044622464FF48061A54802F045F8A3
:1046600010BD10B54FF48071A14802F020F808B1D8
:10467000012000E000200446204610BD30B585B082
:10468000684600F0C0FC4FF47A720198B0FBF2F17A
:10469000B1F1807F00D31DE021F07F40401E4FF03C
:1046A000E022506150170F22002807DA13071D0E71
:1046B000904B00F00F04241F1D5503E013071C0E40
:1046C0008D4B1C5400BF00204FF0E022906107206A
:1046D000106100BF05B030BD0EB50121022000F011
:1046E0000CFD684601F0E6FA4FF48070ADF8060064
:1046F0001020ADF802006320ADF804005320ADF89F
:10470000000069467D4800F0A9FF00BF7B481030DB
:10471000008800F001000028F8D04FF6FE707749BD
:10472000103108800EBD411E744A24321180734935
:10473000098841F00101714A118000BF6F491031B1
:10474000098801F001010029F8D04FF6FE716B4A8B
:10475000103211806949098821F00101674A1180EE
:1047600070470EB50121084600F0C7FC684601F00D
:10477000A1FA0020ADF80600ADF802004FF6FF7078
:10478000ADF804001320ADF8000069464FF08040FA
:1047900000F064FF0121880701F0BCFA0EBD08B5E6
:1047A0004FF4A06001F094FDFF208DF8000001207F
:1047B0008DF8010000208DF8020001208DF8030023
:1047C000684601F08AFD1C208DF8000001208DF85C
:1047D00001008DF802008DF80300684601F07DFDB0
:1047E00007208DF8000000208DF8010001208DF8D1
:1047F00002008DF80300684601F06FFD08BD08B5A2
:104800000121042000F06CFC0121082000F068FC6C
:104810004FF48070ADF8000048208DF803000320AD
:104820008DF802006946324801F0AEFE4FF4806018
:10483000ADF8000010208DF8030003208DF8020071
:1048400069462B4801F0A0FE2020ADF800001020A2
:104850008DF8030003208DF802006946234801F01B
:1048600093FE0220ADF8000048208DF803000320DD
:104870008DF8020069461D4801F086FE08BD1CB592
:104880000121084600F02CFC0121084601F092FFAE
:104890000220009000208DF8040010208DF8050003
:1048A00001208DF80600684601F08EFD1CBD10B594
:1048B000044601F0E8FF124802F02AF81048216887
:1048C00002F0F6F801F0EBFF10BD0D4800687047EC
:1048D00010B5FFF764FFFFF7D1FEFFF790FF00F080
:1048E0004AF8FFF73EFFFFF7CAFF10BD000C01407A
:1048F0000008014018ED00E000E400E00004004082
:10490000003C000800B587B00121880300F0F5FBEA
:104910004FF46040ADF8180003208DF81A001820FD
:104920008DF81B0006A9554801F02EFE0020ADF8B9
:1049300004004FF48270ADF806000020ADF80800C6
:10494000ADF80A00ADF80C004FF40070ADF80E00A1
:104950003020ADF810000020ADF812000720ADF8AF
:10496000140001A9464800F045FC0121444800F02C
:10497000E6FC07B000BD00B587B00121080300F0D8
:10498000AFFBE020ADF8180003208DF81A001820C6
:104990008DF81B0006A93B4801F0F6FD0020ADF89C
:1049A00004004FF48270ADF806000020ADF8080056
:1049B000ADF80A00ADF80C004FF40070ADF80E0031
:1049C0003020ADF810000020ADF812000720ADF83F
:1049D000140001A92C4800F00DFC01212A4800F028
:1049E000AEFC07B000BD0246002105E0481CC1B284
:1049F000C82901DD002070472348008900F002002B
:104A00000028F3D020488281002105E0481CC1B273
:104A1000C82901DD0020EEE71B48008900F00100F5
:104A20000028F3D018488089C0B2E4E7024600218C
:104A300005E0481CC1B2C82901DD002070471048BC
:104A40000830008800F002000028F2D00C480C303A
:104A50000280002105E0481CC1B2C82901DD002008
:104A6000ECE707480830008800F001000028F2D089
:104A700003480C300088C0B2E0E70000000C0140A1
:104A800000380040000801400030014008B54020D7
:104A9000ADF8000003208DF8020004208DF803001B
:104AA0006946474801F070FD08BD08B54020ADF8E3
:104AB000000003208DF8020010208DF803006946E5
:104AC0003F4801F061FD08BD10B5FFF7EEFF402142
:104AD0003B4801F008FE44F63820FFF724FE402151
:104AE000374801F0FEFD1E20FFF71DFEFFF7CEFF49
:104AF00010BD10B54021324801F0D9FD10BD10B5F0
:104B000000BF40212E4801F0D2FD0028F9D0282016
:104B1000FFF709FE40212A4801F0C9FD012808D10C
:104B200000BF4021264801F0C2FD0128F9D0012034
:104B300010BD0020FCE770B50024002508E04FF60A
:104B4000FF7000EA4404FFF7DAFF0443681C85B2F3
:104B5000082DF4DB204670BD70B50446FFF7B4FFA6
:104B6000FFF7C7FF48BB00BFFFF7C3FF0028FBD01C
:104B700000BFFFF7BEFF0128FBD0002504E0FFF7D0
:104B8000DAFF6055681CC5B2052DF8DB00BFFFF7E2
:104B9000B0FF0028FBD0FFF788FF4021084801F054
:104BA000A0FD04212046FFF7B1FB2179884201D105
:104BB000012070BD0020206020710020F9E7000076
:104BC000000C01408648006840F0010084490860FC
:104BD0000846406848600846406840F40010486055
:104BE0000846406848600846006840F080700860E9
:104BF00000BF7B48006800F000700028F9D07848BA
:104C0000406820F00300764948600846406840F05C
:104C10000200486000BF7248406800F00C0008289D
:104C2000F9D170470CB50020019000906C480068E5
:104C300040F480306A49086000BF6948006800F4A9
:104C4000003000900198401C0190009818B901981C
:104C5000B0F5A06FF1D16248006800F4003010B1E7
:104C60000120009001E0002000900098012843D12D
:104C70005C48006840F010005A4908600846006827
:104C800020F0030008600846006840F00200086059
:104C900053484068524948600846406848600846A2
:104CA000406840F4806048600846406820F47C100A
:104CB00048600846406840F4E810486008460068CC
:104CC00040F08070086000BF4548006800F0007048
:104CD0000028F9D04248406820F00300404948606D
:104CE0000846406840F00200486000BF3C48406809
:104CF00000F00C000828F9D10CBD10B5FFF792FFA9
:104D000010BD10B53648006840F001003449086015
:104D10000846406834490840314948600846006800
:104D2000324908402E4908600846006820F4802077
:104D300008600846406820F4FE0048604FF41F00F9
:104D40008860FFF7DAFF4FF000602949086010BD66
:104D500010B5002100200022214B5B6803F00C01FC
:104D600021B1042906D0082928D107E0214B224C83
:104D7000236027E01F4B204C236023E0184B5B6827
:104D800003F47010164B5B6803F48032022303EBCC
:104D9000904022B9194B4343174C23600DE0104B50
:104DA0005B6803F4003323B1144B4343124C23607C
:104DB00003E0104B4343104C236003E00D4B0E4CBB
:104DC000236000BF00BF064B5B68C3F303130C4CAA
:104DD000E15C094B1B68CB40074C236010BD000011
:104DE00000100240002002400000FFF8FFFFF6FE26
:104DF00008ED00E000127A001C00002000093D00D0
:104E000020000020DF48006840F00100DD49086014
:104E100008464068DC490840DA49486008460068AE
:104E2000DA490840D74908600846006820F4802025
:104E300008600846406820F4FE0048604FF41F00F8
:104E400088607047CF49096821F48031CD4A1160EC
:104E50001146096821F480211160B0F5803F03D02C
:104E6000B0F5802F0ED106E0C649096841F48031C3
:104E7000C44A116007E0C349096841F4A021C14A4E
:104E8000116000E000BF00BF704710B5014600226E
:104E9000002300204A11012A02D1BA4C236806E0FF
:104EA000022A02D1B74C236A01E0B64C636A01F0D2
:104EB0001F02012494401C400CB1012000E000209E
:104EC00010BD38B5002000900024002500BF31201F
:104ED000FFF7DBFF05460098401C00900098B0F5F6
:104EE000A06F01D0002DF2D03120FFF7CEFF08B126
:104EF000012400E00024204638BD01460020A14ADC
:104F0000106820F0F80040EAC10010607047A04926
:104F100008607047024600209A4B586820F47C10C5
:104F200042EA01031843974B586070479849086656
:104F3000704701460020934A506820F00300084360
:104F4000506070478F48406800F00C007047014681
:104F500000208C4A506820F0F000084350607047F1
:104F600001460020874A506820F4E0600843506002
:104F7000704701460020834A506820F4605040EAA0
:104F8000C1005060704729B17E4A527A02437D4B7E
:104F90005A7204E07B4A527A82437A4B5A727047C3
:104FA0007B49D8310860704701460020754A506837
:104FB00020F440400843506070470021714A20327D
:104FC0001170704A82F82010012802D004280AD1FA
:104FD00004E001216B4A2032117005E00521694A85
:104FE0002032117000E000BF00BF704769490860BF
:104FF00070476449096A0143624A11627047654912
:1050000044390860704730B5002100220024002395
:105010005C4D6D6805F00C0121B1042905D008290B
:1050200023D105E05C4D056022E05B4D05601FE08B
:10503000544D6D6805F47012524D6D6805F480345E
:10504000022505EB92421CB9544D554305600BE017
:105050004C4D6D6805F400351DB1504D554305604C
:1050600002E04D4D5543056002E04B4D056000BF29
:1050700000BF444D6D6805F0F0010909484D6B5CB7
:105080000568DD4045603F4D6D6805F4E061090A43
:10509000434D6B5C4568DD4085603A4D6D6805F4B5
:1050A0006051C90A3E4D6B5C4568DD40C560354DB9
:1050B0006D6805F44041890B3A4D6B5CC568B5FBE2
:1050C000F3F5056130BD29B12E4A526902432D4BDB
:1050D0005A6104E02B4A526982432A4B5A61704755
:1050E00029B1284A92690243264B9A6104E0254A75
:1050F00092698243234B9A61704729B1214AD26950
:105100000243204BDA6104E01E4AD26982431D4B00
:10511000DA61704729B11B4AD2680243194BDA6041
:1051200004E0184AD2688243164BDA60704729B10E
:10513000144A12690243134B1A6104E0114A1269BE
:105140008243104B1A61704712494039086070471A
:105150000F49C86470470B49C87170470948406AD5
:1051600040F0807007494862704701460020054AB8
:1051700092680A400AB1012000E00020704701490E
:1051800088727047001002400000FFF8FFFFF6FE33
:10519000000042428004424200127A0000093D00B1
:1051A000300000204000002010B50446BE48844274
:1051B00008D101218014FFF7ADFF0021A014FFF7F3
:1051C000A9FF16E0B948844208D101210014FFF775
:1051D000AEFF00212014FFF7AAFF0AE0B448844282
:1051E00007D10121C013FFF7A2FF0021E013FFF751
:1051F0009EFF10BD10B50022028802F441520B88B8
:105200004C8823438C882343CC8823430C89234335
:105210004C8923438C892343CC8923431A4302803E
:10522000838B4FF2FF74234083830B8A038210BD6C
:105230002DE9F04F85B005460C464FF000090227D6
:105240004FF000084FF0010B0026B246A88B4FF23A
:1052500040010840A88302202884B5F81C90A0686B
:10526000022801D100BF38E0A08810B94FF0010B2F
:1052700001E04FF0020B8D48854200D100E000BFF5
:105280006846FFF7C0FEDDF800A0E088B0F5007FBB
:105290000AD14FEA1A2000EB80004000A168B0FB61
:1052A000F1F0401D86B20BE04FEA4B10BAFBF0F074
:1052B00000EB80004000A168B0FBF1F0401D86B219
:1052C0000A20B6FBF0F606F00108A6EB0800C0F3D2
:1052D0004F074FF6FF7000EA0828022F01DBFF2F6F
:1052E00002DD02274FF00008E08840EA080038435A
:1052F0002884A088A189084361880843218808433D
:1053000040F4006040EA0909A5F81C9005B0BDE82A
:10531000F08F0021018041808180C1800181418125
:105320008181C18107210182704700210180418074
:105330008180C1800221816000218181704721B17B
:10534000028842F04002028004E002884FF6BF73F8
:105350001A400280704721B1828B42F480628283BE
:1053600004E0828B4FF6FF331A408283704730B5DA
:10537000002400230C110125A540ABB21AB1858889
:105380001D43858002E085889D43858030BD1AB12C
:1053900083880B43838002E083888B43838070473C
:1053A000818170470146888970474FF6FF629142BC
:1053B00004D0028842F48072028004E002884FF632
:1053C000FF631A400280704721B1828842F00402D4
:1053D000828004E082884FF6FB731A408280704717
:1053E00002884FF2FF731A40028002880A4302804B
:1053F0007047018841F480510180704721B10288D3
:1054000042F40052028004E002884DF6FF731A4015
:105410000280704702460020012901D0108B00E075
:10542000908A70470146088A7047B1F5804F04D1D1
:10543000028842F48042028004E002884BF6FF7347
:105440001A40028070470246002013890B400BB1BE
:10545000012000E000207047CA4302817047F0B588
:105460000246002000240023002501F00F0701263A
:10547000BE40B4B20B1101269E40B3B2968806EA34
:1054800003051689264016B10DB1012000E0002069
:10549000F0BD10B5002201F00F040123A3409AB221
:1054A000D343038110BD00000030014000380040AC
:1054B000003C004010B50446FE48844208D101215A
:1054C000C014FFF727FE0021E014FFF723FEC4E01D
:1054D000B4F1804F08D101210846FFF728FE0021D2
:1054E0000120FFF724FEB8E0F348844208D10121EF
:1054F0000220FFF71CFE00210220FFF718FEACE09F
:10550000EE48844208D101210420FFF710FE00215B
:105510000420FFF70CFEA0E0E948844208D10121F5
:105520000820FFF704FE00210820FFF700FE94E0AA
:10553000E448844208D101211020FFF7F8FD002142
:105540001020FFF7F4FD88E0DF48844208D10121F4
:105550002020FFF7ECFD00212020FFF7E8FD7CE094
:10556000DA48844208D101214014FFF7D3FD00211D
:105570006014FFF7CFFD70E0D548844209D10121C6
:10558000C804FFF7C7FD00214FF40020FFF7C2FD5C
:1055900063E0D048844209D101210805FFF7BAFD34
:1055A00000214FF48010FFF7B5FD56E0CA48844251
:1055B00009D101214805FFF7ADFD00214FF400108E
:1055C000FFF7A8FD49E0C548844208D101214020E9
:1055D000FFF7ADFD00214020FFF7A9FD3DE0C048E9
:1055E000844208D101218020FFF7A1FD0021802005
:1055F000FFF79DFD31E0BB48844208D101218015B1
:10560000FFF795FD0021A015FFF791FD25E0B648B5
:10561000844209D101210804FFF77CFD00214FF4E9
:105620008030FFF777FD18E0B048844209D10121AE
:105630004804FFF76FFD00214FF40030FFF76AFDCB
:105640000BE0AB48844208D101218804FFF762FDDA
:1056500000214FF48020FFF75DFD10BD002202887D
:10566000944B98420ED0994B98420BD0B0F1804F9A
:1056700008D0914B984205D0904B984202D0904B65
:10568000984204D14FF68F731A404B881A438D4BC2
:10569000984207D08C4B984204D04FF6FF431A40F3
:1056A000CB881A4302808B8883850B880385814BC6
:1056B00098420BD0854B984208D08B4B984205D02E
:1056C0008A4B984202D08A4B984201D10B7A0386CA
:1056D00001238382704770B5002400220023058CCB
:1056E0004FF6FE7635400584028C8388048B4FF696
:1056F0008F752C40B51E2C400D882C43751E2A40FA
:105700000D892A434D882A436A4DA8420BD06F4D1C
:10571000A84208D0744DA84205D0744DA84202D0CA
:10572000734DA84213D14FF6F7752A404D892A438D
:105730004FF6FB752A408D882A434FF6FF652B40B4
:105740004FF6FF552B408D892B43CD892B4383800A
:105750000483CD888586028470BD70B50024002244
:105760000023058C4FF6EF7635400584028C838844
:10577000048B48F6FF752C404FF6FF452C400D88F2
:105780004FF6FF7606EA05252C434FF6DF752A40D3
:105790000D8906EA05152A434D8806EA05152A43B0
:1057A000444DA84202D0494DA8421DD14FF67F7505
:1057B0002A404D894FF6FF7606EA05152A434FF633
:1057C000BF752A408D8806EA05152A434FF6FF3536
:1057D0002B404FF2FF752B408D8906EA85052B4340
:1057E000CD8906EA85052B4383800483CD88058710
:1057F000028470BD70B5002400220023058C4FF692
:10580000FF6635400584028C8388848B4FF68F7544
:105810002C404FF6FC752C400D882C434FF6FF555D
:105820002A400D894FF6FF7606EA05252A434D8862
:1058300006EA05252A431F4DA84202D0234DA8425F
:105840001DD14FF2FF752A404D894FF6FF7606EACB
:1058500005252A434FF6FF352A408D8806EA05259F
:105860002A434EF6FF752B404DF6FF752B408D8970
:1058700006EA05152B43CD8906EA05152B438380DF
:105880008483CD888587028470BD70B50022002393
:105890000024058C4EF6FF7635400584038C848801
:1058A000828B48F6FF752A404FF6FF452A400D8847
:1058B00020E00000002C01400004004000080040EF
:1058C000000C004000100040001400400034014073
:1058D000004C0140005001400054014000180040BD
:1058E000001C0040002000400040014000440140F6
:1058F000004801404FF6FF7606EA05252A434DF69B
:10590000FF752B400D8906EA05352B434D8806EAC5
:1059100005352B43FA4DA84202D0FA4DA84208D1D2
:105920004BF6FF752C408D894FF6FF7606EA8515FC
:105930002C4384808283CD88A0F84050038470BDBE
:10594000828B4FF2FF331A408283828B4FF6FF73B4
:1059500003EA01231A4382837047F0B50C461546CB
:10596000002200210026078C4EF6FF7C07EA0C0778
:105970000784828B018C4FF6FF7707EA043640F6E6
:10598000FF473A404FF6FF7707EA05273A434FF6BD
:10599000FF7707EA03373A43D94FB8420ED0D94FC1
:1059A000B8420BD0B0F1804F08D0D74FB84205D0E5
:1059B000D64FB84202D0D64FB84206D14DF6FF7747
:1059C000394046F48057394305E047F6FF573940E0
:1059D00044F48057394382830184F0BD828B4FF6B3
:1059E000F3731A408283828B0A4382837047F0B537
:1059F0000C461546002200210026078C4FF6FF6C4E
:105A000007EA0C070784828B018C4FF6FF7707EAC1
:105A100004264FF60C773A404FF6FF7707EA031754
:105A20002F433A43B64FB8420ED0B64FB8420BD0D0
:105A3000B0F1804F08D0B44FB84205D0B34FB84250
:105A400002D0B34FB84206D14FF6FF57394046F463
:105A50008077394305E04FF2FF57394044F48077AF
:105A6000394382830184F0BD028B4FF2FF331A4029
:105A70000283028B4FF6FF7303EA01231A4302836A
:105A80007047F0B50C461546002200210026078C11
:105A90004FF6EF7C07EA0C070784028B018C4FF668
:105AA000FF7707EA041640F6FF473A404FF6FF77C4
:105AB00007EA03373A434FF6FF7707EA05273A43E9
:105AC0008F4FB8420ED08F4FB8420BD0B0F1804FFD
:105AD00008D08D4FB84205D08C4FB84202D08C4FC1
:105AE000B84206D14FF6DF77394046F01007394308
:105AF00005E04FF65F77394044F0100739430283E1
:105B00000184F0BD028B4FF6F3731A400283028BBF
:105B10000A4302837047F0B50C4615460022002167
:105B2000068C4FF6FE773E400684028B018C4FF6C2
:105B30000C7632407E1C06EA03162E433243704E2A
:105B4000B0420ED06F4EB0420BD0B0F1804F08D0B3
:105B50006D4EB04205D06D4EB04202D06C4EB04298
:105B600006D14FF6FD76314044F00106314305E0A1
:105B70004FF6F576314044F001063143028301844B
:105B8000F0BD70B505460C465D4885420ED05D48B7
:105B900085420BD0B5F1804F08D05B48854205D0D7
:105BA0005A48854202D05A48854200D100E000BFE1
:105BB000208850B92389A28861882846FFF7ABFF67
:105BC000E1882846FFF79EFF25E0208804280AD1B7
:105BD0002389A28861882846FFF753FFE188284679
:105BE000FFF742FF17E0208808280AD12389A288FE
:105BF00061882846FFF7FBFEE1882846FFF7EEFEA6
:105C000009E02389A28861882846FFF7A6FEE1887B
:105C10002846FFF795FE70BD2DE9F04105460C467C
:105C200000260127608808B9022600E00026A08827
:105C3000012801D1022700E001272088A0B923898B
:105C4000A28861882846FFF766FFE1882846FFF7AB
:105C500059FF23893A4631462846FFF712FFE1886B
:105C60002846FFF701FF13E02389A28861882846B0
:105C7000FFF707FFE1882846FFF7F6FE23893A463B
:105C800031462846FFF747FFE1882846FFF73AFFED
:105C9000BDE8F0810A884B881A438B881A43CB8869
:105CA0001A430B891A434B891A438B891A43A0F86C
:105CB000442070474FF6FF71818000210180C18030
:105CC0004180017270470021018041808180C18044
:105CD000018141818181C181704700210180418022
:105CE000012181800021C180018170470021018054
:105CF00041808180C18001814181818170470000A4
:105D0000002C014000340140000400400008004025
:105D1000000C004021B1028842F00102028004E040
:105D200002884FF6FE731A400280704731B1B0F816
:105D3000442042F40042A0F8442005E0B0F844209A
:105D4000C2F30E02A0F8442070471AB183890B43B6
:105D5000838102E083898B4383817047818270470E
:105D600041EA0203A0F8483070471AB183890B4317
:105D7000838102E083898B438381704701894FF6D9
:105D8000F8721140018170470A46002101894FF6DF
:105D90008F73194011430181704730B504460D4699
:105DA00029462046FFF7F0FF208940F007002081B8
:105DB00030BD2DE9F04104460D4616461F46602DC4
:105DC00006D13B46012231462046FFF75AFE05E048
:105DD0003B46012231462046FFF79DFE29462046DC
:105DE000FFF7D2FF208940F007002081BDE8F08155
:105DF00030B50C4600210189C9B24FF6FF7505EA9E
:105E00000325154325432943018130BD2DE9F04188
:105E100005460E4617469846002443463A46314604
:105E20002846FFF7E5FF2C894FF6F870044044F050
:105E300007044FF68F70044044F070042C81BDE8D5
:105E4000F081F0B504460D4616461F463B463246E5
:105E500029462046FFF7CCFF208940F4804020816E
:105E6000F0BD0185828270470A46002101884FF605
:105E70008F731940114301807047F0B50C461546E9
:105E80001E460021002200230189028B038C4FF65D
:105E9000F877394021434FF6FC473A4040F201176A
:105EA0003A434FF6DD773B404FF6FF7707EA061798
:105EB0002F433B43018102830384F0BD0A46002146
:105EC000018B4FF68F7319401143018370470A46C7
:105ED0000021018B48F6FF7319404FF6FF7303EA68
:105EE00002231943018370470A460021818B4FF634
:105EF0008F7319401143818370470A460021818BBB
:105F000048F6FF7319404FF6FF7303EA0223194363
:105F10008183704721B1028842F08002028004E050
:105F200002884FF67F731A400280704721B1828841
:105F300042F00402828004E082884FF6FB731A402C
:105F40008280704721B1828842F00802828004E09A
:105F500082884FF6F7731A408280704721B1828899
:105F600042F00102828004E082884FF6FE731A40FC
:105F7000828070470A460021018B4FF6F773194063
:105F80001143018370470A460021018B4FF2FF73D2
:105F900019404FF6FF7303EA022319430183704748
:105FA0000A460021818B4FF6F77319401143818314
:105FB00070470A460021818B4FF2FF7319404FF65C
:105FC000FF7303EA02231943818370470A460021C5
:105FD000018B4FF6FB7319401143018370470A464A
:105FE0000021018B4FF6FF3319404FF6FF7303EA90
:105FF00002231943018370470A460021818B4FF623
:10600000FB7319401143818370470A460021818B3D
:106010004FF6FF3319404FF6FF7303EA022319438B
:10602000818370470A460021018B4FF67F73194028
:106030001143018370470A460021018BC1F30E0111
:106040004FF6FF7303EA02231943018370470A46A0
:106050000021818B4FF67F73194011438183704774
:106060000A460021818BC1F30E014FF6FF7303EA4C
:1060700002231943818370470A460021018C4FF6A1
:10608000FD7319401143018470470A460021018CB9
:106090004FF6F77319401143018470470A460021F7
:1060A000018C4FF6DF7319404FF6FF7303EA0213BA
:1060B0001943018470470A460021018C4FF67F7313
:1060C00019404FF6FF7303EA021319430184704726
:1060D0000A460021018C4FF6FF5319404FF6FF731B
:1060E00003EA02231943018470470A460021018C08
:1060F0004FF2FF7319404FF6FF7303EA022319436F
:10610000018470470A460021018C4DF6FF73194047
:106110004FF6FF7303EA023319430184704730B529
:10612000002301248C40A3B2048C9C430484048C7F
:1061300002FA01F5ADB22C43048430BD30B5002322
:1061400004248C40A3B2048C9C430484048C02FA83
:1061500001F5ADB22C43048430BD70B50346002078
:1061600000241846183001258D40ACB21D8CA54383
:106170001D8409B1082909D100EB6100056825F0EB
:10618000700505600568154305600EE00D1FC5F339
:106190004E052844056825F4E045056005684FF67E
:1061A000FF7606EA02263543056070BD21B10288FC
:1061B00042F00202028004E002884FF6FD731A40AA
:1061C0000280704721B1028842F00402028004E09C
:1061D00002884FF6FB731A400280704721B1828813
:1061E00042F08002828004E082884FF67F731A407A
:1061F0008280704702884FF6F7731A400280028847
:106200000A430280704782884FF68F731A4082805B
:1062100082880A438280704702894FF6F8731A40D9
:10622000028102890A430281704702894FF67F7317
:106230001A40028102890A430281704781847047B3
:1062400081857047818670470187704781877047D5
:10625000A0F84010704702884FF6FF431A400280B2
:1062600002880A43028070470146888E70470146C3
:10627000088F70470146888F70470146B1F840008B
:1062800070470146888C70470146088D704702466A
:106290000020138A0B400BB1012000E00020704762
:1062A000CA430282704730B5024600200023002412
:1062B000158A05EA0103958905EA010413B10CB1B9
:1062C000012000E0002030BDCA4302827047000078
:1062D00031490143314A1160704770B500210023F4
:1062E0000F22C47804B32D4C246804F4E064C4F590
:1062F000E064210AC1F10403CA40447804FA03F1BE
:106300008478144021430901254C0678A15504786E
:1063100004F01F050124AC4005786D11AD0005F1B6
:10632000E025C5F8004109E0047804F01F050124C8
:10633000AC401C4D0678761145F8264070BD1A4ACF
:106340000A400243154B1B1F1A60704739B1134AAC
:10635000121D12680243114B1B1D1A6006E00F4A02
:10636000121D126882430D4B1B1D1A6070470428D2
:1063700008D14FF0E021096941F004014FF0E0221B
:10638000116107E04FF0E021096921F004014FF0AD
:10639000E0221161704700000000FA050CED00E0FA
:1063A00000E400E080E100E080FFFF1F002044499E
:1063B0000860091D0860091D0860091D0860414842
:1063C0003F4914310860704700213D498279002A15
:1063D0003AD00A46126803689A430B461A600A1DAF
:1063E000126803689A430B1D1A60027911440A6807
:1063F00003681A430A60324A0832126803689A43F3
:106400002F4B08331A601A1D126803689A432C4BED
:106410000C331A604279102A0ED11A1F12680368D1
:106420001A43274B08331A601A1D126803681A436F
:10643000234B0C331A600DE02149427911440A685C
:1064400003681A430A6005E0027911440A68036888
:106450009A430A6070470021016001710C2141716B
:106460000021817170471649103109680143144AAF
:1064700010321160704701460020114A1432126830
:106480000A400AB1012000E0002070470C49143195
:1064900008607047014600200022094B1B6803EA90
:1064A0000102074B14331B680B4013B10AB10120E2
:1064B00000E0002070470249143108607047000076
:1064C00000040140FFFF0F0010B50446CC48844291
:1064D00008D101210420FEF71DFE00210420FEF753
:1064E00019FE46E0C748844208D101210820FEF782
:1064F00011FE00210820FEF70DFE3AE0C24884425A
:1065000008D101211020FEF705FE00211020FEF722
:1065100001FE2EE0BD48844208D101212020FEF773
:10652000F9FD00212020FEF7F5FD22E0B848844265
:1065300008D101214020FEF7EDFD00214020FEF7AB
:10654000E9FD16E0B348844208D101218020FEF71E
:10655000E1FD00218020FEF7DDFD0AE0AE48844227
:1065600007D101218015FEF7D5FD0021A015FEF70A
:10657000D1FD10BD10B501210846FEF7CBFD00216D
:106580000120FEF7C7FD10BD2DE9F04102460025B0
:106590000026002000230024002791F803C00CF0FF
:1065A0000F0591F803C00CF0100CBCF1000F03D0E4
:1065B00091F802C04CEA050591F800C0BCF1000F4B
:1065C00031D0146800202BE04FF0010C0CFA00F3DE
:1065D000B1F800C00CEA03069E4220D183004FF0C0
:1065E0000F0C0CFA03F7BC4305FA03FC4CEA040455
:1065F00091F803C0BCF1280F06D14FF0010C0CFA42
:1066000000FCC2F814C00AE091F803C0BCF1480FC6
:1066100005D14FF0010C0CFA00FCC2F810C0401C70
:106620000828D1D31460B1F800C0BCF1FF0F34DDED
:10663000546800202EE000F1080C4FF0010808FA21
:106640000CF3B1F800C00CEA03069E4221D183008E
:106650004FF00F0C0CFA03F7BC4305FA03FC4CEAAD
:10666000040491F803C0BCF1280F05D100F1080C17
:1066700008FA0CF8C2F8148091F803C0BCF1480F76
:1066800007D100F1080C4FF0010808FA0CF8C2F825
:106690001080401C0828CED35460BDE8F0814FF62E
:1066A000FF710180022181700421C1707047024690
:1066B000002093680B400BB1012000E000207047E0
:1066C0000146886880B2704702460020D3680B40BC
:1066D0000BB1012000E0002070470146C86880B27D
:1066E000704701617047416170470AB1016100E084
:1066F00041617047C16070474FF480320A43826144
:106700008161826182698269704702460020434B41
:1067100018684FF68073184040EA021008433F4B58
:10672000186070473E49C8617047F0B50A460023BB
:1067300000240021002500F00046B6F1004F02D1F0
:10674000364EF16901E0354E7168C0F3034583B2FE
:1067500000F44016B6F5401F08D121F070612F4EAD
:10676000766826F070662D4F7E6012E000F4801689
:10677000B6F5801F06D1032606FA05F4A14341F0C1
:10678000706106E0460D360103FA06F6B14341F0AA
:10679000706122B1460D360103FA06F6314300F06E
:1067A0000046B6F1004F02D11C4EF16101E01B4ED4
:1067B0007160F0BD30B500228B071C0F0F2303FA68
:1067C00004F2164B08338C1053F824309343134CC7
:1067D00008348D1044F8253023468C1053F82430AB
:1067E0008C07240F00FA04F423430C4C08348D105A
:1067F00044F8253030BD0A49DC310860704700009C
:1068000000080140000C014000100140001401404C
:1068100000180140001C0140002001400000014020
:10682000000020420648804706480047FEE7FEE792
:10683000FEE7FEE7FEE7FEE7FEE7FEE7FEE7FEE730
:10684000C54B0008ED40000801460020FE4A1068D4
:1068500000F03800084310607047FB49096821F0D8
:106860000801F94A11601146096801431160704737
:10687000F549096821F01001F34A116011460968D1
:10688000014311607047F148EF494860F0484860A3
:106890007047EE48EC494860ED4848607047EA4868
:1068A000006940F08000E84908617047E6480069E7
:1068B00040F08000E449086170470420E249C9685B
:1068C00001F0010109B101200EE0DF49C96801F0C2
:1068D000040109B1022007E0DB49C96801F0100199
:1068E00009B1032000E00420704700B502460423EC
:1068F000FFF7E3FF034603E0FFF7DFFF0346521E07
:10690000012B01D1002AF7D102B90523184600BD99
:1069100030B5044604254FF43020FFF7E6FF054666
:10692000042D17D1C848006940F00200C64908612B
:1069300008464461006940F0400008614FF430208F
:10694000FFF7D3FF0546C048006941F6FD710840D6
:10695000BD490861284630BD10B504244FF43020ED
:10696000FFF7C3FF0446042C16D1B748006940F076
:106970000400B54908610846006940F0400008611C
:106980004FF43020FFF7B1FF0446AF48006941F6ED
:10699000FB710840AC490861204610BD00B50246B5
:1069A0000423FFF78AFF034603E0FFF786FF034651
:1069B000521E012B01D1002AF7D102B90523184636
:1069C00000BD10B504244FF43020FFF7E7FF044664
:1069D000042C16D19C48006940F004009A490861D3
:1069E0000846006940F0400008614FF43020FFF78E
:1069F000D5FF04469448006941F6FB71084092496E
:106A00000861204610BD00208F49C96901F00201CC
:106A100009B1012000E00020704730B5A52504240D
:106A2000FFF7F1FF00B100254FF43020FFF75DFFC5
:106A30000446042C3AD1854883498860844888609C
:106A40000846006940F0200008610846006940F0EF
:106A5000400008614FF43020FFF747FF0446042C44
:106A60001BD17948006941F6DF7108407649086119
:106A70000846006940F01000086176480580E00291
:106A8000FFF733FF0446052C10D06F48006941F62C
:106A9000EF7108406C49086108E0052C06D06A488F
:106AA000006941F6EF71084067490861204630BD32
:106AB00078B506460C46042500200090E802FFF752
:106AC00014FF0546042D24D15F48006940F0010001
:106AD0005D4908613480E802FFF707FF0546042D91
:106AE00010D1B01C0090200C00990880E802FFF73C
:106AF000FCFE05465448006941F6FE7108405249C3
:106B0000086106E05048006941F6FE7108404E49B0
:106B10000861284678BD70B504460D460426F0028B
:106B2000FFF7E3FE0646042E11D14748006940F006
:106B30000100454908612580F002FFF7D6FE0646B0
:106B40004148006941F6FE7108403F4908613046FE
:106B500070BD70B505460E460424E002FFF7C5FE81
:106B60000446042C17D13948374988603848886072
:106B70000846006940F0100008612E80E002FFF72F
:106B8000B4FE0446052C06D02F48006941F6EF718B
:106B900008402D490861204670BD2DE9F0430446A8
:106BA0004FF6FF763746B046B1460425E443E6B2D9
:106BB000C4F30727C4F307484FEA1469E802FFF754
:106BC00094FE0546042D49D120481F49886020487D
:106BD00088600846006940F010000861FF2E06D06A
:106BE0001C4808300680E802FFF77FFE0546042DAA
:106BF00008D1FF2F06D017480A300780E802FFF7B8
:106C000074FE0546042D0AD1B8F1FF0F07D01148D4
:106C10000C30A0F80080E802FFF767FE0546042D5F
:106C20000AD1B9F1FF0F07D00A480E30A0F8009042
:106C3000E802FFF75AFE0546052D0FD0024800690D
:106C400041F6EF71084007E000200240230167454C
:106C5000AB89EFCD00F8FF1F664908612846BDE803
:106C6000F08330B5054604244FF43020FFF73DFE95
:106C70000446042C41D160485E4988605F488860C2
:106C80000846006940F0200008610846006940F0AD
:106C9000400008614FF43020FFF727FE0446042C23
:106CA00022D15448006941F6DF710840514908611A
:106CB0000846006940F0100008611DB100205049ED
:106CC000088002E0A5204E4908804FF43020FFF7ED
:106CD0000CFE0446052C10D04648006941F6EF71C1
:106CE00008404449086108E0052C06D04148006985
:106CF00041F6DF7108403F490861204630BDF0B5DC
:106D000005460E46174604243B483A4988603B48EE
:106D10008860E002FFF7E9FD0446042C19D13548EC
:106D2000006940F010003349086147F0F800304333
:106D300028433349891C0880E002FFF7D6FD04464A
:106D4000052C06D02B48006941F6EF71084029490F
:106D500008612046F0BD2748C06980087047254873
:106D6000006A704700202349096801F0200109B139
:106D7000012000E00020704729B11E4A1269024339
:106D80001C4B1A6104E01B4A12698243194B1A61B9
:106D9000704701460020012908D1164AD26902F045
:106DA00001020AB1012008E0002006E0114AD26881
:106DB0000A400AB1012000E0002070470D49C86078
:106DC000704704200B49C96801F0010109B1012095
:106DD0000EE00849C96801F0040109B1022007E08A
:106DE0000449C96801F0100109B1032000E0042042
:106DF000704700000020024023016745AB89EFCDBA
:106E000000F8FF1F10B504464B480078A04200D19F
:106E100010BD49480470002000F02EF94748006872
:106E2000407800F07F0040F08000444909684870D5
:106E3000424800684178012000F0CFF8012000F0BE
:106E40001BF900203D49096881F83D003B4909686C
:106E500081F83E000222394801683D31402000F0AF
:106E6000A0F86F223649012000F0BFF800BFCFE73D
:106E700010B5012000F087F8642003F059FF0020CE
:106E800000F081F8642003F053FF10BD10B52C48CA
:106E9000401E2A49086000F057F8FFF7E9FF01207B
:106EA000FFF7B0FF00F019F910BD264800787047D1
:106EB00010B50446204600F0DFF810BD10B500F014
:106EC00064F910BD10B500F079F910BD10B500F0EF
:106ED00069F910BD10B500F093F910BD10B500F0C0
:106EE00092F910BD10B500F092F910BD00BFFEE799
:106EF00010B5012000F08EF910BD70B504460D46A6
:106F00002946204600F08EF970BD70B504460D4646
:106F10002946204600F095F970BD10B500F09FF9A4
:106F200010BD10B50446204600F074F910BD10B530
:106F300000F098F910BD000045000020640000201A
:106F40000A0B00204400002008B501210420FEF7B0
:106F5000C7F80820ADF8000010208DF803000320CA
:106F60008DF8020069464348FFF70EFB1020ADF88C
:106F700000008DF8030003208DF8020069463D48AB
:106F8000FFF702FB08BD10B50446012C04D108210F
:106F90003848FFF7A8FB03E008213648FFF7A1FBBC
:106FA00010BD2DE9F04105460E4617461021314827
:106FB000FFF799FB45F08000FDF715FD002404E084
:106FC000305DFDF710FD601CC4B2BC42F8DB10213F
:106FD0002848FFF786FBBDE8F08113B5044601227F
:106FE00001A92046FFF7DDFF1CBD2DE9F041054654
:106FF0000E46174610211F48FFF775FB05F07F006E
:10700000FDF7F1FC002405E00020FDF7ECFC305515
:10701000601CC4B2BC42F7DB10211648FFF761FBCD
:10702000BDE8F08170B504460D4601222946204690
:10703000FFF7DBFF70BD70B504460D462A462146BA
:107040000020FFF7AEFF70BD70B504460D462A461E
:1070500021460020FFF7C9FF70BD002070470020C7
:1070600070470020704700207047002070470020C4
:10707000704770470008014070B504460025F64887
:107080000068407820F0F800F4490870084600785D
:10709000844219D0032C01D1012500E00025F048DD
:1070A0000078854201D0EE480570EB4800684078D2
:1070B00000F0F8002043E84909684870E648006895
:1070C00041780120FFF789FF70BD10B5E2480168E3
:1070D0003F314220FFF7A6FF10BD10B50020E14967
:1070E0000870FFF7F2FF6F22DF490120FFF77DFFF5
:1070F0002020D949096808736F22DB490120FFF776
:1071000050FFDA49086800F0F5FBD849887900F0AB
:107110003BFDD649C87900F070FDD449087A00F0EB
:1071200099FDD249487900F0EBFCD049487A00F04B
:10713000F5FD40F2FF3000F0FDFECC49087E00F086
:1071400050FE012000F02AFF802000F0A7FE012061
:1071500000F067FE1420C549087191F9040000F0A1
:1071600017FC0120FFF788FF10BD10B50120FFF7C5
:107170000AFF4FF47A7003F0DBFD0020FFF703FFF6
:107180004FF47A7003F0D4FD10BD10B5B248016819
:10719000491C0120FFF746FFAF480068407820F007
:1071A000F80010BD10B5AC4801680C310C20FFF799
:1071B00039FFA9480068007B400910BD70B5A6489A
:1071C00001681B311B20FFF72DFFA8480068A84964
:1071D00088420AD2A0490968C87E04F00AFC044625
:1071E0000022A44B04F06CFA70BD9B490968C87E6C
:1071F00004F0FFFB044600229F4B04F061FAF3E722
:107200009E48007870479E4890F9000070479D495D
:1072100003C9704793490870704700B50120FFF714
:10722000F9FF00BD70B505460C46974800882080E0
:1072300000209549088022889449284604F01CFAC9
:1072400070BD70B504460D46914805800288214600
:107250008E4804F011FA05208249087070BD8148FB
:10726000007870472DE9FC474FF0010A7D4800780F
:107270000B2873D2DFE800F0060773CEEFEEEDECDB
:1072800072EBEA002FE30120FFF7F6FE9D20724922
:107290000968487470480068417C1120FFF79DFE22
:1072A0007248C07A012816D17048007B6A49096883
:1072B00081F82400684801681C311C20FFF7B2FEE9
:1072C00065490968097F01F03F01724A52F82100BF
:1072D00000F010FB04E000205F49096881F82400F9
:1072E0005D48006890F824102420FFF776FE002007
:1072F0005949096881F83D005749096881F83E00FD
:107300000222554801683D314020FFF74AFE5748A8
:10731000807A012803D10620FFF7AEFE0EE04E482A
:107320000068C07B4C49096848734B480068417B42
:107330000D20FFF752FE0520FFF79EFE4FF48071EF
:10734000524804F0B2F949484069534908600120A5
:1073500052490860022043490870C4E2C2E201A910
:107360001220FFF75FFE9DF8040000F04000E8B136
:1073700001204A4908603D48C07A01280FD13648AB
:1073800001681C311C20FFF74DFE33490968097F55
:1073900001F03F013F4A52F8210000F0ABFA4021D2
:1073A0001220FFF71AFE03202E4908709DF80400F2
:1073B00000F00200F0B10120384908602B48C07A83
:1073C00001280FD1244801681C311C20FFF72AFE38
:1073D00021490968097F01F03F012E4A52F8210036
:1073E00000F088FA02211220FFF7F7FDFFF7DAFE1E
:1073F000224908701D48807A01280AD12748006870
:10740000C0F1010024490968884202D904201549C5
:10741000087068E21048016812311220FFF702FE7E
:107420000D480068807C00F02000202838D1202101
:107430001220FFF7D2FD0D48807A012802D10949B8
:10744000087002E00220074908704CE20BE2E6E116
:10745000DCE1ADE132E12BE1640000208600002098
:1074600087000020680000200A0B00204800002050
:10747000008F4233008064C000A063C07800002009
:107480006C000020700000206A000020790B0020B2
:1074900084000020A0BB0008800000207C000020A9
:1074A00069461920FFF7BEFD9DF8000000F080003E
:1074B00068B19DF80000C043401CC0F38500F84946
:1074C000087008460078404240B2087004E09DF819
:1074D00000008008F2490870F24801681A311A2049
:1074E000FFF7A0FDF0480068F04988422FD2EC4831
:1074F00090F90000002818DAE94890F9000004F03B
:1075000067FA04460D46E7490968887E04F071FA77
:1075100080460022E64B04F0D3F8064622462B466E
:1075200004F0CEF8E34A03C240E0DE490968887EF1
:1075300004F05FFA0646E04AE04B04F068F90446BE
:107540000022DB4B04F0BCF8DA4A03C22EE0D44838
:1075500090F90000002818DAD14890F9000004F0F2
:1075600037FA04460D46CF490968887E04F041FA8F
:1075700080460022D24B04F0A3F8064622462B4652
:1075800004F09EF8CB4A03C210E0C6490968887E21
:1075900004F02FFA0646C84AC84B04F038F90446EE
:1075A0000022C74B04F08CF8C24A03C2BE48807A5E
:1075B00001282FD1BB480068C07BBA4909684873CD
:1075C000B8480068417B0D20FFF707FDB648407AB8
:1075D00001280DD1B348006890F82200B94908800D
:1075E000B048006890F82210B748FFF72DFD52E030
:1075F000AC48016813311320FFF714FDA948006857
:10760000C07CB0490880A7480068C17CAE48FFF73D
:107610001BFD40E0A348016810311020FFF702FD78
:10762000A148407A012819D19E48006890F82200AC
:10763000A44908809B480068007C9A4909684873FF
:1076400098480068417B0D20FFF7C7FC954800680B
:1076500090F822109C48FFF7F7FC1CE09148016865
:1076600013311320FFF7DEFC8E480068C07C95497B
:1076700008808C480068007C8A49096848738948FA
:107680000068417B0D20FFF7A8FC86480068C17C9C
:107690008D48FFF7D9FC8448807A012802D18B49B4
:1076A000087002E00220894908704FF0020A1AE1CE
:1076B0000120864908704FF0030A14E10120FFF70A
:1076C000DBFC7948C07A01281AD1F5207549096890
:1076D00048747548007B7349096881F82400714833
:1076E00001681C311C20FFF79DFC6E490968097F69
:1076F00001F03F01764A52F8210000F0FBF808E063
:10770000F72068490968487400206649096881F8CB
:1077100024006448006890F824102420FFF75DFCE2
:1077200060480068417C1120FFF757FC69480078E9
:107730005C49096881F822005A48006890F82210D4
:107740002220FFF74AFC00205649096888735548F3
:107750000068817B0E20FFF740FC52480068807B68
:107760005049096848734F480068417B0D20FFF776
:1077700034FC4C48006890F822105348FFF75BFC3B
:1077800041204849096881F83D0040204549096881
:1077900081F83E000222434801683D314020FFF756
:1077A00000FC0320FFF768FC0620484908709AE0B7
:1077B00001A91220FFF736FC9DF8040000F0080034
:1077C00030B108211220FFF708FC07203F4908705C
:1077D0009DF8040000F00200B8B13348C07A0128D7
:1077E0000FD1304801681C311C20FFF71BFC2D49CC
:1077F0000968097F01F03F01354A52F8210000F085
:1078000079F802211220FFF7E8FB6CE00120FFF776
:1078100033FC00202D4908704FF0040A63E001207A
:10782000FFF72AFCFA201F49096848741D480068C0
:10783000417C1120FFF7D1FB00201A49096881F82B
:107840003D001849096881F83E0002221548016888
:107850003D314020FFF7A5FB0720FFF70DFC0A2074
:107860001A4908703FE001A91220FFF7DBFB9DF8E1
:10787000040000F0040090B104211220FFF7ADFBDA
:107880009DF8040000F0010030B301211220FFF741
:10789000A4FB01200D4908704FF0080A21E020E008
:1078A0006C0000206400002048000020008F42335C
:1078B000008064C0700000201B9E5E29CB10F13F49
:1078C00000A063C06A000020790B0020680000203F
:1078D000A0BB0008840000200020054908704FF07C
:1078E000070A00E000BF00BF5046BDE8FC8700006B
:1078F000680000202DE9F0410446FA480460204663
:1079000004F077F805460022F74B03F0F2FF074634
:1079100004F07CF80446200CF44909688871200AB8
:10792000F2490968C871F14909680C720322EF48ED
:107930000168891D0620FFF734FBBDE8F0812DE9C1
:10794000F0410322E9480168891D0620FFF74DFB3D
:10795000E648006880790004E4490968C97940EA8A
:107960000120E2490968097A0843DE49086008688D
:1079700004F03FF806460022DB4B03F048FF0446C4
:1079800004F044F8D749086008460068BDE8F08173
:1079900010B50446D548016809310920FFF742FBBC
:1079A000D248016849314D20FFF73CFBCF480068C1
:1079B000407A00F08000802841D1CC48006890F8DF
:1079C000490000F0870087281CD1052C00DA052427
:1079D000142C00DD1424C5480068407A00F08F00A4
:1079E00040F07000C14909684872C0480068407A98
:1079F00000F0F000611F01F00F010843BB49096866
:107A000048723AE0022C00DA0224112C00DD112425
:107A1000B6480068407A00F08F0040F07000B3492B
:107A200009684872B1480068407A00F0F000A11E71
:107A300001F00F010843AD49096848721DE0B4F137
:107A4000FF3F01DA4FF0FF340E2C00DD0E24A74873
:107A50000068407A00F08F0040F07000A349096888
:107A60004872A2480068407A00F0F000611C01F002
:107A70000F0108439D49096848729C480068417A93
:107A80000920FFF7AAFA9748047110BD10B597486E
:107A9000016809310920FFF7C5FA944801684931A6
:107AA0004D20FFF7BFFA91480068407A00F080004F
:107AB000802819D18D48006890F8490000F007002F
:107AC000072808D189480068407A20F0F000401D5E
:107AD0008449087110E085480068407A20F0F00081
:107AE000801C8049087107E080480068407A20F0D7
:107AF000F000401E7B4908717A4890F9040010BDDF
:107B000010B50446794801681D311D20FFF78AFA37
:107B100076480068407F64F31F107449096848770D
:107B200072480068417F1D20FFF757FA6D48447185
:107B300010BD10B56D4801681D311D20FFF772FAA8
:107B40006A480068407F00116649487108464079DC
:107B500010BD10B504466548016830313120FFF78B
:107B600061FA6248006890F8300000F0F8002043A5
:107B70005E49096881F830005C48006890F8301070
:107B80003120FFF72AFA10BD10B504460C2C01DD98
:107B90000C2402E0062C00DA0624062C03D1052072
:107BA000FFF7D7FF02E00320FFF7D3FF4F4801683C
:107BB0001E311E20FFF736FA4C480068807F64F3C0
:107BC0001F104A490968887748480068817F1E204D
:107BD000FFF703FA4348847110BD10B543480168AC
:107BE0001E311E20FFF71EFA40480068807F0011FA
:107BF0003C4988710846807910BD10B504463B4861
:107C000001681D311D20FFF70DFA38480068407FDC
:107C100000F0F10040EA44003449096848773348ED
:107C20000068417F1D20FFF7D8F92E48C47110BDB0
:107C300010B52E4801681D311D20FFF7F3F92B48C0
:107C40000068407F20F0F10040102649C8710846C6
:107C5000C07910BD10B50446244801681E311E20AD
:107C6000FFF7E0F921480068807F00F0FB0040EA60
:107C700084001E49096888771C480068817F1E209F
:107C8000FFF7ABF91748047210BD10B50446022285
:107C90001648016820312020FFF7A7F9200A134970
:107CA000096881F820001149096881F82140022201
:107CB0000E48016820312020FFF773F910BD10B580
:107CC00002220A48016820312020FFF78EF9074878
:107CD000006890F821100548006890F8200041EAFB
:107CE000002010BD4800002080844E406400002029
:107CF00010B5C64801681E311E20FFF793F9C3482E
:107D00000068807F00F00400401008B1012000E00E
:107D10000020BF4908720846007A10BD10B504461D
:107D2000BA4801681D311D20FFF77CF9B74800688B
:107D3000407F00F0FE002043B44909684877B3480B
:107D40000068417F1D20FFF748F9B148447210BD1B
:107D500010B5AE4801681D311D20FFF763F9AB482F
:107D60000068407F00F00100A94948720846407A47
:107D700010BDA74988727047A548807A7047A4490A
:107D8000C8727047A248C07A704710B504469F4831
:107D9000006880F824409D48006890F82410242052
:107DA000FFF71BF99A48047310BD10B59748016896
:107DB00024312420FFF736F99448006890F8240015
:107DC000934908730846007B10BD914908617047CC
:107DD0008F48006970478E49486170478C484069F8
:107DE000704710B504468948006880F822408748EB
:107DF000006890F822102220FFF7EFF884480476FC
:107E000010BD10B58148016822312220FFF70AF920
:107E10007E48006890F822007D4908760846007E7A
:107E200010BD10B504467948016849314D20FFF76F
:107E3000F9F87648016809310920FFF7F3F873482B
:107E40000068407A00F08000802807D1012C0AD118
:107E500087206E49096881F8490004E084206B4955
:107E6000096881F849006948006890F849104D2078
:107E7000FFF7B3F810BD10B56448016849314D20D3
:107E8000FFF7D0F86148006890F8490000F007005B
:107E9000072801D1012010BD0020FCE710B50446E1
:107EA0005A48016809310920FFF7BCF857480068B3
:107EB000407A00F07F0020435449096848725348D3
:107EC0000068417A0920FFF788F810BD10B54F48C7
:107ED000016809310920FFF7A5F84C480068407A8D
:107EE00020F07F0010BD10B50446484801680A31F3
:107EF0000A20FFF797F845480068807A00F0F00004
:107F000024F0F00108434149096888723F4800683D
:107F1000817A0A20FFF761F810BD10B53B4801686F
:107F20000A310A20FFF77EF838480068807A20F08E
:107F3000F00010BD10B504460222344801681E311D
:107F40001E20FFF752F831480068807F00F0FC00E7
:107F50006FF0FC0101EA242108432C490968887765
:107F60002A490968CC770222284801681E311E2060
:107F7000FFF717F810BD10B50222244801681E3122
:107F80001E20FFF732F821480068C07F1F490968AA
:107F9000897F21F0FC0140EA012010BD10B50446A4
:107FA0001A48016826312620FFF73CF81748006878
:107FB00090F8260000F0F70040EAC4001349096871
:107FC00081F826001148006890F826102620FFF757
:107FD00004F810BD10B50D48016826312620FFF7C2
:107FE00021F80A48006890F82600C0F3C00010BDD0
:107FF00010B50648016830313120FFF713F8034807
:10800000006890F8300000F0070010BD6400002008
:1080100048000020EFF3108072B6704780F310889C
:1080200070471D484FF0FF010170002080F3098860
:108030001A48012101701A484FF08051016062B660
:10804000FEE717484FF080510160704714484FF029
:1080500080510160704772B6EFF3098028B1203873
:1080600080E8F00F0F490968086000B50E488047A6
:108070005DF804EB0D480E490A78027009480D4975
:108080000A680260106890E8F00F203080F30988D9
:108090004EF0040E62B6704722ED00E0B200002000
:1080A00004ED00E0B800002065810008A700002072
:1080B000A8000020C000002000203349088070473D
:1080C0007047704770477047704770B50446104658
:1080D0004FF080750560051F28462C606FF0010683
:1080E000051F28462E604FF01236051F28462E60C9
:1080F0004FF00336051F28462E604FF00236051F4D
:1081000028462E607610051F28462E60051F28463B
:1081100029604FF01136051F28462E604FF01036AB
:10812000051F28462E604FF00936051F28462E6091
:108130004FF00836051F28462E604FF00736051F02
:1081400028462E604FF00636051F28462E604FF059
:108150000536051F28462E604FF00436051F2846B9
:108160002E6070BD7047704710B507480088401CEE
:108170000549088008460088642803DB0020088041
:1081800003F0A3F910BD0000880000200246002083
:1081900005E011F8013B02F8013B431CD8B20B7813
:1081A000002BF6D1137070472DE9F04105460E46BD
:1081B0001446002714B90020BDE8F0811DB9042041
:1081C00020700020F8E71EB90C2020700020F3E793
:1081D000FE480078002803DD112020700020EBE726
:1081E0002878012808D0022807D0032802D00428C4
:1081F00004D100E000BF00BF00BF03E001202070F9
:108200000020D9E700BFFFF705FF074605F113017E
:108210003046FFF7BBFF80463846FFF7FFFE0020E1
:1082200020704046C8E70146002002E0491C421C7D
:10823000D0B20A78002AF9D170472DE9F0410546FD
:108240000E4614464FF000080CB9BDE8F08115B990
:1082500004202070F9E716B90C202070F5E7DB4800
:108260000078002802DD12202070EEE7287801282F
:1082700008D0022807D0032802D0042804D100E047
:1082800000BF00BF00BF02E001202070DDE700BF9B
:10829000FFF7C0FE80463046FFF7C5FF07460F2FA9
:1082A00005DD4046FFF7BAFE0B202070CDE73146D2
:1082B00005F11300FFF76AFF4046FFF7AFFE00200D
:1082C000207000BFC1E7F0B5024612F8344F957830
:1082D0005678343A0B4618680FE000F10B073F5D03
:1082E000B74300F10B0C0CF8047067463F5D17B9FB
:1082F000877AAF4387721B1D18680028EDD1F0BD47
:10830000B349B44A1278885CB349095CB04A515CFD
:1083100001EBC001B14A1170704710B50024FFF79E
:1083200079FE0446A9480078F8B9AD480078E0B96C
:10833000FFF7E6FFAB48A949097850F82100AA49A0
:108340000860A6480078A949097888420DD0A64857
:108350000068806B401CA44909688863A4480068D1
:10836000401CA3490860FFF76CFE2046FFF756FE4D
:1083700010BD70B5014600249E4D2D68EC619D4CEA
:10838000246821620B4618681BE09A4C246894F814
:10839000345000F10B04645D964D2D6895F835500E
:1083A0002C43944D2D6895F8346000F10B05AC55C5
:1083B000847A904D2D6895F836502C4384721B1D9D
:1083C00018680028E1D18B4C246894F83420824C42
:1083D000A45C884D2D6895F83550AC437E4DAC5467
:1083E0002C46A45C44B9834C246894F83650794CEC
:1083F0002478AC43774D2C7070BD2DE9FF4F83B0CE
:1084000081460E461546109F0020009017B907B010
:10841000BDE8F08FB9F1000F03D1042038700020BF
:10842000F5E71EB9042038700020F0E71DB90420DC
:1084300038700020EBE700203060CA46DAF80040D0
:1084400015E02078062807D2DFE800F006040503CF
:10845000070807E006E005E000BF00BF0120387014
:108460000020D4E700BF0AF1040ADAF80040002C2B
:10847000E7D156480078002803DD0220387000203C
:10848000C5E757480078002803DD0D20387000202C
:10849000BDE7FFF7BFFD00900020029083460190EA
:1084A000CA46DAF8004068E02078062855D2DFE8AE
:1084B00000F054182B035556208900280CDD208924
:1084C000401E208110C601200290002001C50BF142
:1084D00001001FFA80FB03E0019840F001000190C9
:1084E00046E0606858B1606801C50020606010C651
:1084F000012002900BF101001FFA80FB03E00198BC
:1085000040F00200019033E0D4F80480B8F816007F
:1085100000281DDDD8F81010081DC8F810000868E4
:1085200001C5D8F80810D8F81000884203D1D8F84F
:108530000400C8F81000B8F81600401EA8F816008D
:1085400010C6012002900BF101001FFA80FB03E02E
:10855000019840F0040001900AE000BF00BF0098BD
:10856000FFF75CFD002030600120387058464EE770
:1085700000BF0AF1040ADAF80040002C94D10298F6
:10858000012808D1002030600098FFF747FD002047
:10859000387058463BE71748006890F8300001995A
:1085A00041F0800108431349096881F83000002038
:1085B0001049096881F831000E4906980968C88594
:1085C0004846FFF7D6FE009816E00000A500002000
:1085D0006CBC0008A9000020AA000020A800002010
:1085E000A600002070120020C0000020A70000207C
:1085F0008C000020B8000020FFF710FDFFF78DFE73
:10860000FFF708FD0090FA48006890F8310020B1AB
:1086100001281BD0022818D100E000BFF4480068F0
:10862000C4693CB110C6002030600BF101001FFA94
:1086300080FB09E00120EE49096881F831004946D4
:10864000EB480068FFF73FFE06E000BF4946E848F8
:108650000068FFF738FE00BF00BFE548006890F8EB
:10866000310020B1012828D0022825D11FE0207830
:1086700006280DD2DFE800F00C0607030D0E0020DF
:1086800001C510E000BFDA480068406A01C50AE091
:1086900000BF00BF0098FFF7C1FC00203060012040
:1086A00038705846B3E600BF002038700AE000205A
:1086B00001C50E20387005E000BF002001C50A206A
:1086C000387000BF00BF0020C949096881F8300038
:1086D000C749096881F83100C5490968C861C449BA
:1086E00009680862C249096848620098FFF796FC69
:1086F00058468CE67CB5002514E06946284602F011
:1087000034FA064666B9BB4850F8254044B1012CFE
:1087100006D0D4E9020100EB810060640198A064F6
:10872000681CC5B23F2DE8DD7CBD002402E0C820F6
:1087300002F0FEFAB04800780028F8D0AF48006890
:108740006421B0FBF1F0AD4908600846006828B923
:108750000020AB490870FF2002F052FA00BFFFF77B
:1087600059FC0446A7480068A74908600020A549AD
:1087700008602046FFF752FCA34800689F4909683B
:10878000B0FBF1F0C0F164009D490870FFF79CFC5C
:10879000FFF7B0FF642002F0CBFAE0E700B587B046
:1087A000032000218022994BCDE90132CDE903104D
:1087B0004FF6FE703E23964A0090AFF2910001F012
:1087C000A0FF06AA93A13E2002F02EF907B000BD3B
:1087D000002400BFFFF71EFC04468A480068401CC6
:1087E000884908602046FFF719FCFFF76CFCF1E7A9
:1087F00000B587B00320002180228A4BCDE90132E9
:10880000CDE903104FF6FF703F23874A0090AFF287
:108810003F0001F076FF06AA84A13F2002F004F990
:1088200007B000BD04E0002200F8012B4A1E91B2FF
:108830000029F8DC704730B54FF4B4717F48FFF77A
:10884000F1FF7E4B03F1240500240AE0002018709C
:108850005D603F20D8740021197524332435601CD5
:1088600084B2092CF2DB0020187058603F20D874C5
:108870000021197571487249086030BD30B54FF458
:10888000CF617048FFF7CEFF4FF480715948FFF772
:10889000C9FF6C4B03F15C0500240AE05D613F20D9
:1088A00083F84C0000214D20C1545C335C35601CC2
:1088B000C4B2112CF2D3002058613F2083F84C0041
:1088C00000214D20C15400205F4908605D485F4988
:1088D000086030BD00225E4B1A705E49002004E043
:1088E000002201F8012B421CD0B20828F8DB00223C
:1088F000594B1A70594B1A70594B1A603C4B1A60FD
:108900007047002057490860574908705749087058
:108910005749087057490870574908603949086035
:10892000394908603549086033490870704710B507
:10893000FFF7C2FBFFF7E5FFFFF7CCFFFFF79EFF56
:10894000FFF779FF00F007FF01F049F801F089FB1C
:10895000FFF74EFFFFF722FF02F010FEFFF7B0FB1C
:1089600010BD44480078012808D13F480078FF280E
:1089700004D23D480078401C3B490870704710B550
:1089800000243C480078012831D1FFF743FB04461E
:1089900035480078002804DD33480078401E32490D
:1089A000087031480078F8B930480078E0B9FFF72E
:1089B000A7FC10482949097850F821002849086087
:1089C000264800782449097888420DD02448006858
:1089D000806B401C22490968886327480068401C56
:1089E00025490860FFF732FB2046FFF717FB10BD53
:1089F000B800002070120020A40000209C0000207D
:108A000098000020B4000020A0000020700E00207C
:108A10006C10002075432F4F532D4949205374612A
:108A200074000000701000206C12002075432F4F5E
:108A3000532D49492049646C650000007C0C0020DE
:108A40009000002070130020C4000020BC00002013
:108A5000A9000020AA000020A7000020A8000020F4
:108A6000C0000020D4000020A5000020A6000020A7
:108A7000B3000020B20000208C00002010B50024BC
:108A8000FD480078012811D1FFF7C4FA0446FB48DD
:108A9000007840B9FA480078FF2804D2F8480078F6
:108AA000401CF74908702046FFF7B8FA10BD10B512
:108AB0000024F1480078012822D1FFF7ABFA0446E0
:108AC000EF480078002818DDED480078401EEC499A
:108AD00008700846007860B9E848007828B9204650
:108AE000FFF79CFAFFF719FC0AE02046FFF796FA19
:108AF00006E02046FFF792FA02E02046FFF78EFAE2
:108B000010BD10B5DC48007890B9FFF7F9FBDD48DF
:108B10000078DD490870DD48DA49097850F821000D
:108B2000DB49086008460068DA490860FFF779FA0F
:108B300010BD10B50024022002F0FAF8FFF76AFA1F
:108B400004460020D44908602046FFF767FA6420F5
:108B500002F0EEF8FFF75EFA0446CF480068CF490E
:108B600008600120CE4908702046FFF757FA10BD73
:108B700070B50026FFF7F8FAFFF74CFA0646C94829
:108B80000068401CC74908603046FFF747FABA48FA
:108B90000078012853D1C448007820B1012804D0BE
:108BA000022809D103E001250BE0002509E0012599
:108BB0000120BD49087004E001250020BA49087071
:108BC00000BF00BF05B970BDB848046833E0FFF7C7
:108BD00021FA0646E08D50B3E08D401E80B2E0855C
:108BE00028BB94F8300000F0370040B114F8300F83
:108BF00020F03700207001206070303C02E000203F
:108C000084F8310094F8300000F0080078B934346A
:108C1000A078A74909780843A54908702078A54994
:108C2000085C6178084314F83419A24A5054646906
:108C30003046FFF7F3F994F832003F28C7D100BF60
:108C4000C1E74FF48F707047704710B590F834202B
:108C500001F10B039B5C90F83540A34301F10B0439
:108C6000A35423469B5C23B98B7A90F83640A343E8
:108C70008B7210BD2DE9F04F05460F469046994680
:108C8000A87A8D490E5C05F10B00805D11F800B0EB
:108C90000BEBC60000F0FF0A7C4850F82A40002089
:108CA000243460812760207B20EA0800207384F848
:108CB0000D90207B243C00F0080068B994F8360041
:108CC0007B49097808437A4908707A48805D94F8AE
:108CD000351008437749885529462046FFF7B5FFE8
:108CE000206A20B12046216AFFF7EDFAE56150467F
:108CF000BDE8F08F10B5674A1268D061654A126806
:108D000092F8343000F10B02D25C624B1B6893F88E
:108D100035301A435F4B1B6893F8344000F10B0366
:108D20001A55827A5B4B1B6893F836301A4382726D
:108D3000584A126892F834105E4A525C554B1B68D0
:108D400093F835309A435B4B5A541A46525C42B9F9
:108D5000504A126892F83630554A12789A43544B6A
:108D60001A7010BD0023837200F10B01002204E091
:108D7000002301F8013B531CDAB2082AF8DB7047E4
:108D800005E011F8013B00F8013B531E9AB2002A9E
:108D9000F7DC70472DE9F84F05460E461746984612
:108DA000DDE90BABDDF8289000200090FFF732F9E9
:108DB000009042480468002C5DD0183454F8040C2C
:108DC0003E4908600098FFF729F944F8186CA57629
:108DD000002020766076E08244F814AC44F80C9CC5
:108DE00044F8107C24F808BC24F8068CE077E810DE
:108DF000207705F00700E076217F01208840A077EA
:108E0000E17E01208840607700206060A0602061E2
:108E1000E0602062A0626062E06220633F2084F82C
:108E20003400183C00214D2001552046FFF79BF9E6
:108E30002046FFF746F9FFF7EDF80090134840F899
:108E400025401A48006860610020A061174800684A
:108E500010B1164800688461144804603434A07866
:108E60001349097808431249087020781149085CB1
:108E70006178084324E032E0B2000020A500002021
:108E8000A6000020A8000020A700002070120020EB
:108E9000C0000020B8000020B40000209C0000208A
:108EA000A4000020D4000020C8000020C40000203E
:108EB000A9000020AA0000206CBC0008BC00002013
:108EC00014F83419084A505408480078401C0749DF
:108ED00008700098FFF7A2F80020BDE8F88F00980E
:108EE000FFF79CF84220F8E7AA000020B30000201A
:108EF0002DE9F05F04460F4691461E464FF0000BE9
:108F000016B90020BDE8F09F1CB96E20307000201B
:108F1000F8E72078052803D0012030700020F1E721
:108F200009F0800ABAF1000F04D029F080094FF04F
:108F3000010801E04FF0000800203070FFF76AF8E8
:108F40008346B9F1000F2CD0B9F1010F3BD0B9F134
:108F5000020F03D0B9F1030F46D111E0208900EAD6
:108F60000705BD4206D1B8F1010F05D12089A843FC
:108F7000208101E0702030705846FFF74FF83AE04A
:108F8000208900EA070535B1B8F1010F05D1208924
:108F9000A843208101E0702030705846FFF73EF86A
:108FA00029E0208927EA0005BD4206D1B8F1010F6A
:108FB00005D120892843208101E070203070584677
:108FC000FFF72CF817E0208927EA000535B1B8F142
:108FD000010F05D120892843208101E070203070E5
:108FE0005846FFF71BF806E05846FFF717F800252C
:108FF0006F20307000BF00BF284683E72DE9F041A5
:1090000006460D46002715B90020BDE8F081FA4854
:109010000078002803DD102028700020F5E7FEF717
:10902000F9FF0746F548046894B100684068F349C1
:109030000860052020702681002060603F20A0721B
:109040000021E1723846FEF7E9FF0020287004E0B5
:109050003846FEF7E3FF722028702046D5E730B58A
:1090600001464A6808682AB9CC68606028B10025C2
:10907000456002E0106000B142608B6800259D628F
:1090800030BDF0B506460F46B46800202C34608031
:109090002780207920F02000207100206071207945
:1090A0002C3C88B93434A078D54909780843D44990
:1090B00008702078D349085C6178084314F83419A3
:1090C000D04A5054012500E000253046FFF7C7FF85
:1090D0002846F0BD2DE9F0470446894615464FF075
:1090E000000A15B92046BDE8F0871CB96E2028702B
:1090F0002046F8E7C0480078002803DD0F202870DC
:109100002046F0E72078052803D00120287020466B
:10911000E9E7FEF77FFF8246606808B1012700E0BB
:109120000027B9F1000F03D0B9F1010F40D11BE0C6
:109130009FB93F20A0720021E17200202070AF484B
:109140000068606000202081AC4804605046FEF753
:1091500065FF00202870002605E05046FEF75EFF00
:109160004920287026462AE0D4F8048005E0002132
:109170004046FFF786FFD8F80080B8F1000FF6D11F
:109180003F20A0720021E172002020709B480068FF
:10919000606000202081994804605046FEF73EFF41
:1091A000012F01D1FFF7B9F800202870002606E052
:1091B0005046FEF733FF07202870264600BF00BF49
:1091C000304690E72DE9F04105460E46144600274B
:1091D00014B90020BDE8F0811DB96E202070002078
:1091E000F8E71EB90C2020700020F3E782480078D1
:1091F000002803DD112020700020EBE7FEF70AFFB6
:1092000007462878052806D03846FEF707FF0120D4
:1092100020700020DEE705F10A013046FEF7B6FFB8
:1092200080463846FEF7FAFE002020704046D1E71F
:109230002DE9F04105460E4614464FF000080CB9E2
:10924000BDE8F08115B96E202070F9E716B90C2041
:109250002070F5E768480078002802DD12202070B1
:10926000EEE7FEF7D7FE80462878052805D0404671
:10927000FEF7D4FE01202070E2E73046FEF7D3FF70
:1092800007460F2F05DD4046FEF7C8FE732020700D
:10929000D6E7314605F10A00FEF778FF4046FEF7B3
:1092A000BDFE0020207000BFCAE7F0B51446059E41
:1092B000554F3F6897F8307047F02007DFF848C1F6
:1092C000DCF800C08CF830700027DFF83CC1DCF817
:1092D00000C08CF831704C4F3F68FE854A4F3F68A4
:1092E000B9620C828B74484F3F688F6047680F608B
:1092F00000274F60C860456805B169604160424F12
:109300003F6897F834203F4FBF5CDFF8FCC0DCF8C3
:1093100000C09CF835C027EA0C07DFF8E8C00CF85D
:1093200002706746BF5C5FB9374F3F6897F836C039
:10933000334F3F7827EA0C07DFF8C4C08CF8007081
:10934000F0BD2DE9F04F89B005460F4691469A468B
:10935000129E0020029016B909B0BDE8F08F1DB929
:109360006E2030700020F7E723480078002803DDE6
:10937000022030700020EFE724480078002803DD49
:109380000D2030700020E7E72878052803D0012061
:1093900030700020E0E709F0800BBBF1000F04D033
:1093A00029F080094FF0010801E04FF00008FEF7B6
:1093B00031FE0290B9F1000F56D0B9F1010F76D00D
:1093C000B9F1020F03D0B9F1030F6FD12CE0288956
:1093D00000EA0704BC421BD1B8F1010F02D1288971
:1093E000A04328810848006884850298FEF716FE8D
:1093F000002030702046AFE7A50000209400002038
:10940000A9000020AA000020B8000020A60000202B
:109410004B463A4604A92846CDF800A0FFF745FF81
:109420000298FEF7FBFD6AE0288900EA07047CB198
:10943000B8F1010F02D12889A0432881D7480068DC
:1094400084850298FEF7EAFD00203070204683E70D
:109450004B463A4604A92846CDF800A0FFF725FF61
:109460000298FEF7DBFD4AE0288927EA0004BC42A7
:109470000FD1B8F1010F02D1288920432881C748B4
:10948000006884850298FEF7C9FD002030702046F0
:1094900062E74B463A4604A92846CDF800A0FFF7FC
:1094A00004FF0298FEF7BAFD29E000E01FE02889DA
:1094B00027EA00047CB1B8F1010F02D128892043CA
:1094C0002881B648006884850298FEF7A7FD002031
:1094D0003070204640E74B463A4604A92846CDF86E
:1094E00000A0FFF7E2FE0298FEF798FD07E0029861
:1094F000FEF794FD00246F20307020462CE700BF5B
:10950000FEF70BFFFEF786FD0290A448006890F876
:10951000310020B3A148006890F83100039000208A
:109520009E49096881F8310004A8FFF798FD0020E2
:109530009A49096881F830000298FEF76FFD00240F
:109540000398012805D0022802D10E20307003E0D4
:1095500000BF0A20307000BF00BF2046FCE68F48E5
:109560000068848DB8F1010F1ED1B9F1000F0ED043
:10957000B9F1010F0CD0B9F1020F03D0B9F1030F0B
:109580000AD100E000BF2889A04328810BE000BF7A
:1095900028892043288106E00298FEF73FFD6F20CE
:1095A00030700020D8E600BF0298FEF737FD00209B
:1095B00030702046D0E670B50025FEF72BFD05463D
:1095C00076480068848D2846FEF728FD204670BD49
:1095D0002DE9FC5F0446894692461E460020009015
:1095E0000EB9BDE8FC9F1CB96E2030700020F8E772
:1095F0002078052803D0012030700020F1E7FEF725
:1096000009FD0090BAF1000F03D0BAF1010F0AD1A1
:1096100004E0208920EA090020810BE0208940EA4B
:109620000900208106E00098FEF7F8FC71203070F8
:109630000020D6E700BF4FF0000B656855E0A87C1E
:1096400040B3012838D0022802D0032844D111E0C9
:109650002089298A00EA0107288AB84209D13946B7
:109660002846FFF70EFD8046B8F1010F01D14FF0FB
:10967000010B38E02089298A00EA01074FB13946F9
:109680002846FFF7FEFC8046B8F1010F01D14FF0EC
:10969000010B28E0288A218920EA0107288AB8429C
:1096A00009D139462846FFF7ECFC8046B8F1010F96
:1096B00001D14FF0010B16E0288A218920EA010729
:1096C0004FB139462846FFF7DCFC8046B8F1010F60
:1096D00001D14FF0010B06E00098FEF79FFC6F20D0
:1096E000307000207DE700BF2D68002DA7D10098C5
:1096F000FEF794FCBBF1010F01D1FEF70EFEFEF761
:1097000089FC0090208901900098FEF787FC0020DA
:109710003070019865E72DE9F04105460C460027B9
:1097200014B90020BDE8F0811DB96E202070002022
:10973000F8E72878052803D0012020700020F1E701
:10974000FEF768FC07462E893846FEF767FC0020C6
:1097500020703046E6E770B58C211148FFF762F8BB
:109760000F4C04F11C0600250AE000202070666002
:109770003F20A0720021E1721C341C36681C85B2A7
:10978000042DF2DB0020207060603F20A0720021D9
:10979000E17203480349086070BD0000B800002072
:1097A000E40D0020940000202DE9F84F06460F46F6
:1097B00090461C46002000900CB9BDE8F88F1EB9F9
:1097C000622020700020F8E706F0030018B1622044
:1097D00020700020F1E7022F03D25B2020700020D0
:1097E000EBE7B8F1040F03D25C2020700020E4E71F
:1097F000FEF710FC00908B480568006820B189488E
:1098000000684068874908600098FEF707FC1DB9AA
:109810005A2020700020D0E7B14606EB080A4FF02E
:10982000000B05E0C9F800A0D146C2440BF1010BC2
:10983000781E5845F6D80020C9F800002E606E60EA
:109840002F61EF60C5F8088020702846B5E72DE944
:10985000F04104460D46002715B90020BDE8F0810F
:109860001CB9602028700020F8E7FEF7D3FB0746FC
:10987000206960B16668306860602069401E2061C0
:109880003846FEF7CBFB002028703046E6E7384626
:10989000FEF7C4FB5D2028700020DFE72DE9F041D2
:1098A00005460E461446002714B90020BDE8F08195
:1098B0001DB9602020700020F8E71EB90C20207030
:1098C0000020F3E758480078002803DD11202070BD
:1098D0000020EBE7FEF79EFB074605F1140130463A
:1098E000FEF754FC80463846FEF798FB00202070B7
:1098F0004046DBE72DE9F04105460E4614464FF0A1
:1099000000080CB9BDE8F08115B960202070F9E7B6
:1099100016B90C202070F5E743480078002802DDD6
:1099200012202070EEE7FEF775FB80463046FEF70A
:109930007AFC07460F2F05DD4046FEF76FFB6320DC
:109940002070DFE7314605F11400FEF71FFC4046AA
:10995000FEF764FB0020207000BFD3E770B504461B
:109960000D4600260CB9602070BD0DB95F20FBE7E5
:10997000FEF750FB0646D4E90310884204D3304674
:10998000FEF74CFB5E20EFE76068286065602069A9
:10999000401C20613046FEF741FB0020E4E770B533
:1099A00005460C4600260DB9602070BD0CB961203B
:1099B000FBE7FEF72FFB06462868206068686060BA
:1099C000A868A060E868E060286920613046FEF77A
:1099D00025FBD4E90301401A60610020E5E770B57A
:1099E000B4211248FEF71EFF104C00250DE0681C44
:1099F00000EBC0000D4901EB800060603F20207546
:109A0000002161752434681C85B2042DEFDB002031
:109A100060603F202075002161750448014908609D
:109A200070BD0000CC000020A5000020E819002037
:109A30002DE9F04106460D464FF0000815B900200B
:109A4000BDE8F0811EB9042028700020F8E73078C6
:109A5000022803D0012028700020F1E7FEF7DAFA8F
:109A600080467468E08A00280FDD2169081D2061A6
:109A70000F68E08A401EE082A1682069884201D117
:109A8000606820610020287002E01F2028700027F5
:109A90004046FEF7C3FA3846D2E72DE9F0410646C4
:109AA0000F464FF00008F7480078002802DD00203C
:109AB000BDE8F081FEF7AEFA8046F348046800681E
:109AC00020B1F14800684068EF4908604046FEF761
:109AD000A5FA0CB3FEF79EFA8046EC480568E5B19E
